{
  "contractName": "Counter",
  "abi": [
    {
      "inputs": [],
      "name": "count",
      "outputs": [
        {
          "internalType": "uint256",
          "name": "",
          "type": "uint256"
        }
      ],
      "stateMutability": "view",
      "type": "function"
    },
    {
      "inputs": [],
      "name": "inc",
      "outputs": [],
      "stateMutability": "payable",
      "type": "function"
    },
    {
      "inputs": [],
      "name": "fail",
      "outputs": [],
      "stateMutability": "pure",
      "type": "function"
    }
  ],
  "bytecode": "0x60806040526000805534801561001457600080fd5b5061025a806100246000396000f3fe6080604052600436106100345760003560e01c806306661abd14610039578063371303c014610064578063a9cc47181461006e575b600080fd5b34801561004557600080fd5b5061004e610085565b60405161005b9190610140565b60405180910390f35b61006c61008b565b005b34801561007a57600080fd5b506100836100b3565b005b60005481565b600160005461009a919061016c565b6000808282546100aa919061016c565b92505081905550565b6040517f08c379a00000000000000000000000000000000000000000000000000000000081526004016100e590610120565b60405180910390fd5b60006100fb60048361015b565b9150610106826101fb565b602082019050919050565b61011a816101c2565b82525050565b60006020820190508181036000830152610139816100ee565b9050919050565b60006020820190506101556000830184610111565b92915050565b600082825260208201905092915050565b6000610177826101c2565b9150610182836101c2565b9250827fffffffffffffffffffffffffffffffffffffffffffffffffffffffffffffffff038211156101b7576101b66101cc565b5b828201905092915050565b6000819050919050565b7f4e487b7100000000000000000000000000000000000000000000000000000000600052601160045260246000fd5b7f426f6f6d0000000000000000000000000000000000000000000000000000000060008201525056fea264697066735822122054e6697b21536bf3c4f2d8d9ede922d2987c0db8a5da50903b49398c5767110464736f6c63430008030033",
  "immutableReferences": {},
  "source": "// SPDX-License-Identifier: MIT\r\npragma solidity >=0.4.22 <0.9.0;\r\n\r\ncontract Counter {\r\n  uint public count = 0;\r\n\r\n  function inc() public payable {\r\n    count += count + 1;\r\n  }\r\n\r\n  function fail() public pure {\r\n    revert(\"Boom\");\r\n  }\r\n}\r\n",
  "sourcePath": "D:/SourceCode/IOVLABS/rif-scheduler-contracts-poc/contracts/Counter.sol",
  "compiler": {
    "name": "solc",
    "version": "0.8.3+commit.8d00100c.Emscripten.clang"
  },
  "schemaVersion": "3.3.4",
  "updatedAt": "2021-04-13T20:10:54.588Z",
  "devdoc": {
    "kind": "dev",
    "methods": {},
    "version": 1
  },
  "userdoc": {
    "kind": "user",
    "methods": {},
    "version": 1
  }
}