{
  "contractName": "OneShotSchedule",
  "abi": [
    {
      "inputs": [
        {
          "internalType": "uint256",
          "name": "_window",
          "type": "uint256"
        }
      ],
      "stateMutability": "nonpayable",
      "type": "constructor"
    },
    {
      "anonymous": false,
      "inputs": [
        {
          "indexed": true,
          "internalType": "uint256",
          "name": "index",
          "type": "uint256"
        },
        {
          "indexed": false,
          "internalType": "address",
          "name": "to",
          "type": "address"
        },
        {
          "indexed": false,
          "internalType": "bytes",
          "name": "data",
          "type": "bytes"
        },
        {
          "indexed": false,
          "internalType": "uint256",
          "name": "gas",
          "type": "uint256"
        },
        {
          "indexed": false,
          "internalType": "uint256",
          "name": "timestamp",
          "type": "uint256"
        },
        {
          "indexed": false,
          "internalType": "uint256",
          "name": "value",
          "type": "uint256"
        }
      ],
      "name": "MetatransactionAdded",
      "type": "event"
    },
    {
      "anonymous": false,
      "inputs": [
        {
          "indexed": true,
          "internalType": "uint256",
          "name": "index",
          "type": "uint256"
        },
        {
          "indexed": false,
          "internalType": "bool",
          "name": "succes",
          "type": "bool"
        },
        {
          "indexed": false,
          "internalType": "bytes",
          "name": "result",
          "type": "bytes"
        }
      ],
      "name": "MetatransactionExecuted",
      "type": "event"
    },
    {
      "inputs": [
        {
          "internalType": "address",
          "name": "to",
          "type": "address"
        },
        {
          "internalType": "bytes",
          "name": "data",
          "type": "bytes"
        },
        {
          "internalType": "uint256",
          "name": "gas",
          "type": "uint256"
        },
        {
          "internalType": "uint256",
          "name": "timestamp",
          "type": "uint256"
        }
      ],
      "name": "schedule",
      "outputs": [],
      "stateMutability": "payable",
      "type": "function"
    },
    {
      "inputs": [
        {
          "internalType": "uint256",
          "name": "index",
          "type": "uint256"
        }
      ],
      "name": "getSchedule",
      "outputs": [
        {
          "internalType": "address",
          "name": "",
          "type": "address"
        },
        {
          "internalType": "bytes",
          "name": "",
          "type": "bytes"
        },
        {
          "internalType": "uint256",
          "name": "",
          "type": "uint256"
        },
        {
          "internalType": "uint256",
          "name": "",
          "type": "uint256"
        },
        {
          "internalType": "uint256",
          "name": "",
          "type": "uint256"
        },
        {
          "internalType": "bool",
          "name": "",
          "type": "bool"
        }
      ],
      "stateMutability": "view",
      "type": "function"
    },
    {
      "inputs": [
        {
          "internalType": "uint256",
          "name": "index",
          "type": "uint256"
        }
      ],
      "name": "execute",
      "outputs": [],
      "stateMutability": "nonpayable",
      "type": "function"
    }
  ],
  "bytecode": "0x608060405234801561001057600080fd5b50604051610ef7380380610ef783398181016040528101906100329190610054565b806000819055505061009e565b60008151905061004e81610087565b92915050565b60006020828403121561006657600080fd5b60006100748482850161003f565b91505092915050565b6000819050919050565b6100908161007d565b811461009b57600080fd5b50565b610e4a806100ad6000396000f3fe6080604052600436106100345760003560e01c80631cb2ca3914610039578063c5ca93a714610055578063fe0d94c114610097575b600080fd5b610053600480360381019061004e9190610758565b6100c0565b005b34801561006157600080fd5b5061007c600480360381019061007791906107d3565b61022b565b60405161008e969594939291906109bb565b60405180910390f35b3480156100a357600080fd5b506100be60048036038101906100b991906107d3565b6103e1565b005b60016040518060c001604052808673ffffffffffffffffffffffffffffffffffffffff16815260200185815260200184815260200183815260200134815260200160001515815250908060018154018082558091505060019003906000526020600020906006020160009091909190915060008201518160000160006101000a81548173ffffffffffffffffffffffffffffffffffffffff021916908373ffffffffffffffffffffffffffffffffffffffff1602179055506020820151816001019080519060200190610194929190610623565b5060408201518160020155606082015181600301556080820151816004015560a08201518160050160006101000a81548160ff0219169083151502179055505050600180805490506101e69190610bac565b7ffa4b4920f8587071e96149cae0534acba0997a79026f5d2723ea334ff4fcb7fb858585853460405161021d959493929190610961565b60405180910390a250505050565b60006060600080600080600060018881548110610271577f4e487b7100000000000000000000000000000000000000000000000000000000600052603260045260246000fd5b90600052602060002090600602016040518060c00160405290816000820160009054906101000a900473ffffffffffffffffffffffffffffffffffffffff1673ffffffffffffffffffffffffffffffffffffffff1673ffffffffffffffffffffffffffffffffffffffff1681526020016001820180546102f090610c6a565b80601f016020809104026020016040519081016040528092919081815260200182805461031c90610c6a565b80156103695780601f1061033e57610100808354040283529160200191610369565b820191906000526020600020905b81548152906001019060200180831161034c57829003601f168201915b505050505081526020016002820154815260200160038201548152602001600482015481526020016005820160009054906101000a900460ff1615151515815250509050806000015181602001518260400151836060015184608001518560a001519650965096509650965096505091939550919395565b60006001828154811061041d577f4e487b7100000000000000000000000000000000000000000000000000000000600052603260045260246000fd5b906000526020600020906006020190508060050160009054906101000a900460ff161561047f576040517f08c379a000000000000000000000000000000000000000000000000000000000815260040161047690610a53565b60405180910390fd5b4260005482600301546104929190610bac565b106104d2576040517f08c379a00000000000000000000000000000000000000000000000000000000081526004016104c990610a93565b60405180910390fd5b4260005482600301546104e59190610b56565b11610525576040517f08c379a000000000000000000000000000000000000000000000000000000000815260040161051c90610a73565b60405180910390fd5b6000808260000160009054906101000a900473ffffffffffffffffffffffffffffffffffffffff1673ffffffffffffffffffffffffffffffffffffffff16836002015484600401548560010160405161057e919061094a565b600060405180830381858888f193505050503d80600081146105bc576040519150601f19603f3d011682016040523d82523d6000602084013e6105c1565b606091505b509150915060018360050160006101000a81548160ff021916908315150217905550837f03d9c25c2b9948d34ee863370ca688d682e036a337ef9fe3a28b72268dc33f608383604051610615929190610a23565b60405180910390a250505050565b82805461062f90610c6a565b90600052602060002090601f0160209004810192826106515760008555610698565b82601f1061066a57805160ff1916838001178555610698565b82800160010185558215610698579182015b8281111561069757825182559160200191906001019061067c565b5b5090506106a591906106a9565b5090565b5b808211156106c25760008160009055506001016106aa565b5090565b60006106d96106d484610ad8565b610ab3565b9050828152602081018484840111156106f157600080fd5b6106fc848285610c28565b509392505050565b60008135905061071381610de6565b92915050565b600082601f83011261072a57600080fd5b813561073a8482602086016106c6565b91505092915050565b60008135905061075281610dfd565b92915050565b6000806000806080858703121561076e57600080fd5b600061077c87828801610704565b945050602085013567ffffffffffffffff81111561079957600080fd5b6107a587828801610719565b93505060406107b687828801610743565b92505060606107c787828801610743565b91505092959194509250565b6000602082840312156107e557600080fd5b60006107f384828501610743565b91505092915050565b61080581610be0565b82525050565b61081481610bf2565b82525050565b600061082582610b1e565b61082f8185610b29565b935061083f818560208601610c37565b61084881610d5a565b840191505092915050565b6000815461086081610c6a565b61086a8186610b3a565b945060018216600081146108855760018114610896576108c9565b60ff198316865281860193506108c9565b61089f85610b09565b60005b838110156108c1578154818901526001820191506020810190506108a2565b838801955050505b50505092915050565b60006108df601083610b45565b91506108ea82610d6b565b602082019050919050565b6000610902600883610b45565b915061090d82610d94565b602082019050919050565b6000610925600883610b45565b915061093082610dbd565b602082019050919050565b61094481610c1e565b82525050565b60006109568284610853565b915081905092915050565b600060a08201905061097660008301886107fc565b8181036020830152610988818761081a565b9050610997604083018661093b565b6109a4606083018561093b565b6109b1608083018461093b565b9695505050505050565b600060c0820190506109d060008301896107fc565b81810360208301526109e2818861081a565b90506109f1604083018761093b565b6109fe606083018661093b565b610a0b608083018561093b565b610a1860a083018461080b565b979650505050505050565b6000604082019050610a38600083018561080b565b8181036020830152610a4a818461081a565b90509392505050565b60006020820190508181036000830152610a6c816108d2565b9050919050565b60006020820190508181036000830152610a8c816108f5565b9050919050565b60006020820190508181036000830152610aac81610918565b9050919050565b6000610abd610ace565b9050610ac98282610c9c565b919050565b6000604051905090565b600067ffffffffffffffff821115610af357610af2610d2b565b5b610afc82610d5a565b9050602081019050919050565b60008190508160005260206000209050919050565b600081519050919050565b600082825260208201905092915050565b600081905092915050565b600082825260208201905092915050565b6000610b6182610c1e565b9150610b6c83610c1e565b9250827fffffffffffffffffffffffffffffffffffffffffffffffffffffffffffffffff03821115610ba157610ba0610ccd565b5b828201905092915050565b6000610bb782610c1e565b9150610bc283610c1e565b925082821015610bd557610bd4610ccd565b5b828203905092915050565b6000610beb82610bfe565b9050919050565b60008115159050919050565b600073ffffffffffffffffffffffffffffffffffffffff82169050919050565b6000819050919050565b82818337600083830152505050565b60005b83811015610c55578082015181840152602081019050610c3a565b83811115610c64576000848401525b50505050565b60006002820490506001821680610c8257607f821691505b60208210811415610c9657610c95610cfc565b5b50919050565b610ca582610d5a565b810181811067ffffffffffffffff82111715610cc457610cc3610d2b565b5b80604052505050565b7f4e487b7100000000000000000000000000000000000000000000000000000000600052601160045260246000fd5b7f4e487b7100000000000000000000000000000000000000000000000000000000600052602260045260246000fd5b7f4e487b7100000000000000000000000000000000000000000000000000000000600052604160045260246000fd5b6000601f19601f8301169050919050565b7f416c726561647920657865637574656400000000000000000000000000000000600082015250565b7f546f6f206c617465000000000000000000000000000000000000000000000000600082015250565b7f546f6f20736f6f6e000000000000000000000000000000000000000000000000600082015250565b610def81610be0565b8114610dfa57600080fd5b50565b610e0681610c1e565b8114610e1157600080fd5b5056fea2646970667358221220db2cbf84c47b9f6a2872124e857b0a65e35666c434b67f056fe49b548c1abeb164736f6c63430008030033",
  "immutableReferences": {},
  "source": "// SPDX-License-Identifier: MIT\r\npragma solidity >=0.4.22 <0.9.0;\r\n\r\ncontract OneShotSchedule {\r\n  uint window;\r\n\r\n  struct Metatransaction {\r\n    address to;\r\n    bytes data;\r\n    uint gas;\r\n    uint timestamp;\r\n    uint value;\r\n    bool executed;\r\n  }\r\n\r\n  constructor(uint _window) {\r\n    window = _window;\r\n  }\r\n\r\n  Metatransaction[] private bag;\r\n\r\n  event MetatransactionAdded(uint indexed index, address to, bytes data, uint gas, uint timestamp, uint value);\r\n  event MetatransactionExecuted(uint indexed index, bool succes, bytes result);\r\n\r\n  function schedule(address to, bytes memory data, uint gas, uint timestamp) public payable {\r\n    // We should charge the user for the execution. Refund is given if service provider\r\n    // fails to execute the transaction\r\n\r\n    // Important! Check the schedule is not for the past\r\n    bag.push(Metatransaction(to, data, gas, timestamp, msg.value, false));\r\n    emit MetatransactionAdded(bag.length - 1, to, data, gas, timestamp, msg.value);\r\n  }\r\n\r\n  function getSchedule(uint index) public view returns(address, bytes memory, uint, uint, uint, bool) {\r\n    Metatransaction memory metatransaction = bag[index];\r\n    return (metatransaction.to, metatransaction.data, metatransaction.gas, metatransaction.timestamp, metatransaction.value, metatransaction.executed);\r\n  }\r\n\r\n  function execute(uint index) public {\r\n    Metatransaction storage metatransaction = bag[index];\r\n\r\n    require(!metatransaction.executed, \"Already executed\");\r\n\r\n    // Instead of just reverting, here we should:\r\n    // - give the requestor a refund\r\n    // - penalize the service provider\r\n    require(metatransaction.timestamp - window < block.timestamp, \"Too soon\");\r\n    require(metatransaction.timestamp + window > block.timestamp, \"Too late\");\r\n\r\n    // We can use gasleft() here to charge the consumer for the gas\r\n    // A contract may hold user's gas and charge it after executing\r\n    // the transaction\r\n\r\n    // Now failing transactions are forwarded. Is responsability of the requestor\r\n    // to list a valid transaction\r\n    (bool success, bytes memory result) = metatransaction.to.call{ gas: metatransaction.gas, value: metatransaction.value }(metatransaction.data);\r\n\r\n    // The difference when calling gasleft() again is (aprox.) the gas used\r\n    // in the call\r\n\r\n    metatransaction.executed = true;\r\n\r\n    // After executing we do the payout to the service provider:\r\n    // - return the gas used\r\n    // - send the tokens paid for the service\r\n\r\n    emit MetatransactionExecuted(index, success, result);\r\n  }\r\n}\r\n",
  "sourcePath": "D:/SourceCode/IOVLABS/rif-scheduler-contracts-poc/contracts/OneShotSchedule.sol",
  "compiler": {
    "name": "solc",
    "version": "0.8.3+commit.8d00100c.Emscripten.clang"
  },
  "schemaVersion": "3.3.4",
  "updatedAt": "2021-04-13T20:10:54.594Z",
  "devdoc": {
    "kind": "dev",
    "methods": {},
    "version": 1
  },
  "userdoc": {
    "kind": "user",
    "methods": {},
    "version": 1
  }
}