{
  "contractName": "Counter",
  "abi": [
    {
      "inputs": [],
      "name": "count",
      "outputs": [
        {
          "internalType": "uint256",
          "name": "",
          "type": "uint256"
        }
      ],
      "stateMutability": "view",
      "type": "function"
    },
    {
      "inputs": [],
      "name": "inc",
      "outputs": [],
      "stateMutability": "payable",
      "type": "function"
    },
    {
      "inputs": [],
      "name": "fail",
      "outputs": [],
      "stateMutability": "pure",
      "type": "function"
    }
  ],
  "bytecode": "0x60806040526000805534801561001457600080fd5b5061026b806100246000396000f3fe608060405260043610610051576000357c01000000000000000000000000000000000000000000000000000000009004806306661abd14610056578063371303c014610081578063a9cc47181461008b575b600080fd5b34801561006257600080fd5b5061006b6100a2565b604051610078919061017a565b60405180910390f35b6100896100a8565b005b34801561009757600080fd5b506100a06100d0565b005b60005481565b60016000546100b791906101a6565b6000808282546100c791906101a6565b92505081905550565b6040517f08c379a00000000000000000000000000000000000000000000000000000000081526004016101029061015a565b60405180910390fd5b6000610118600483610195565b91507f426f6f6d000000000000000000000000000000000000000000000000000000006000830152602082019050919050565b610154816101fc565b82525050565b600060208201905081810360008301526101738161010b565b9050919050565b600060208201905061018f600083018461014b565b92915050565b600082825260208201905092915050565b60006101b1826101fc565b91506101bc836101fc565b9250827fffffffffffffffffffffffffffffffffffffffffffffffffffffffffffffffff038211156101f1576101f0610206565b5b828201905092915050565b6000819050919050565b7f4e487b7100000000000000000000000000000000000000000000000000000000600052601160045260246000fdfea2646970667358221220123fe9dde277aa38610c5ab625dd2191094ee4e909fde3f786fa94de3dc74e8664736f6c63430008000033",
  "immutableReferences": {},
  "source": "// SPDX-License-Identifier: MIT\r\npragma solidity ^0.8.0;\r\n\r\ncontract Counter {\r\n  uint256 public count = 0;\r\n\r\n  // slither-disable-next-line locked-ether\r\n  function inc() external payable {\r\n    count += count + 1;\r\n  }\r\n\r\n  function fail() external pure {\r\n    revert('Boom');\r\n  }\r\n}\r\n",
  "sourcePath": "C:/IOVLabs/rif-scheduler-contracts/contracts/test/Counter.sol",
  "compiler": {
    "name": "solc",
    "version": "0.8.0+commit.c7dfd78e.Emscripten.clang"
  },
  "schemaVersion": "3.4.1",
  "updatedAt": "2021-05-17T13:31:36.068Z",
  "devdoc": {
    "kind": "dev",
    "methods": {},
    "version": 1
  },
  "userdoc": {
    "kind": "user",
    "methods": {},
    "version": 1
  }
}