{
  "contractName": "OneShotSchedule",
  "abi": [
    {
      "inputs": [
        {
          "internalType": "address",
          "name": "serviceProvider_",
          "type": "address"
        },
        {
          "internalType": "address",
          "name": "payee_",
          "type": "address"
        }
      ],
      "stateMutability": "nonpayable",
      "type": "constructor"
    },
    {
      "anonymous": false,
      "inputs": [
        {
          "indexed": true,
          "internalType": "bytes32",
          "name": "id",
          "type": "bytes32"
        },
        {
          "indexed": true,
          "internalType": "address",
          "name": "requestor",
          "type": "address"
        },
        {
          "indexed": true,
          "internalType": "uint256",
          "name": "plan",
          "type": "uint256"
        },
        {
          "indexed": false,
          "internalType": "address",
          "name": "to",
          "type": "address"
        },
        {
          "indexed": false,
          "internalType": "bytes",
          "name": "data",
          "type": "bytes"
        },
        {
          "indexed": false,
          "internalType": "uint256",
          "name": "gas",
          "type": "uint256"
        },
        {
          "indexed": false,
          "internalType": "uint256",
          "name": "timestamp",
          "type": "uint256"
        },
        {
          "indexed": false,
          "internalType": "uint256",
          "name": "value",
          "type": "uint256"
        }
      ],
      "name": "MetatransactionAdded",
      "type": "event"
    },
    {
      "anonymous": false,
      "inputs": [
        {
          "indexed": true,
          "internalType": "bytes32",
          "name": "id",
          "type": "bytes32"
        }
      ],
      "name": "MetatransactionCancelled",
      "type": "event"
    },
    {
      "anonymous": false,
      "inputs": [
        {
          "indexed": true,
          "internalType": "bytes32",
          "name": "id",
          "type": "bytes32"
        },
        {
          "indexed": false,
          "internalType": "bool",
          "name": "success",
          "type": "bool"
        },
        {
          "indexed": false,
          "internalType": "bytes",
          "name": "result",
          "type": "bytes"
        }
      ],
      "name": "MetatransactionExecuted",
      "type": "event"
    },
    {
      "anonymous": false,
      "inputs": [
        {
          "indexed": true,
          "internalType": "uint256",
          "name": "index",
          "type": "uint256"
        },
        {
          "indexed": false,
          "internalType": "uint256",
          "name": "price",
          "type": "uint256"
        },
        {
          "indexed": false,
          "internalType": "address",
          "name": "token",
          "type": "address"
        },
        {
          "indexed": false,
          "internalType": "uint256",
          "name": "window",
          "type": "uint256"
        }
      ],
      "name": "PlanAdded",
      "type": "event"
    },
    {
      "anonymous": false,
      "inputs": [
        {
          "indexed": true,
          "internalType": "uint256",
          "name": "index",
          "type": "uint256"
        }
      ],
      "name": "PlanCancelled",
      "type": "event"
    },
    {
      "anonymous": false,
      "inputs": [
        {
          "indexed": true,
          "internalType": "address",
          "name": "requestor",
          "type": "address"
        },
        {
          "indexed": false,
          "internalType": "uint256",
          "name": "plan",
          "type": "uint256"
        },
        {
          "indexed": false,
          "internalType": "uint256",
          "name": "amount",
          "type": "uint256"
        }
      ],
      "name": "SchedulingsPurchased",
      "type": "event"
    },
    {
      "inputs": [],
      "name": "payee",
      "outputs": [
        {
          "internalType": "address",
          "name": "",
          "type": "address"
        }
      ],
      "stateMutability": "view",
      "type": "function"
    },
    {
      "inputs": [
        {
          "internalType": "uint256",
          "name": "price",
          "type": "uint256"
        },
        {
          "internalType": "uint256",
          "name": "window",
          "type": "uint256"
        },
        {
          "internalType": "contract IERC677",
          "name": "token",
          "type": "address"
        }
      ],
      "name": "addPlan",
      "outputs": [],
      "stateMutability": "nonpayable",
      "type": "function"
    },
    {
      "inputs": [
        {
          "internalType": "uint256",
          "name": "index",
          "type": "uint256"
        }
      ],
      "name": "getPlan",
      "outputs": [
        {
          "internalType": "uint256",
          "name": "price",
          "type": "uint256"
        },
        {
          "internalType": "uint256",
          "name": "window",
          "type": "uint256"
        },
        {
          "internalType": "address",
          "name": "token",
          "type": "address"
        },
        {
          "internalType": "bool",
          "name": "active",
          "type": "bool"
        }
      ],
      "stateMutability": "view",
      "type": "function"
    },
    {
      "inputs": [
        {
          "internalType": "uint256",
          "name": "plan",
          "type": "uint256"
        }
      ],
      "name": "cancelPlan",
      "outputs": [],
      "stateMutability": "nonpayable",
      "type": "function"
    },
    {
      "inputs": [
        {
          "internalType": "address",
          "name": "payee_",
          "type": "address"
        }
      ],
      "name": "setPayee",
      "outputs": [],
      "stateMutability": "nonpayable",
      "type": "function"
    },
    {
      "inputs": [
        {
          "internalType": "uint256",
          "name": "plan",
          "type": "uint256"
        },
        {
          "internalType": "uint256",
          "name": "amount",
          "type": "uint256"
        }
      ],
      "name": "purchase",
      "outputs": [],
      "stateMutability": "nonpayable",
      "type": "function"
    },
    {
      "inputs": [
        {
          "internalType": "address",
          "name": "from",
          "type": "address"
        },
        {
          "internalType": "uint256",
          "name": "amount",
          "type": "uint256"
        },
        {
          "internalType": "bytes",
          "name": "data",
          "type": "bytes"
        }
      ],
      "name": "tokenFallback",
      "outputs": [
        {
          "internalType": "bool",
          "name": "",
          "type": "bool"
        }
      ],
      "stateMutability": "nonpayable",
      "type": "function"
    },
    {
      "inputs": [
        {
          "internalType": "address",
          "name": "requestor",
          "type": "address"
        },
        {
          "internalType": "uint256",
          "name": "plan",
          "type": "uint256"
        }
      ],
      "name": "getRemainingSchedulings",
      "outputs": [
        {
          "internalType": "uint256",
          "name": "",
          "type": "uint256"
        }
      ],
      "stateMutability": "view",
      "type": "function"
    },
    {
      "inputs": [
        {
          "internalType": "uint256",
          "name": "plan",
          "type": "uint256"
        },
        {
          "internalType": "address",
          "name": "to",
          "type": "address"
        },
        {
          "internalType": "bytes",
          "name": "data",
          "type": "bytes"
        },
        {
          "internalType": "uint256",
          "name": "gas",
          "type": "uint256"
        },
        {
          "internalType": "uint256",
          "name": "executionTime",
          "type": "uint256"
        }
      ],
      "name": "schedule",
      "outputs": [],
      "stateMutability": "payable",
      "type": "function"
    },
    {
      "inputs": [
        {
          "internalType": "bytes32",
          "name": "id",
          "type": "bytes32"
        }
      ],
      "name": "getSchedule",
      "outputs": [
        {
          "internalType": "address",
          "name": "",
          "type": "address"
        },
        {
          "internalType": "uint256",
          "name": "",
          "type": "uint256"
        },
        {
          "internalType": "address",
          "name": "",
          "type": "address"
        },
        {
          "internalType": "bytes",
          "name": "",
          "type": "bytes"
        },
        {
          "internalType": "uint256",
          "name": "",
          "type": "uint256"
        },
        {
          "internalType": "uint256",
          "name": "",
          "type": "uint256"
        },
        {
          "internalType": "uint256",
          "name": "",
          "type": "uint256"
        },
        {
          "internalType": "enum OneShotSchedule.MetatransactionState",
          "name": "",
          "type": "uint8"
        }
      ],
      "stateMutability": "view",
      "type": "function"
    },
    {
      "inputs": [
        {
          "internalType": "bytes32",
          "name": "id",
          "type": "bytes32"
        }
      ],
      "name": "cancelScheduling",
      "outputs": [],
      "stateMutability": "nonpayable",
      "type": "function"
    },
    {
      "inputs": [
        {
          "internalType": "bytes32",
          "name": "id",
          "type": "bytes32"
        }
      ],
      "name": "transactionState",
      "outputs": [
        {
          "internalType": "enum OneShotSchedule.MetatransactionState",
          "name": "",
          "type": "uint8"
        }
      ],
      "stateMutability": "view",
      "type": "function"
    },
    {
      "inputs": [
        {
          "internalType": "bytes32",
          "name": "id",
          "type": "bytes32"
        }
      ],
      "name": "execute",
      "outputs": [],
      "stateMutability": "nonpayable",
      "type": "function"
    }
  ],
  "bytecode": "0x60806040523480156200001157600080fd5b50604051620036a2380380620036a28339818101604052810190620000379190620001c6565b6001600081905550600073ffffffffffffffffffffffffffffffffffffffff168173ffffffffffffffffffffffffffffffffffffffff161415620000b2576040517f08c379a0000000000000000000000000000000000000000000000000000000008152600401620000a990620002d3565b60405180910390fd5b600073ffffffffffffffffffffffffffffffffffffffff168273ffffffffffffffffffffffffffffffffffffffff16141562000125576040517f08c379a00000000000000000000000000000000000000000000000000000000081526004016200011c90620002b1565b60405180910390fd5b81600260006101000a81548173ffffffffffffffffffffffffffffffffffffffff021916908373ffffffffffffffffffffffffffffffffffffffff16021790555080600160006101000a81548173ffffffffffffffffffffffffffffffffffffffff021916908373ffffffffffffffffffffffffffffffffffffffff160217905550505062000354565b600081519050620001c0816200033a565b92915050565b60008060408385031215620001da57600080fd5b6000620001ea85828601620001af565b9250506020620001fd85828601620001af565b9150509250929050565b600062000216602683620002f5565b91507f536572766963652070726f766964657220616464726573732063616e6e6f742060008301527f62652030783000000000000000000000000000000000000000000000000000006020830152604082019050919050565b60006200027e601b83620002f5565b91507f506179656520616464726573732063616e6e6f742062652030783000000000006000830152602082019050919050565b60006020820190508181036000830152620002cc8162000207565b9050919050565b60006020820190508181036000830152620002ee816200026f565b9050919050565b600082825260208201905092915050565b600062000313826200031a565b9050919050565b600073ffffffffffffffffffffffffffffffffffffffff82169050919050565b620003458162000306565b81146200035157600080fd5b50565b61333e80620003646000396000f3fe6080604052600436106100c25760003560e01c806380d6664c1161007f578063c0ee0b8a11610059578063c0ee0b8a14610273578063c9ee9079146102b0578063debd4c3d146102ed578063e751f27114610316576100c2565b806380d6664c146101e2578063a5f62ad11461020b578063ae90b21314610248576100c2565b806326cd5274146100c75780633adc277a14610107578063410459ad1461014b57806354ceba0a1461017457806370876c981461019d57806373eab687146101c6575b600080fd5b3480156100d357600080fd5b506100ee60048036038101906100e991906124ef565b61033f565b6040516100fe9493929190612f70565b60405180910390f35b34801561011357600080fd5b5061012e600480360381019061012991906124c6565b6104b1565b604051610142989796959493929190612c2a565b60405180910390f35b34801561015757600080fd5b50610172600480360381019061016d91906123cc565b61071c565b005b34801561018057600080fd5b5061019b600480360381019061019691906124c6565b610860565b005b3480156101a957600080fd5b506101c460048036038101906101bf91906125aa565b610b47565b005b6101e060048036038101906101db9190612518565b610c98565b005b3480156101ee57600080fd5b50610209600480360381019061020491906124ef565b610f7d565b005b34801561021757600080fd5b50610232600480360381019061022d91906124c6565b611139565b60405161023f9190612cfa565b60405180910390f35b34801561025457600080fd5b5061025d611448565b60405161026a9190612b53565b60405180910390f35b34801561027f57600080fd5b5061029a60048036038101906102959190612431565b61146e565b6040516102a79190612caf565b60405180910390f35b3480156102bc57600080fd5b506102d760048036038101906102d291906123f5565b6115c7565b6040516102e49190612ef5565b60405180910390f35b3480156102f957600080fd5b50610314600480360381019061030f91906125e6565b611622565b005b34801561032257600080fd5b5061033d600480360381019061033891906124c6565b611856565b005b6000806000806003858154811061037f577f4e487b7100000000000000000000000000000000000000000000000000000000600052603260045260246000fd5b9060005260206000209060030201600001549350600385815481106103cd577f4e487b7100000000000000000000000000000000000000000000000000000000600052603260045260246000fd5b90600052602060002090600302016001015492506003858154811061041b577f4e487b7100000000000000000000000000000000000000000000000000000000600052603260045260246000fd5b906000526020600020906003020160020160009054906101000a900473ffffffffffffffffffffffffffffffffffffffff16915060038581548110610489577f4e487b7100000000000000000000000000000000000000000000000000000000600052603260045260246000fd5b906000526020600020906003020160020160149054906101000a900460ff1690509193509193565b600080600060606000806000806000600460008b8152602001908152602001600020604051806101000160405290816000820160009054906101000a900473ffffffffffffffffffffffffffffffffffffffff1673ffffffffffffffffffffffffffffffffffffffff1673ffffffffffffffffffffffffffffffffffffffff168152602001600182015481526020016002820160009054906101000a900473ffffffffffffffffffffffffffffffffffffffff1673ffffffffffffffffffffffffffffffffffffffff1673ffffffffffffffffffffffffffffffffffffffff1681526020016003820180546105a5906131b1565b80601f01602080910402602001604051908101604052809291908181526020018280546105d1906131b1565b801561061e5780601f106105f35761010080835404028352916020019161061e565b820191906000526020600020905b81548152906001019060200180831161060157829003601f168201915b505050505081526020016004820154815260200160058201548152602001600682015481526020016007820160009054906101000a900460ff166005811115610690577f4e487b7100000000000000000000000000000000000000000000000000000000600052602160045260246000fd5b60058111156106c8577f4e487b7100000000000000000000000000000000000000000000000000000000600052602160045260246000fd5b81525050905060006106d98b611139565b9050816000015182602001518360400151846060015185608001518660a001518760c0015187995099509950995099509950995099505050919395975091939597565b600260009054906101000a900473ffffffffffffffffffffffffffffffffffffffff1673ffffffffffffffffffffffffffffffffffffffff163373ffffffffffffffffffffffffffffffffffffffff16146107ac576040517f08c379a00000000000000000000000000000000000000000000000000000000081526004016107a390612ed5565b60405180910390fd5b600073ffffffffffffffffffffffffffffffffffffffff168173ffffffffffffffffffffffffffffffffffffffff16141561081c576040517f08c379a000000000000000000000000000000000000000000000000000000000815260040161081390612e75565b60405180910390fd5b80600160006101000a81548173ffffffffffffffffffffffffffffffffffffffff021916908373ffffffffffffffffffffffffffffffffffffffff16021790555050565b6000600460008381526020019081526020016000209050600060058111156108b1577f4e487b7100000000000000000000000000000000000000000000000000000000600052602160045260246000fd5b6108ba83611139565b60058111156108f2577f4e487b7100000000000000000000000000000000000000000000000000000000600052602160045260246000fd5b14610932576040517f08c379a000000000000000000000000000000000000000000000000000000000815260040161092990612d55565b60405180910390fd5b8060000160009054906101000a900473ffffffffffffffffffffffffffffffffffffffff1673ffffffffffffffffffffffffffffffffffffffff163373ffffffffffffffffffffffffffffffffffffffff16146109c4576040517f08c379a00000000000000000000000000000000000000000000000000000000081526004016109bb90612ed5565b60405180910390fd5b60058160070160006101000a81548160ff02191690836005811115610a12577f4e487b7100000000000000000000000000000000000000000000000000000000600052602160045260246000fd5b02179055506001600560008360000160009054906101000a900473ffffffffffffffffffffffffffffffffffffffff1673ffffffffffffffffffffffffffffffffffffffff1673ffffffffffffffffffffffffffffffffffffffff1681526020019081526020016000206000836001015481526020019081526020016000206000828254610aa09190613002565b92505081905550817fa520df61c75e741f4b9b2f45e0f6536b54056bf721ce0c310c614f32dad4812460405160405180910390a28060000160009054906101000a900473ffffffffffffffffffffffffffffffffffffffff1673ffffffffffffffffffffffffffffffffffffffff166108fc82600601549081150290604051600060405180830381858888f19350505050158015610b42573d6000803e3d6000fd5b505050565b610b52338383611df7565b60038281548110610b8c577f4e487b7100000000000000000000000000000000000000000000000000000000600052603260045260246000fd5b906000526020600020906003020160020160009054906101000a900473ffffffffffffffffffffffffffffffffffffffff1673ffffffffffffffffffffffffffffffffffffffff166323b872dd3330610be58686611f4b565b6040518463ffffffff1660e01b8152600401610c0393929190612b6e565b602060405180830381600087803b158015610c1d57600080fd5b505af1158015610c31573d6000803e3d6000fd5b505050506040513d601f19601f82011682018060405250810190610c55919061249d565b610c94576040517f08c379a0000000000000000000000000000000000000000000000000000000008152600401610c8b90612dd5565b60405180910390fd5b5050565b80421115610cdb576040517f08c379a0000000000000000000000000000000000000000000000000000000008152600401610cd290612e15565b60405180910390fd5b610ce53387611fac565b60006040518061010001604052803373ffffffffffffffffffffffffffffffffffffffff1681526020018881526020018773ffffffffffffffffffffffffffffffffffffffff16815260200186868080601f016020809104026020016040519081016040528093929190818152602001838380828437600081840152601f19601f82011690508083019250505050505050815260200184815260200183815260200134815260200160006005811115610dc7577f4e487b7100000000000000000000000000000000000000000000000000000000600052602160045260246000fd5b81525090506000610dd7826120ab565b9050816004600083815260200190815260200160002060008201518160000160006101000a81548173ffffffffffffffffffffffffffffffffffffffff021916908373ffffffffffffffffffffffffffffffffffffffff1602179055506020820151816001015560408201518160020160006101000a81548173ffffffffffffffffffffffffffffffffffffffff021916908373ffffffffffffffffffffffffffffffffffffffff1602179055506060820151816003019080519060200190610ea1929190612276565b506080820151816004015560a0820151816005015560c0820151816006015560e08201518160070160006101000a81548160ff02191690836005811115610f11577f4e487b7100000000000000000000000000000000000000000000000000000000600052602160045260246000fd5b0217905550905050873373ffffffffffffffffffffffffffffffffffffffff16827f6d5ad03f42190a02d9307c4a2c743b68f90b5117b66f30c2f50fe3dbd3f5a63e8a8a8a8a8a34604051610f6b96959493929190612ba5565b60405180910390a45050505050505050565b600260009054906101000a900473ffffffffffffffffffffffffffffffffffffffff1673ffffffffffffffffffffffffffffffffffffffff163373ffffffffffffffffffffffffffffffffffffffff161461100d576040517f08c379a000000000000000000000000000000000000000000000000000000000815260040161100490612ed5565b60405180910390fd5b60038181548110611047577f4e487b7100000000000000000000000000000000000000000000000000000000600052603260045260246000fd5b906000526020600020906003020160020160149054906101000a900460ff166110a5576040517f08c379a000000000000000000000000000000000000000000000000000000000815260040161109c90612d15565b60405180910390fd5b6000600382815481106110e1577f4e487b7100000000000000000000000000000000000000000000000000000000600052603260045260246000fd5b906000526020600020906003020160020160146101000a81548160ff021916908315150217905550807f09f4c2fd13cc57768b21af5847536074d3fab1d1dfe1e382d9259c516945ea6d60405160405180910390a250565b60008060046000848152602001908152602001600020604051806101000160405290816000820160009054906101000a900473ffffffffffffffffffffffffffffffffffffffff1673ffffffffffffffffffffffffffffffffffffffff1673ffffffffffffffffffffffffffffffffffffffff168152602001600182015481526020016002820160009054906101000a900473ffffffffffffffffffffffffffffffffffffffff1673ffffffffffffffffffffffffffffffffffffffff1673ffffffffffffffffffffffffffffffffffffffff168152602001600382018054611221906131b1565b80601f016020809104026020016040519081016040528092919081815260200182805461124d906131b1565b801561129a5780601f1061126f5761010080835404028352916020019161129a565b820191906000526020600020905b81548152906001019060200180831161127d57829003601f168201915b505050505081526020016004820154815260200160058201548152602001600682015481526020016007820160009054906101000a900460ff16600581111561130c577f4e487b7100000000000000000000000000000000000000000000000000000000600052602160045260246000fd5b6005811115611344577f4e487b7100000000000000000000000000000000000000000000000000000000600052602160045260246000fd5b81525050905060006005811115611384577f4e487b7100000000000000000000000000000000000000000000000000000000600052602160045260246000fd5b8160e0015160058111156113c1577f4e487b7100000000000000000000000000000000000000000000000000000000600052602160045260246000fd5b14801561142b5750426003826020015181548110611408577f4e487b7100000000000000000000000000000000000000000000000000000000600052603260045260246000fd5b9060005260206000209060030201600101548260a001516114299190613002565b105b1561143a576003915050611443565b8060e001519150505b919050565b600160009054906101000a900473ffffffffffffffffffffffffffffffffffffffff1681565b6000806000848481019061148291906125aa565b80925081935050503373ffffffffffffffffffffffffffffffffffffffff16600383815481106114db577f4e487b7100000000000000000000000000000000000000000000000000000000600052603260045260246000fd5b906000526020600020906003020160020160009054906101000a900473ffffffffffffffffffffffffffffffffffffffff1673ffffffffffffffffffffffffffffffffffffffff1614611563576040517f08c379a000000000000000000000000000000000000000000000000000000000815260040161155a90612d95565b60405180910390fd5b61156d8282611f4b565b86146115ae576040517f08c379a00000000000000000000000000000000000000000000000000000000081526004016115a590612df5565b60405180910390fd5b6115b9878383611df7565b600192505050949350505050565b6000600560008473ffffffffffffffffffffffffffffffffffffffff1673ffffffffffffffffffffffffffffffffffffffff168152602001908152602001600020600083815260200190815260200160002054905092915050565b600260009054906101000a900473ffffffffffffffffffffffffffffffffffffffff1673ffffffffffffffffffffffffffffffffffffffff163373ffffffffffffffffffffffffffffffffffffffff16146116b2576040517f08c379a00000000000000000000000000000000000000000000000000000000081526004016116a990612ed5565b60405180910390fd5b600073ffffffffffffffffffffffffffffffffffffffff168173ffffffffffffffffffffffffffffffffffffffff161415611722576040517f08c379a000000000000000000000000000000000000000000000000000000000815260040161171990612e55565b60405180910390fd5b600360405180608001604052808581526020018481526020018373ffffffffffffffffffffffffffffffffffffffff168152602001600115158152509080600181540180825580915050600190039060005260206000209060030201600090919091909150600082015181600001556020820151816001015560408201518160020160006101000a81548173ffffffffffffffffffffffffffffffffffffffff021916908373ffffffffffffffffffffffffffffffffffffffff16021790555060608201518160020160146101000a81548160ff0219169083151502179055505050600160038054905061181691906130b2565b7f398c82e2ccf5aaee72a60b95d6543133e8fc843e113441e9a2d767274c8d8eef84838560405161184993929190612f10565b60405180910390a2505050565b6002600054141561189c576040517f08c379a000000000000000000000000000000000000000000000000000000000815260040161189390612eb5565b60405180910390fd5b60026000819055506000600460008381526020019081526020016000209050600060058111156118f5577f4e487b7100000000000000000000000000000000000000000000000000000000600052602160045260246000fd5b8160070160009054906101000a900460ff16600581111561193f577f4e487b7100000000000000000000000000000000000000000000000000000000600052602160045260246000fd5b1461197f576040517f08c379a000000000000000000000000000000000000000000000000000000000815260040161197690612db5565b60405180910390fd5b4260038260010154815481106119be577f4e487b7100000000000000000000000000000000000000000000000000000000600052603260045260246000fd5b90600052602060002090600302016001015482600501546119df91906130b2565b10611a1f576040517f08c379a0000000000000000000000000000000000000000000000000000000008152600401611a1690612e35565b60405180910390fd5b60036005811115611a59577f4e487b7100000000000000000000000000000000000000000000000000000000600052602160045260246000fd5b611a6283611139565b6005811115611a9a577f4e487b7100000000000000000000000000000000000000000000000000000000600052602160045260246000fd5b1415611aaf57611aa982612109565b50611dec565b6000808260020160009054906101000a900473ffffffffffffffffffffffffffffffffffffffff1673ffffffffffffffffffffffffffffffffffffffff168360040154846006015485600301604051611b089190612b3c565b600060405180830381858888f193505050503d8060008114611b46576040519150601f19603f3d011682016040523d82523d6000602084013e611b4b565b606091505b5091509150837f3ed56cff5a9ac7923a521df5a71cae25a9ed6cfb84ace51fb29bb6a1853687b28383604051611b82929190612cca565b60405180910390a28115611be85760018360070160006101000a81548160ff02191690836005811115611bde577f4e487b7100000000000000000000000000000000000000000000000000000000600052602160045260246000fd5b0217905550611c3c565b60028360070160006101000a81548160ff02191690836005811115611c36577f4e487b7100000000000000000000000000000000000000000000000000000000600052602160045260246000fd5b02179055505b6003836001015481548110611c7a577f4e487b7100000000000000000000000000000000000000000000000000000000600052603260045260246000fd5b906000526020600020906003020160020160009054906101000a900473ffffffffffffffffffffffffffffffffffffffff1673ffffffffffffffffffffffffffffffffffffffff1663a9059cbb600160009054906101000a900473ffffffffffffffffffffffffffffffffffffffff166003866001015481548110611d28577f4e487b7100000000000000000000000000000000000000000000000000000000600052603260045260246000fd5b9060005260206000209060030201600001546040518363ffffffff1660e01b8152600401611d57929190612c01565b602060405180830381600087803b158015611d7157600080fd5b505af1158015611d85573d6000803e3d6000fd5b505050506040513d601f19601f82011682018060405250810190611da9919061249d565b611de8576040517f08c379a0000000000000000000000000000000000000000000000000000000008152600401611ddf90612d35565b60405180910390fd5b5050505b600160008190555050565b60038281548110611e31577f4e487b7100000000000000000000000000000000000000000000000000000000600052603260045260246000fd5b906000526020600020906003020160020160149054906101000a900460ff16611e8f576040517f08c379a0000000000000000000000000000000000000000000000000000000008152600401611e8690612e95565b60405180910390fd5b80600560008573ffffffffffffffffffffffffffffffffffffffff1673ffffffffffffffffffffffffffffffffffffffff16815260200190815260200160002060008481526020019081526020016000206000828254611eef9190613002565b925050819055508273ffffffffffffffffffffffffffffffffffffffff167fd21e4c7a0622a57fdccbf003a815b1b1a3c7f4dd7af0c19521d725d33a608f788383604051611f3e929190612f47565b60405180910390a2505050565b600060038381548110611f87577f4e487b7100000000000000000000000000000000000000000000000000000000600052603260045260246000fd5b90600052602060002090600302016000015482611fa49190613058565b905092915050565b6000600560008473ffffffffffffffffffffffffffffffffffffffff1673ffffffffffffffffffffffffffffffffffffffff1681526020019081526020016000206000838152602001908152602001600020541161203f576040517f08c379a000000000000000000000000000000000000000000000000000000000815260040161203690612d75565b60405180910390fd5b6001600560008473ffffffffffffffffffffffffffffffffffffffff1673ffffffffffffffffffffffffffffffffffffffff168152602001908152602001600020600083815260200190815260200160002060008282546120a091906130b2565b925050819055505050565b6000816000015182602001518360400151846060015185608001518660a001518760c001518860e001516040516020016120ec989796959493929190612c2a565b604051602081830303815290604052805190602001209050919050565b60006004600083815260200190815260200160002090506001600560008360000160009054906101000a900473ffffffffffffffffffffffffffffffffffffffff1673ffffffffffffffffffffffffffffffffffffffff1673ffffffffffffffffffffffffffffffffffffffff16815260200190815260200160002060008360010154815260200190815260200160002060008282546121a99190613002565b9250508190555060048160070160006101000a81548160ff021916908360058111156121fe577f4e487b7100000000000000000000000000000000000000000000000000000000600052602160045260246000fd5b02179055508060000160009054906101000a900473ffffffffffffffffffffffffffffffffffffffff1673ffffffffffffffffffffffffffffffffffffffff166108fc82600601549081150290604051600060405180830381858888f19350505050158015612271573d6000803e3d6000fd5b505050565b828054612282906131b1565b90600052602060002090601f0160209004810192826122a457600085556122eb565b82601f106122bd57805160ff19168380011785556122eb565b828001600101855582156122eb579182015b828111156122ea5782518255916020019190600101906122cf565b5b5090506122f891906122fc565b5090565b5b808211156123155760008160009055506001016122fd565b5090565b60008135905061232881613295565b92915050565b60008151905061233d816132ac565b92915050565b600081359050612352816132c3565b92915050565b60008083601f84011261236a57600080fd5b8235905067ffffffffffffffff81111561238357600080fd5b60208301915083600182028301111561239b57600080fd5b9250929050565b6000813590506123b1816132da565b92915050565b6000813590506123c6816132f1565b92915050565b6000602082840312156123de57600080fd5b60006123ec84828501612319565b91505092915050565b6000806040838503121561240857600080fd5b600061241685828601612319565b9250506020612427858286016123b7565b9150509250929050565b6000806000806060858703121561244757600080fd5b600061245587828801612319565b9450506020612466878288016123b7565b935050604085013567ffffffffffffffff81111561248357600080fd5b61248f87828801612358565b925092505092959194509250565b6000602082840312156124af57600080fd5b60006124bd8482850161232e565b91505092915050565b6000602082840312156124d857600080fd5b60006124e684828501612343565b91505092915050565b60006020828403121561250157600080fd5b600061250f848285016123b7565b91505092915050565b60008060008060008060a0878903121561253157600080fd5b600061253f89828a016123b7565b965050602061255089828a01612319565b955050604087013567ffffffffffffffff81111561256d57600080fd5b61257989828a01612358565b9450945050606061258c89828a016123b7565b925050608061259d89828a016123b7565b9150509295509295509295565b600080604083850312156125bd57600080fd5b60006125cb858286016123b7565b92505060206125dc858286016123b7565b9150509250929050565b6000806000606084860312156125fb57600080fd5b6000612609868287016123b7565b935050602061261a868287016123b7565b925050604061262b868287016123a2565b9150509250925092565b61263e816130e6565b82525050565b61264d816130f8565b82525050565b600061265f8385612fd5565b935061266c83858461316f565b61267583613270565b840190509392505050565b600061268b82612fca565b6126958185612fd5565b93506126a581856020860161317e565b6126ae81613270565b840191505092915050565b600081546126c6816131b1565b6126d08186612fe6565b945060018216600081146126eb57600181146126fc5761272f565b60ff1983168652818601935061272f565b61270585612fb5565b60005b8381101561272757815481890152600182019150602081019050612708565b838801955050505b50505092915050565b6127418161315d565b82525050565b6000612754601c83612ff1565b91507f54686520706c616e20697320616c726561647920696e616374697665000000006000830152602082019050919050565b6000612794601a83612ff1565b91507f436f756c646e2774207472616e7366657220746f2070617965650000000000006000830152602082019050919050565b60006127d4601983612ff1565b91507f5472616e73616374696f6e206e6f74207363686564756c6564000000000000006000830152602082019050919050565b6000612814601483612ff1565b91507f4e6f2062616c616e636520617661696c61626c650000000000000000000000006000830152602082019050919050565b6000612854600983612ff1565b91507f42616420746f6b656e00000000000000000000000000000000000000000000006000830152602082019050919050565b6000612894601083612ff1565b91507f416c7265616479206578656375746564000000000000000000000000000000006000830152602082019050919050565b60006128d4601283612ff1565b91507f5061796d656e74206469642774207061737300000000000000000000000000006000830152602082019050919050565b6000612914602f83612ff1565b91507f5472616e7366657272656420616d6f756e7420646f65736e2774206d6174636860008301527f20746f74616c20707572636861736500000000000000000000000000000000006020830152604082019050919050565b600061297a601e83612ff1565b91507f43616e6e6f74207363686564756c6520697420696e20746865207061737400006000830152602082019050919050565b60006129ba600883612ff1565b91507f546f6f20736f6f6e0000000000000000000000000000000000000000000000006000830152602082019050919050565b60006129fa601b83612ff1565b91507f546f6b656e20616464726573732063616e6e6f742062652030783000000000006000830152602082019050919050565b6000612a3a601b83612ff1565b91507f506179656520616464726573732063616e6e6f742062652030783000000000006000830152602082019050919050565b6000612a7a600d83612ff1565b91507f496e61637469766520706c616e000000000000000000000000000000000000006000830152602082019050919050565b6000612aba601f83612ff1565b91507f5265656e7472616e637947756172643a207265656e7472616e742063616c6c006000830152602082019050919050565b6000612afa600e83612ff1565b91507f4e6f7420617574686f72697a65640000000000000000000000000000000000006000830152602082019050919050565b612b3681613153565b82525050565b6000612b4882846126b9565b915081905092915050565b6000602082019050612b686000830184612635565b92915050565b6000606082019050612b836000830186612635565b612b906020830185612635565b612b9d6040830184612b2d565b949350505050565b600060a082019050612bba6000830189612635565b8181036020830152612bcd818789612653565b9050612bdc6040830186612b2d565b612be96060830185612b2d565b612bf66080830184612b2d565b979650505050505050565b6000604082019050612c166000830185612635565b612c236020830184612b2d565b9392505050565b600061010082019050612c40600083018b612635565b612c4d602083018a612b2d565b612c5a6040830189612635565b8181036060830152612c6c8188612680565b9050612c7b6080830187612b2d565b612c8860a0830186612b2d565b612c9560c0830185612b2d565b612ca260e0830184612738565b9998505050505050505050565b6000602082019050612cc46000830184612644565b92915050565b6000604082019050612cdf6000830185612644565b8181036020830152612cf18184612680565b90509392505050565b6000602082019050612d0f6000830184612738565b92915050565b60006020820190508181036000830152612d2e81612747565b9050919050565b60006020820190508181036000830152612d4e81612787565b9050919050565b60006020820190508181036000830152612d6e816127c7565b9050919050565b60006020820190508181036000830152612d8e81612807565b9050919050565b60006020820190508181036000830152612dae81612847565b9050919050565b60006020820190508181036000830152612dce81612887565b9050919050565b60006020820190508181036000830152612dee816128c7565b9050919050565b60006020820190508181036000830152612e0e81612907565b9050919050565b60006020820190508181036000830152612e2e8161296d565b9050919050565b60006020820190508181036000830152612e4e816129ad565b9050919050565b60006020820190508181036000830152612e6e816129ed565b9050919050565b60006020820190508181036000830152612e8e81612a2d565b9050919050565b60006020820190508181036000830152612eae81612a6d565b9050919050565b60006020820190508181036000830152612ece81612aad565b9050919050565b60006020820190508181036000830152612eee81612aed565b9050919050565b6000602082019050612f0a6000830184612b2d565b92915050565b6000606082019050612f256000830186612b2d565b612f326020830185612635565b612f3f6040830184612b2d565b949350505050565b6000604082019050612f5c6000830185612b2d565b612f696020830184612b2d565b9392505050565b6000608082019050612f856000830187612b2d565b612f926020830186612b2d565b612f9f6040830185612635565b612fac6060830184612644565b95945050505050565b60008190508160005260206000209050919050565b600081519050919050565b600082825260208201905092915050565b600081905092915050565b600082825260208201905092915050565b600061300d82613153565b915061301883613153565b9250827fffffffffffffffffffffffffffffffffffffffffffffffffffffffffffffffff0382111561304d5761304c6131e3565b5b828201905092915050565b600061306382613153565b915061306e83613153565b9250817fffffffffffffffffffffffffffffffffffffffffffffffffffffffffffffffff04831182151516156130a7576130a66131e3565b5b828202905092915050565b60006130bd82613153565b91506130c883613153565b9250828210156130db576130da6131e3565b5b828203905092915050565b60006130f182613133565b9050919050565b60008115159050919050565b6000819050919050565b6000613119826130e6565b9050919050565b600081905061312e82613281565b919050565b600073ffffffffffffffffffffffffffffffffffffffff82169050919050565b6000819050919050565b600061316882613120565b9050919050565b82818337600083830152505050565b60005b8381101561319c578082015181840152602081019050613181565b838111156131ab576000848401525b50505050565b600060028204905060018216806131c957607f821691505b602082108114156131dd576131dc613241565b5b50919050565b7f4e487b7100000000000000000000000000000000000000000000000000000000600052601160045260246000fd5b7f4e487b7100000000000000000000000000000000000000000000000000000000600052602160045260246000fd5b7f4e487b7100000000000000000000000000000000000000000000000000000000600052602260045260246000fd5b6000601f19601f8301169050919050565b6006811061329257613291613212565b5b50565b61329e816130e6565b81146132a957600080fd5b50565b6132b5816130f8565b81146132c057600080fd5b50565b6132cc81613104565b81146132d757600080fd5b50565b6132e38161310e565b81146132ee57600080fd5b50565b6132fa81613153565b811461330557600080fd5b5056fea26469706673582212201e12100612c3c99b13f1835c69c56d6e26ffe1672ad853c2d267787a7057e6b464736f6c63430008000033",
  "immutableReferences": {},
  "source": "// SPDX-License-Identifier: MIT\r\npragma solidity ^0.8.0;\r\nimport '@rsksmart/erc677/contracts/IERC677.sol';\r\nimport '@rsksmart/erc677/contracts/IERC677TransferReceiver.sol';\r\nimport '@openzeppelin/contracts/security/ReentrancyGuard.sol';\r\n\r\ncontract OneShotSchedule is IERC677TransferReceiver, ReentrancyGuard {\r\n  enum MetatransactionState { Scheduled, ExecutionSuccessful, ExecutionFailed, Overdue, Refunded, Cancelled }\r\n\r\n  struct Metatransaction {\r\n    address requestor;\r\n    uint256 plan;\r\n    address to;\r\n    bytes data;\r\n    uint256 gas;\r\n    uint256 timestamp;\r\n    uint256 value;\r\n    MetatransactionState state;\r\n  }\r\n\r\n  struct Plan {\r\n    uint256 schegulingPrice;\r\n    uint256 window;\r\n    IERC677 token;\r\n    bool active;\r\n  }\r\n\r\n  address public payee;\r\n  address serviceProvider;\r\n  Plan[] plans;\r\n  mapping(bytes32 => Metatransaction) private transactionsScheduled;\r\n  mapping(address => mapping(uint256 => uint256)) remainingSchedulings;\r\n\r\n  event PlanAdded(uint256 indexed index, uint256 price, address token, uint256 window);\r\n  event PlanCancelled(uint256 indexed index);\r\n  event SchedulingsPurchased(address indexed requestor, uint256 plan, uint256 amount);\r\n  event MetatransactionAdded(\r\n    bytes32 indexed id,\r\n    address indexed requestor,\r\n    uint256 indexed plan,\r\n    address to,\r\n    bytes data,\r\n    uint256 gas,\r\n    uint256 timestamp,\r\n    uint256 value\r\n  );\r\n  event MetatransactionExecuted(bytes32 indexed id, bool success, bytes result);\r\n  event MetatransactionCancelled(bytes32 indexed id);\r\n\r\n  modifier onlyProvider() {\r\n    require(address(msg.sender) == serviceProvider, 'Not authorized');\r\n    _;\r\n  }\r\n\r\n  constructor(address serviceProvider_, address payee_) {\r\n    require(payee_ != address(0x0), 'Payee address cannot be 0x0');\r\n    require(serviceProvider_ != address(0x0), 'Service provider address cannot be 0x0');\r\n    serviceProvider = serviceProvider_;\r\n    payee = payee_;\r\n  }\r\n\r\n  ///////////\r\n  // ADMIN //\r\n  ///////////\r\n\r\n  function addPlan(\r\n    uint256 price,\r\n    uint256 window,\r\n    IERC677 token\r\n  ) external onlyProvider {\r\n    require(address(token) != address(0x0), 'Token address cannot be 0x0');\r\n    plans.push(Plan(price, window, token, true));\r\n    emit PlanAdded(plans.length - 1, price, address(token), window);\r\n  }\r\n\r\n  function getPlan(uint256 index)\r\n    external\r\n    view\r\n    returns (\r\n      uint256 price,\r\n      uint256 window,\r\n      address token,\r\n      bool active\r\n    )\r\n  {\r\n    price = plans[index].schegulingPrice;\r\n    window = plans[index].window;\r\n    token = address(plans[index].token);\r\n    active = plans[index].active;\r\n  }\r\n\r\n  function cancelPlan(uint256 plan) external onlyProvider {\r\n    require(plans[plan].active, 'The plan is already inactive');\r\n    plans[plan].active = false;\r\n    emit PlanCancelled(plan);\r\n  }\r\n\r\n  function setPayee(address payee_) external onlyProvider {\r\n    require(payee_ != address(0x0), 'Payee address cannot be 0x0');\r\n    payee = payee_;\r\n  }\r\n\r\n  //////////////\r\n  // PURCHASE //\r\n  //////////////\r\n\r\n  function totalPrice(uint256 plan, uint256 amount) private view returns (uint256) {\r\n    return amount * plans[plan].schegulingPrice;\r\n  }\r\n\r\n  function doPurchase(\r\n    address requestor,\r\n    uint256 plan,\r\n    uint256 schedulingAmount\r\n  ) private {\r\n    require(plans[plan].active, 'Inactive plan');\r\n    remainingSchedulings[requestor][plan] += schedulingAmount;\r\n    emit SchedulingsPurchased(requestor, plan, schedulingAmount);\r\n  }\r\n\r\n  // purcahse with ERC-20\r\n  function purchase(uint256 plan, uint256 amount) external {\r\n    doPurchase(msg.sender, plan, amount);\r\n\r\n    require(plans[plan].token.transferFrom(msg.sender, address(this), totalPrice(plan, amount)), \"Payment did't pass\");\r\n  }\r\n\r\n  // purcahse with ERC-677\r\n  function tokenFallback(\r\n    address from,\r\n    uint256 amount,\r\n    bytes calldata data\r\n  ) external override returns (bool) {\r\n    uint256 plan;\r\n    uint256 schedulingAmount;\r\n    (plan, schedulingAmount) = abi.decode(data, (uint256, uint256));\r\n\r\n    require(address(plans[plan].token) == address(msg.sender), 'Bad token');\r\n    require(amount == totalPrice(plan, schedulingAmount), \"Transferred amount doesn't match total purchase\");\r\n\r\n    doPurchase(from, plan, schedulingAmount);\r\n    return true;\r\n  }\r\n\r\n  ////////////////\r\n  // SCHEDULING //\r\n  ////////////////\r\n\r\n  function hash(Metatransaction memory metaTx) internal pure returns (bytes32) {\r\n    return\r\n      keccak256(\r\n        abi.encode(metaTx.requestor, metaTx.plan, metaTx.to, metaTx.data, metaTx.gas, metaTx.timestamp, metaTx.value, metaTx.state)\r\n      );\r\n  }\r\n\r\n  function getRemainingSchedulings(address requestor, uint256 plan) external view returns (uint256) {\r\n    return remainingSchedulings[requestor][plan];\r\n  }\r\n\r\n  function spend(address requestor, uint256 plan) private {\r\n    require(remainingSchedulings[requestor][plan] > 0, 'No balance available');\r\n    remainingSchedulings[requestor][plan] -= 1;\r\n  }\r\n\r\n  function schedule(\r\n    uint256 plan,\r\n    address to,\r\n    bytes calldata data,\r\n    uint256 gas,\r\n    uint256 executionTime\r\n  ) external payable {\r\n    // slither-disable-next-line timestamp\r\n    require(block.timestamp <= executionTime, 'Cannot schedule it in the past');\r\n    spend(msg.sender, plan);\r\n    Metatransaction memory newMetaTx =\r\n      Metatransaction(msg.sender, plan, to, data, gas, executionTime, msg.value, MetatransactionState.Scheduled);\r\n    bytes32 metatransactionId = hash(newMetaTx);\r\n    transactionsScheduled[metatransactionId] = newMetaTx;\r\n    emit MetatransactionAdded(metatransactionId, msg.sender, plan, to, data, gas, executionTime, msg.value);\r\n  }\r\n\r\n  function getSchedule(bytes32 id)\r\n    external\r\n    view\r\n    returns (\r\n      address,\r\n      uint256,\r\n      address,\r\n      bytes memory,\r\n      uint256,\r\n      uint256,\r\n      uint256,\r\n      MetatransactionState\r\n    )\r\n  {\r\n    Metatransaction memory metatransaction = transactionsScheduled[id];\r\n    MetatransactionState state = transactionState(id);\r\n    return (\r\n      metatransaction.requestor,\r\n      metatransaction.plan,\r\n      metatransaction.to,\r\n      metatransaction.data,\r\n      metatransaction.gas,\r\n      metatransaction.timestamp,\r\n      metatransaction.value,\r\n      state\r\n    );\r\n  }\r\n\r\n  function cancelScheduling(bytes32 id) external {\r\n    Metatransaction storage metatransaction = transactionsScheduled[id];\r\n    require(transactionState(id) == MetatransactionState.Scheduled, 'Transaction not scheduled');\r\n    require(msg.sender == metatransaction.requestor, 'Not authorized');\r\n\r\n    metatransaction.state = MetatransactionState.Cancelled;\r\n    remainingSchedulings[metatransaction.requestor][metatransaction.plan] += 1;\r\n    emit MetatransactionCancelled(id);\r\n    payable(metatransaction.requestor).transfer(metatransaction.value);\r\n  }\r\n\r\n  ///////////////\r\n  // EXECUTION //\r\n  ///////////////\r\n\r\n  // State transitions for scheduled transaction:\r\n  //   Scheduled -> ExecutionSuccessful (call was executed in the given time and did not fail)\r\n  //   Scheduled -> ExecutionFailed (call was executed in the given time but failed)\r\n  //   Scheduled -> Overdue (Scheduled but scheduledTime outside the execution window, expected earlier)\r\n  //   Scheduled -> Refunded (refunds when executed and it's overdue)\r\n\r\n  // slither-disable-next-line timestamp\r\n  function transactionState(bytes32 id) public view returns (MetatransactionState) {\r\n    Metatransaction memory metatransaction = transactionsScheduled[id];\r\n    if (\r\n      metatransaction.state == MetatransactionState.Scheduled &&\r\n      ((metatransaction.timestamp + plans[metatransaction.plan].window) < block.timestamp)\r\n    ) {\r\n      return MetatransactionState.Overdue;\r\n    } else {\r\n      return metatransaction.state;\r\n    }\r\n  }\r\n\r\n  function refund(bytes32 id) private {\r\n    Metatransaction storage metatransaction = transactionsScheduled[id];\r\n    remainingSchedulings[metatransaction.requestor][metatransaction.plan] += 1;\r\n    metatransaction.state = MetatransactionState.Refunded;\r\n    payable(metatransaction.requestor).transfer(metatransaction.value);\r\n  }\r\n\r\n  function execute(bytes32 id) external nonReentrant {\r\n    Metatransaction storage metatransaction = transactionsScheduled[id];\r\n\r\n    require(metatransaction.state == MetatransactionState.Scheduled, 'Already executed');\r\n    // slither-disable-next-line timestamp\r\n    require((metatransaction.timestamp - plans[metatransaction.plan].window) < block.timestamp, 'Too soon');\r\n\r\n    if (transactionState(id) == MetatransactionState.Overdue) {\r\n      refund(id);\r\n      return;\r\n    }\r\n    // slither-disable-next-line low-level-calls\r\n    (bool success, bytes memory result) =\r\n      payable(metatransaction.to).call{ gas: metatransaction.gas, value: metatransaction.value }(metatransaction.data);\r\n\r\n    // slither-disable-next-line reentrancy-events\r\n    emit MetatransactionExecuted(id, success, result);\r\n\r\n    if (success) {\r\n      // slither-disable-next-line reentrancy-eth\r\n      metatransaction.state = MetatransactionState.ExecutionSuccessful;\r\n    } else {\r\n      // slither-disable-next-line reentrancy-eth\r\n      metatransaction.state = MetatransactionState.ExecutionFailed;\r\n    }\r\n\r\n    require(plans[metatransaction.plan].token.transfer(payee, plans[metatransaction.plan].schegulingPrice), \"Couldn't transfer to payee\");\r\n  }\r\n}\r\n",
  "sourcePath": "D:/SourceCode/IOVLABS/rif-scheduler-contracts-poc/contracts/OneShotSchedule.sol",
  "compiler": {
    "name": "solc",
    "version": "0.8.0+commit.c7dfd78e.Emscripten.clang"
  },
  "schemaVersion": "3.3.4",
  "updatedAt": "2021-05-06T03:42:23.179Z",
  "devdoc": {
    "kind": "dev",
    "methods": {},
    "version": 1
  },
  "userdoc": {
    "kind": "user",
    "methods": {},
    "version": 1
  }
}