{
  "contractName": "OneShotSchedule",
  "abi": [
    {
      "anonymous": false,
      "inputs": [
        {
          "indexed": true,
          "internalType": "bytes32",
          "name": "id",
          "type": "bytes32"
        },
        {
          "indexed": false,
          "internalType": "bool",
          "name": "success",
          "type": "bool"
        },
        {
          "indexed": false,
          "internalType": "bytes",
          "name": "result",
          "type": "bytes"
        }
      ],
      "name": "Executed",
      "type": "event"
    },
    {
      "anonymous": false,
      "inputs": [
        {
          "indexed": true,
          "internalType": "bytes32",
          "name": "id",
          "type": "bytes32"
        }
      ],
      "name": "ExecutionCancelled",
      "type": "event"
    },
    {
      "anonymous": false,
      "inputs": [
        {
          "indexed": true,
          "internalType": "address",
          "name": "requestor",
          "type": "address"
        },
        {
          "indexed": false,
          "internalType": "uint256",
          "name": "plan",
          "type": "uint256"
        },
        {
          "indexed": false,
          "internalType": "uint256",
          "name": "amount",
          "type": "uint256"
        }
      ],
      "name": "ExecutionPurchased",
      "type": "event"
    },
    {
      "anonymous": false,
      "inputs": [
        {
          "indexed": true,
          "internalType": "bytes32",
          "name": "id",
          "type": "bytes32"
        },
        {
          "indexed": false,
          "internalType": "uint256",
          "name": "timestamp",
          "type": "uint256"
        }
      ],
      "name": "ExecutionRequested",
      "type": "event"
    },
    {
      "anonymous": false,
      "inputs": [
        {
          "indexed": true,
          "internalType": "uint256",
          "name": "index",
          "type": "uint256"
        },
        {
          "indexed": false,
          "internalType": "uint256",
          "name": "price",
          "type": "uint256"
        },
        {
          "indexed": false,
          "internalType": "address",
          "name": "token",
          "type": "address"
        },
        {
          "indexed": false,
          "internalType": "uint256",
          "name": "window",
          "type": "uint256"
        }
      ],
      "name": "PlanAdded",
      "type": "event"
    },
    {
      "anonymous": false,
      "inputs": [
        {
          "indexed": true,
          "internalType": "uint256",
          "name": "index",
          "type": "uint256"
        }
      ],
      "name": "PlanRemoved",
      "type": "event"
    },
    {
      "inputs": [],
      "name": "payee",
      "outputs": [
        {
          "internalType": "address",
          "name": "",
          "type": "address"
        }
      ],
      "stateMutability": "view",
      "type": "function"
    },
    {
      "inputs": [
        {
          "internalType": "uint256",
          "name": "",
          "type": "uint256"
        }
      ],
      "name": "plans",
      "outputs": [
        {
          "internalType": "uint256",
          "name": "pricePerExecution",
          "type": "uint256"
        },
        {
          "internalType": "uint256",
          "name": "window",
          "type": "uint256"
        },
        {
          "internalType": "contract IERC677",
          "name": "token",
          "type": "address"
        },
        {
          "internalType": "bool",
          "name": "active",
          "type": "bool"
        }
      ],
      "stateMutability": "view",
      "type": "function"
    },
    {
      "inputs": [
        {
          "internalType": "address",
          "name": "",
          "type": "address"
        },
        {
          "internalType": "uint256",
          "name": "",
          "type": "uint256"
        }
      ],
      "name": "remainingExecutions",
      "outputs": [
        {
          "internalType": "uint256",
          "name": "",
          "type": "uint256"
        }
      ],
      "stateMutability": "view",
      "type": "function"
    },
    {
      "inputs": [],
      "name": "serviceProvider",
      "outputs": [
        {
          "internalType": "address",
          "name": "",
          "type": "address"
        }
      ],
      "stateMutability": "view",
      "type": "function"
    },
    {
      "inputs": [
        {
          "internalType": "address",
          "name": "serviceProvider_",
          "type": "address"
        },
        {
          "internalType": "address",
          "name": "payee_",
          "type": "address"
        }
      ],
      "name": "initialize",
      "outputs": [],
      "stateMutability": "nonpayable",
      "type": "function"
    },
    {
      "inputs": [
        {
          "internalType": "uint256",
          "name": "price",
          "type": "uint256"
        },
        {
          "internalType": "uint256",
          "name": "window",
          "type": "uint256"
        },
        {
          "internalType": "contract IERC677",
          "name": "token",
          "type": "address"
        }
      ],
      "name": "addPlan",
      "outputs": [],
      "stateMutability": "nonpayable",
      "type": "function"
    },
    {
      "inputs": [
        {
          "internalType": "uint256",
          "name": "plan",
          "type": "uint256"
        }
      ],
      "name": "removePlan",
      "outputs": [],
      "stateMutability": "nonpayable",
      "type": "function"
    },
    {
      "inputs": [
        {
          "internalType": "address",
          "name": "payee_",
          "type": "address"
        }
      ],
      "name": "setPayee",
      "outputs": [],
      "stateMutability": "nonpayable",
      "type": "function"
    },
    {
      "inputs": [
        {
          "internalType": "uint256",
          "name": "plan",
          "type": "uint256"
        },
        {
          "internalType": "uint256",
          "name": "quantity",
          "type": "uint256"
        }
      ],
      "name": "purchase",
      "outputs": [],
      "stateMutability": "nonpayable",
      "type": "function"
    },
    {
      "inputs": [
        {
          "internalType": "address",
          "name": "from",
          "type": "address"
        },
        {
          "internalType": "uint256",
          "name": "amount",
          "type": "uint256"
        },
        {
          "internalType": "bytes",
          "name": "data",
          "type": "bytes"
        }
      ],
      "name": "tokenFallback",
      "outputs": [
        {
          "internalType": "bool",
          "name": "",
          "type": "bool"
        }
      ],
      "stateMutability": "nonpayable",
      "type": "function"
    },
    {
      "inputs": [
        {
          "internalType": "bytes32",
          "name": "id",
          "type": "bytes32"
        }
      ],
      "name": "getState",
      "outputs": [
        {
          "internalType": "enum OneShotSchedule.ExecutionState",
          "name": "",
          "type": "uint8"
        }
      ],
      "stateMutability": "view",
      "type": "function"
    },
    {
      "inputs": [
        {
          "components": [
            {
              "internalType": "address",
              "name": "requestor",
              "type": "address"
            },
            {
              "internalType": "uint256",
              "name": "plan",
              "type": "uint256"
            },
            {
              "internalType": "address",
              "name": "to",
              "type": "address"
            },
            {
              "internalType": "bytes",
              "name": "data",
              "type": "bytes"
            },
            {
              "internalType": "uint256",
              "name": "gas",
              "type": "uint256"
            },
            {
              "internalType": "uint256",
              "name": "timestamp",
              "type": "uint256"
            },
            {
              "internalType": "uint256",
              "name": "value",
              "type": "uint256"
            },
            {
              "internalType": "enum OneShotSchedule.ExecutionState",
              "name": "state",
              "type": "uint8"
            }
          ],
          "internalType": "struct OneShotSchedule.Execution",
          "name": "execution",
          "type": "tuple"
        }
      ],
      "name": "hash",
      "outputs": [
        {
          "internalType": "bytes32",
          "name": "",
          "type": "bytes32"
        }
      ],
      "stateMutability": "pure",
      "type": "function"
    },
    {
      "inputs": [
        {
          "internalType": "uint256",
          "name": "plan",
          "type": "uint256"
        },
        {
          "internalType": "address",
          "name": "to",
          "type": "address"
        },
        {
          "internalType": "bytes",
          "name": "data",
          "type": "bytes"
        },
        {
          "internalType": "uint256",
          "name": "gas",
          "type": "uint256"
        },
        {
          "internalType": "uint256",
          "name": "timestamp",
          "type": "uint256"
        }
      ],
      "name": "schedule",
      "outputs": [],
      "stateMutability": "payable",
      "type": "function"
    },
    {
      "inputs": [
        {
          "internalType": "bytes32",
          "name": "id",
          "type": "bytes32"
        }
      ],
      "name": "getSchedule",
      "outputs": [
        {
          "internalType": "address",
          "name": "requestor",
          "type": "address"
        },
        {
          "internalType": "uint256",
          "name": "plan",
          "type": "uint256"
        },
        {
          "internalType": "address",
          "name": "to",
          "type": "address"
        },
        {
          "internalType": "bytes",
          "name": "data",
          "type": "bytes"
        },
        {
          "internalType": "uint256",
          "name": "gas",
          "type": "uint256"
        },
        {
          "internalType": "uint256",
          "name": "timestamp",
          "type": "uint256"
        },
        {
          "internalType": "uint256",
          "name": "value",
          "type": "uint256"
        },
        {
          "internalType": "enum OneShotSchedule.ExecutionState",
          "name": "state",
          "type": "uint8"
        }
      ],
      "stateMutability": "view",
      "type": "function"
    },
    {
      "inputs": [
        {
          "internalType": "bytes32",
          "name": "id",
          "type": "bytes32"
        }
      ],
      "name": "cancelScheduling",
      "outputs": [],
      "stateMutability": "nonpayable",
      "type": "function"
    },
    {
      "inputs": [
        {
          "internalType": "bytes32",
          "name": "id",
          "type": "bytes32"
        }
      ],
      "name": "execute",
      "outputs": [],
      "stateMutability": "nonpayable",
      "type": "function"
    }
  ],
  "bytecode": "0x608060405234801561001057600080fd5b50613ad2806100206000396000f3fe608060405260043610610110576000357c01000000000000000000000000000000000000000000000000000000009004806373eab687116100a7578063b395bb4b11610076578063b395bb4b14610352578063c0ee0b8a1461038f578063debd4c3d146103cc578063e751f271146103f557610110565b806373eab687146102a05780638d69e95e146102bc578063ae90b213146102e7578063b16206161461031257610110565b8063485cc955116100e3578063485cc955146101e857806354ceba0a1461021157806358fa1d9d1461023a57806370876c981461027757610110565b806309648a9d1461011557806328e550e6146101525780633adc277a1461017b578063410459ad146101bf575b600080fd5b34801561012157600080fd5b5061013c60048036038101906101379190612a23565b61041e565b604051610149919061338a565b60405180910390f35b34801561015e57600080fd5b5061017960048036038101906101749190612a8d565b61072d565b005b34801561018757600080fd5b506101a2600480360381019061019d9190612a23565b6108e8565b6040516101b698979695949392919061329f565b60405180910390f35b3480156101cb57600080fd5b506101e660048036038101906101e191906128ed565b610b4d565b005b3480156101f457600080fd5b5061020f600480360381019061020a9190612916565b610c91565b005b34801561021d57600080fd5b5061023860048036038101906102339190612a23565b610ed6565b005b34801561024657600080fd5b50610261600480360381019061025c9190612a4c565b6111bd565b60405161026e919061336f565b60405180910390f35b34801561028357600080fd5b5061029e60048036038101906102999190612b48565b611215565b005b6102ba60048036038101906102b59190612ab6565b611382565b005b3480156102c857600080fd5b506102d1611736565b6040516102de91906131ae565b60405180910390f35b3480156102f357600080fd5b506102fc61175c565b60405161030991906131ae565b60405180910390f35b34801561031e57600080fd5b5061033960048036038101906103349190612a8d565b611782565b6040516103499493929190613640565b60405180910390f35b34801561035e57600080fd5b5061037960048036038101906103749190612952565b6117ef565b60405161038691906135c5565b60405180910390f35b34801561039b57600080fd5b506103b660048036038101906103b1919061298e565b611814565b6040516103c39190613324565b60405180910390f35b3480156103d857600080fd5b506103f360048036038101906103ee9190612b84565b611969565b005b34801561040157600080fd5b5061041c60048036038101906104179190612a23565b611b9d565b005b60008060376000848152602001908152602001600020604051806101000160405290816000820160009054906101000a900473ffffffffffffffffffffffffffffffffffffffff1673ffffffffffffffffffffffffffffffffffffffff1673ffffffffffffffffffffffffffffffffffffffff168152602001600182015481526020016002820160009054906101000a900473ffffffffffffffffffffffffffffffffffffffff1673ffffffffffffffffffffffffffffffffffffffff1673ffffffffffffffffffffffffffffffffffffffff16815260200160038201805461050690613906565b80601f016020809104026020016040519081016040528092919081815260200182805461053290613906565b801561057f5780601f106105545761010080835404028352916020019161057f565b820191906000526020600020905b81548152906001019060200180831161056257829003601f168201915b505050505081526020016004820154815260200160058201548152602001600682015481526020016007820160009054906101000a900460ff1660058111156105f1577f4e487b7100000000000000000000000000000000000000000000000000000000600052602160045260246000fd5b6005811115610629577f4e487b7100000000000000000000000000000000000000000000000000000000600052602160045260246000fd5b81525050905060006005811115610669577f4e487b7100000000000000000000000000000000000000000000000000000000600052602160045260246000fd5b8160e0015160058111156106a6577f4e487b7100000000000000000000000000000000000000000000000000000000600052602160045260246000fd5b14801561071057504260358260200151815481106106ed577f4e487b7100000000000000000000000000000000000000000000000000000000600052603260045260246000fd5b9060005260206000209060030201600101548260a0015161070e9190613733565b105b1561071f576003915050610728565b8060e001519150505b919050565b603360009054906101000a900473ffffffffffffffffffffffffffffffffffffffff1673ffffffffffffffffffffffffffffffffffffffff163373ffffffffffffffffffffffffffffffffffffffff16146107bd576040517f08c379a00000000000000000000000000000000000000000000000000000000081526004016107b4906135a5565b60405180910390fd5b603581815481106107f7577f4e487b7100000000000000000000000000000000000000000000000000000000600052603260045260246000fd5b906000526020600020906003020160020160149054906101000a900460ff16610855576040517f08c379a000000000000000000000000000000000000000000000000000000000815260040161084c906133a5565b60405180910390fd5b600060358281548110610891577f4e487b7100000000000000000000000000000000000000000000000000000000600052603260045260246000fd5b906000526020600020906003020160020160146101000a81548160ff021916908315150217905550807e4c797e6739331fc6d5c1ebdf112d63e6a68297fdfd28f35f54561e28fd868d60405160405180910390a250565b600080600060606000806000806000603760008b8152602001908152602001600020604051806101000160405290816000820160009054906101000a900473ffffffffffffffffffffffffffffffffffffffff1673ffffffffffffffffffffffffffffffffffffffff1673ffffffffffffffffffffffffffffffffffffffff168152602001600182015481526020016002820160009054906101000a900473ffffffffffffffffffffffffffffffffffffffff1673ffffffffffffffffffffffffffffffffffffffff1673ffffffffffffffffffffffffffffffffffffffff1681526020016003820180546109dc90613906565b80601f0160208091040260200160405190810160405280929190818152602001828054610a0890613906565b8015610a555780601f10610a2a57610100808354040283529160200191610a55565b820191906000526020600020905b815481529060010190602001808311610a3857829003601f168201915b505050505081526020016004820154815260200160058201548152602001600682015481526020016007820160009054906101000a900460ff166005811115610ac7577f4e487b7100000000000000000000000000000000000000000000000000000000600052602160045260246000fd5b6005811115610aff577f4e487b7100000000000000000000000000000000000000000000000000000000600052602160045260246000fd5b815250509050610b0e8a61041e565b9150806000015181602001518260400151836060015184608001518560a001518660c00151985098509850985098509850985050919395975091939597565b603360009054906101000a900473ffffffffffffffffffffffffffffffffffffffff1673ffffffffffffffffffffffffffffffffffffffff163373ffffffffffffffffffffffffffffffffffffffff1614610bdd576040517f08c379a0000000000000000000000000000000000000000000000000000000008152600401610bd4906135a5565b60405180910390fd5b600073ffffffffffffffffffffffffffffffffffffffff168173ffffffffffffffffffffffffffffffffffffffff161415610c4d576040517f08c379a0000000000000000000000000000000000000000000000000000000008152600401610c4490613545565b60405180910390fd5b80603460006101000a81548173ffffffffffffffffffffffffffffffffffffffff021916908373ffffffffffffffffffffffffffffffffffffffff16021790555050565b600060019054906101000a900460ff1680610cb7575060008054906101000a900460ff16155b610cf6576040517f08c379a0000000000000000000000000000000000000000000000000000000008152600401610ced906134a5565b60405180910390fd5b60008060019054906101000a900460ff161590508015610d46576001600060016101000a81548160ff02191690831515021790555060016000806101000a81548160ff0219169083151502179055505b610d4e612159565b600073ffffffffffffffffffffffffffffffffffffffff168273ffffffffffffffffffffffffffffffffffffffff161415610dbe576040517f08c379a0000000000000000000000000000000000000000000000000000000008152600401610db590613545565b60405180910390fd5b600073ffffffffffffffffffffffffffffffffffffffff168373ffffffffffffffffffffffffffffffffffffffff161415610e2e576040517f08c379a0000000000000000000000000000000000000000000000000000000008152600401610e25906134c5565b60405180910390fd5b82603360006101000a81548173ffffffffffffffffffffffffffffffffffffffff021916908373ffffffffffffffffffffffffffffffffffffffff16021790555081603460006101000a81548173ffffffffffffffffffffffffffffffffffffffff021916908373ffffffffffffffffffffffffffffffffffffffff1602179055508015610ed15760008060016101000a81548160ff0219169083151502179055505b505050565b600060376000838152602001908152602001600020905060006005811115610f27577f4e487b7100000000000000000000000000000000000000000000000000000000600052602160045260246000fd5b610f308361041e565b6005811115610f68577f4e487b7100000000000000000000000000000000000000000000000000000000600052602160045260246000fd5b14610fa8576040517f08c379a0000000000000000000000000000000000000000000000000000000008152600401610f9f906133e5565b60405180910390fd5b8060000160009054906101000a900473ffffffffffffffffffffffffffffffffffffffff1673ffffffffffffffffffffffffffffffffffffffff163373ffffffffffffffffffffffffffffffffffffffff161461103a576040517f08c379a0000000000000000000000000000000000000000000000000000000008152600401611031906135a5565b60405180910390fd5b60058160070160006101000a81548160ff02191690836005811115611088577f4e487b7100000000000000000000000000000000000000000000000000000000600052602160045260246000fd5b02179055506001603660008360000160009054906101000a900473ffffffffffffffffffffffffffffffffffffffff1673ffffffffffffffffffffffffffffffffffffffff1673ffffffffffffffffffffffffffffffffffffffff16815260200190815260200160002060008360010154815260200190815260200160002060008282546111169190613733565b92505081905550817fa9492956e3406e5fabb393f5ac68540da3bb42721d741519c0eadd27a15d83c060405160405180910390a28060000160009054906101000a900473ffffffffffffffffffffffffffffffffffffffff1673ffffffffffffffffffffffffffffffffffffffff166108fc82600601549081150290604051600060405180830381858888f193505050501580156111b8573d6000803e3d6000fd5b505050565b6000816000015182602001518360400151846060015185608001518660a001518760c001516040516020016111f89796959493929190613229565b604051602081830303815290604052805190602001209050919050565b61122033838361223a565b6035828154811061125a577f4e487b7100000000000000000000000000000000000000000000000000000000600052603260045260246000fd5b906000526020600020906003020160020160009054906101000a900473ffffffffffffffffffffffffffffffffffffffff1673ffffffffffffffffffffffffffffffffffffffff166323b872dd33306112b3868661238e565b6040518463ffffffff167c01000000000000000000000000000000000000000000000000000000000281526004016112ed939291906131c9565b602060405180830381600087803b15801561130757600080fd5b505af115801561131b573d6000803e3d6000fd5b505050506040513d601f19601f8201168201806040525081019061133f91906129fa565b61137e576040517f08c379a000000000000000000000000000000000000000000000000000000000815260040161137590613465565b60405180910390fd5b5050565b6000603660003373ffffffffffffffffffffffffffffffffffffffff1673ffffffffffffffffffffffffffffffffffffffff16815260200190815260200160002060008881526020019081526020016000205411611415576040517f08c379a000000000000000000000000000000000000000000000000000000000815260040161140c90613405565b60405180910390fd5b6001603660003373ffffffffffffffffffffffffffffffffffffffff1673ffffffffffffffffffffffffffffffffffffffff1681526020019081526020016000206000888152602001908152602001600020600082825461147691906137e3565b92505081905550804211156114c0576040517f08c379a00000000000000000000000000000000000000000000000000000000081526004016114b7906134e5565b60405180910390fd5b60006040518061010001604052803373ffffffffffffffffffffffffffffffffffffffff1681526020018881526020018773ffffffffffffffffffffffffffffffffffffffff16815260200186868080601f016020809104026020016040519081016040528093929190818152602001838380828437600081840152601f19601f820116905080830192505050505050508152602001848152602001838152602001348152602001600060058111156115a2577f4e487b7100000000000000000000000000000000000000000000000000000000600052602160045260246000fd5b815250905060006115b2826111bd565b9050816037600083815260200190815260200160002060008201518160000160006101000a81548173ffffffffffffffffffffffffffffffffffffffff021916908373ffffffffffffffffffffffffffffffffffffffff1602179055506020820151816001015560408201518160020160006101000a81548173ffffffffffffffffffffffffffffffffffffffff021916908373ffffffffffffffffffffffffffffffffffffffff160217905550606082015181600301908051906020019061167c92919061263c565b506080820151816004015560a0820151816005015560c0820151816006015560e08201518160070160006101000a81548160ff021916908360058111156116ec577f4e487b7100000000000000000000000000000000000000000000000000000000600052602160045260246000fd5b0217905550905050807fb19e7bab761c1d438a654faa449e3736081f6c0e0a0786ddd4d31853845283208460405161172491906135c5565b60405180910390a25050505050505050565b603360009054906101000a900473ffffffffffffffffffffffffffffffffffffffff1681565b603460009054906101000a900473ffffffffffffffffffffffffffffffffffffffff1681565b6035818154811061179257600080fd5b90600052602060002090600302016000915090508060000154908060010154908060020160009054906101000a900473ffffffffffffffffffffffffffffffffffffffff16908060020160149054906101000a900460ff16905084565b6036602052816000526040600020602052806000526040600020600091509150505481565b600080600084848101906118289190612b48565b915091503373ffffffffffffffffffffffffffffffffffffffff166035838154811061187d577f4e487b7100000000000000000000000000000000000000000000000000000000600052603260045260246000fd5b906000526020600020906003020160020160009054906101000a900473ffffffffffffffffffffffffffffffffffffffff1673ffffffffffffffffffffffffffffffffffffffff1614611905576040517f08c379a00000000000000000000000000000000000000000000000000000000081526004016118fc90613425565b60405180910390fd5b61190f828261238e565b8614611950576040517f08c379a000000000000000000000000000000000000000000000000000000000815260040161194790613485565b60405180910390fd5b61195b87838361223a565b600192505050949350505050565b603360009054906101000a900473ffffffffffffffffffffffffffffffffffffffff1673ffffffffffffffffffffffffffffffffffffffff163373ffffffffffffffffffffffffffffffffffffffff16146119f9576040517f08c379a00000000000000000000000000000000000000000000000000000000081526004016119f0906135a5565b60405180910390fd5b600073ffffffffffffffffffffffffffffffffffffffff168173ffffffffffffffffffffffffffffffffffffffff161415611a69576040517f08c379a0000000000000000000000000000000000000000000000000000000008152600401611a6090613525565b60405180910390fd5b603560405180608001604052808581526020018481526020018373ffffffffffffffffffffffffffffffffffffffff168152602001600115158152509080600181540180825580915050600190039060005260206000209060030201600090919091909150600082015181600001556020820151816001015560408201518160020160006101000a81548173ffffffffffffffffffffffffffffffffffffffff021916908373ffffffffffffffffffffffffffffffffffffffff16021790555060608201518160020160146101000a81548160ff02191690831515021790555050506001603580549050611b5d91906137e3565b7f398c82e2ccf5aaee72a60b95d6543133e8fc843e113441e9a2d767274c8d8eef848385604051611b90939291906135e0565b60405180910390a2505050565b60026001541415611be3576040517f08c379a0000000000000000000000000000000000000000000000000000000008152600401611bda90613585565b60405180910390fd5b6002600181905550600060376000838152602001908152602001600020905060006005811115611c3c577f4e487b7100000000000000000000000000000000000000000000000000000000600052602160045260246000fd5b8160070160009054906101000a900460ff166005811115611c86577f4e487b7100000000000000000000000000000000000000000000000000000000600052602160045260246000fd5b14611cc6576040517f08c379a0000000000000000000000000000000000000000000000000000000008152600401611cbd90613445565b60405180910390fd5b426035826001015481548110611d05577f4e487b7100000000000000000000000000000000000000000000000000000000600052603260045260246000fd5b9060005260206000209060030201600101548260050154611d2691906137e3565b10611d66576040517f08c379a0000000000000000000000000000000000000000000000000000000008152600401611d5d90613505565b60405180910390fd5b60036005811115611da0577f4e487b7100000000000000000000000000000000000000000000000000000000600052602160045260246000fd5b611da98361041e565b6005811115611de1577f4e487b7100000000000000000000000000000000000000000000000000000000600052602160045260246000fd5b1415611df657611df0826123ef565b5061214f565b6000808260020160009054906101000a900473ffffffffffffffffffffffffffffffffffffffff1673ffffffffffffffffffffffffffffffffffffffff168360040154846006015485600301604051611e4f9190613197565b600060405180830381858888f193505050503d8060008114611e8d576040519150601f19603f3d011682016040523d82523d6000602084013e611e92565b606091505b5091509150837fbbb9534b79cda5e36feb34cc697d5e728db1a530363e152c539fb70b3f75f7ac8383604051611ec992919061333f565b60405180910390a28115611f2f5760018360070160006101000a81548160ff02191690836005811115611f25577f4e487b7100000000000000000000000000000000000000000000000000000000600052602160045260246000fd5b0217905550611f83565b60028360070160006101000a81548160ff02191690836005811115611f7d577f4e487b7100000000000000000000000000000000000000000000000000000000600052602160045260246000fd5b02179055505b6035836001015481548110611fc1577f4e487b7100000000000000000000000000000000000000000000000000000000600052603260045260246000fd5b906000526020600020906003020160020160009054906101000a900473ffffffffffffffffffffffffffffffffffffffff1673ffffffffffffffffffffffffffffffffffffffff1663a9059cbb603460009054906101000a900473ffffffffffffffffffffffffffffffffffffffff16603586600101548154811061206f577f4e487b7100000000000000000000000000000000000000000000000000000000600052603260045260246000fd5b9060005260206000209060030201600001546040518363ffffffff167c01000000000000000000000000000000000000000000000000000000000281526004016120ba929190613200565b602060405180830381600087803b1580156120d457600080fd5b505af11580156120e8573d6000803e3d6000fd5b505050506040513d601f19601f8201168201806040525081019061210c91906129fa565b61214b576040517f08c379a0000000000000000000000000000000000000000000000000000000008152600401612142906133c5565b60405180910390fd5b5050505b6001808190555050565b600060019054906101000a900460ff168061217f575060008054906101000a900460ff16155b6121be576040517f08c379a00000000000000000000000000000000000000000000000000000000081526004016121b5906134a5565b60405180910390fd5b60008060019054906101000a900460ff16159050801561220e576001600060016101000a81548160ff02191690831515021790555060016000806101000a81548160ff0219169083151502179055505b61221661255c565b80156122375760008060016101000a81548160ff0219169083151502179055505b50565b60358281548110612274577f4e487b7100000000000000000000000000000000000000000000000000000000600052603260045260246000fd5b906000526020600020906003020160020160149054906101000a900460ff166122d2576040517f08c379a00000000000000000000000000000000000000000000000000000000081526004016122c990613565565b60405180910390fd5b80603660008573ffffffffffffffffffffffffffffffffffffffff1673ffffffffffffffffffffffffffffffffffffffff168152602001908152602001600020600084815260200190815260200160002060008282546123329190613733565b925050819055508273ffffffffffffffffffffffffffffffffffffffff167f1d00f3ff8ba6a0ac98e7c747985ac34f1f706f5d0fa06abaa4c090a60598a65d8383604051612381929190613617565b60405180910390a2505050565b6000603583815481106123ca577f4e487b7100000000000000000000000000000000000000000000000000000000600052603260045260246000fd5b906000526020600020906003020160000154826123e79190613789565b905092915050565b60006037600083815260200190815260200160002090506001603660008360000160009054906101000a900473ffffffffffffffffffffffffffffffffffffffff1673ffffffffffffffffffffffffffffffffffffffff1673ffffffffffffffffffffffffffffffffffffffff168152602001908152602001600020600083600101548152602001908152602001600020600082825461248f9190613733565b9250508190555060048160070160006101000a81548160ff021916908360058111156124e4577f4e487b7100000000000000000000000000000000000000000000000000000000600052602160045260246000fd5b02179055508060000160009054906101000a900473ffffffffffffffffffffffffffffffffffffffff1673ffffffffffffffffffffffffffffffffffffffff166108fc82600601549081150290604051600060405180830381858888f19350505050158015612557573d6000803e3d6000fd5b505050565b600060019054906101000a900460ff1680612582575060008054906101000a900460ff16155b6125c1576040517f08c379a00000000000000000000000000000000000000000000000000000000081526004016125b8906134a5565b60405180910390fd5b60008060019054906101000a900460ff161590508015612611576001600060016101000a81548160ff02191690831515021790555060016000806101000a81548160ff0219169083151502179055505b6001808190555080156126395760008060016101000a81548160ff0219169083151502179055505b50565b82805461264890613906565b90600052602060002090601f01602090048101928261266a57600085556126b1565b82601f1061268357805160ff19168380011785556126b1565b828001600101855582156126b1579182015b828111156126b0578251825591602001919060010190612695565b5b5090506126be91906126c2565b5090565b5b808211156126db5760008160009055506001016126c3565b5090565b60006126f26126ed846136b6565b613685565b90508281526020810184848401111561270a57600080fd5b6127158482856138c4565b509392505050565b60008135905061272c81613a19565b92915050565b60008151905061274181613a30565b92915050565b60008135905061275681613a47565b92915050565b60008083601f84011261276e57600080fd5b8235905067ffffffffffffffff81111561278757600080fd5b60208301915083600182028301111561279f57600080fd5b9250929050565b600082601f8301126127b757600080fd5b81356127c78482602086016126df565b91505092915050565b6000813590506127df81613a5e565b92915050565b6000813590506127f481613a75565b92915050565b6000610100828403121561280d57600080fd5b612818610100613685565b905060006128288482850161271d565b600083015250602061283c848285016128d8565b60208301525060406128508482850161271d565b604083015250606082013567ffffffffffffffff81111561287057600080fd5b61287c848285016127a6565b6060830152506080612890848285016128d8565b60808301525060a06128a4848285016128d8565b60a08301525060c06128b8848285016128d8565b60c08301525060e06128cc848285016127e5565b60e08301525092915050565b6000813590506128e781613a85565b92915050565b6000602082840312156128ff57600080fd5b600061290d8482850161271d565b91505092915050565b6000806040838503121561292957600080fd5b60006129378582860161271d565b92505060206129488582860161271d565b9150509250929050565b6000806040838503121561296557600080fd5b60006129738582860161271d565b9250506020612984858286016128d8565b9150509250929050565b600080600080606085870312156129a457600080fd5b60006129b28782880161271d565b94505060206129c3878288016128d8565b935050604085013567ffffffffffffffff8111156129e057600080fd5b6129ec8782880161275c565b925092505092959194509250565b600060208284031215612a0c57600080fd5b6000612a1a84828501612732565b91505092915050565b600060208284031215612a3557600080fd5b6000612a4384828501612747565b91505092915050565b600060208284031215612a5e57600080fd5b600082013567ffffffffffffffff811115612a7857600080fd5b612a84848285016127fa565b91505092915050565b600060208284031215612a9f57600080fd5b6000612aad848285016128d8565b91505092915050565b60008060008060008060a08789031215612acf57600080fd5b6000612add89828a016128d8565b9650506020612aee89828a0161271d565b955050604087013567ffffffffffffffff811115612b0b57600080fd5b612b1789828a0161275c565b94509450506060612b2a89828a016128d8565b9250506080612b3b89828a016128d8565b9150509295509295509295565b60008060408385031215612b5b57600080fd5b6000612b69858286016128d8565b9250506020612b7a858286016128d8565b9150509250929050565b600080600060608486031215612b9957600080fd5b6000612ba7868287016128d8565b9350506020612bb8868287016128d8565b9250506040612bc9868287016127d0565b9150509250925092565b612bdc81613817565b82525050565b612beb81613829565b82525050565b612bfa81613835565b82525050565b6000612c0b826136fb565b612c158185613706565b9350612c258185602086016138d3565b612c2e816139f4565b840191505092915050565b60008154612c4681613906565b612c508186613717565b94506001821660008114612c6b5760018114612c7c57612caf565b60ff19831686528186019350612caf565b612c85856136e6565b60005b83811015612ca757815481890152600182019150602081019050612c88565b838801955050505b50505092915050565b612cc18161388e565b82525050565b612cd0816138b2565b82525050565b6000612ce3601c83613722565b91507f54686520706c616e20697320616c726561647920696e616374697665000000006000830152602082019050919050565b6000612d23601a83613722565b91507f436f756c646e2774207472616e7366657220746f2070617965650000000000006000830152602082019050919050565b6000612d63601983613722565b91507f5472616e73616374696f6e206e6f74207363686564756c6564000000000000006000830152602082019050919050565b6000612da3601483613722565b91507f4e6f2062616c616e636520617661696c61626c650000000000000000000000006000830152602082019050919050565b6000612de3600983613722565b91507f42616420746f6b656e00000000000000000000000000000000000000000000006000830152602082019050919050565b6000612e23601083613722565b91507f416c7265616479206578656375746564000000000000000000000000000000006000830152602082019050919050565b6000612e63601283613722565b91507f5061796d656e74206469642774207061737300000000000000000000000000006000830152602082019050919050565b6000612ea3602f83613722565b91507f5472616e7366657272656420616d6f756e7420646f65736e2774206d6174636860008301527f20746f74616c20707572636861736500000000000000000000000000000000006020830152604082019050919050565b6000612f09602e83613722565b91507f496e697469616c697a61626c653a20636f6e747261637420697320616c72656160008301527f647920696e697469616c697a65640000000000000000000000000000000000006020830152604082019050919050565b6000612f6f602683613722565b91507f536572766963652070726f766964657220616464726573732063616e6e6f742060008301527f62652030783000000000000000000000000000000000000000000000000000006020830152604082019050919050565b6000612fd5601e83613722565b91507f43616e6e6f74207363686564756c6520697420696e20746865207061737400006000830152602082019050919050565b6000613015600883613722565b91507f546f6f20736f6f6e0000000000000000000000000000000000000000000000006000830152602082019050919050565b6000613055601b83613722565b91507f546f6b656e20616464726573732063616e6e6f742062652030783000000000006000830152602082019050919050565b6000613095601b83613722565b91507f506179656520616464726573732063616e6e6f742062652030783000000000006000830152602082019050919050565b60006130d5600d83613722565b91507f496e61637469766520706c616e000000000000000000000000000000000000006000830152602082019050919050565b6000613115601f83613722565b91507f5265656e7472616e637947756172643a207265656e7472616e742063616c6c006000830152602082019050919050565b6000613155600e83613722565b91507f4e6f7420617574686f72697a65640000000000000000000000000000000000006000830152602082019050919050565b61319181613884565b82525050565b60006131a38284612c39565b915081905092915050565b60006020820190506131c36000830184612bd3565b92915050565b60006060820190506131de6000830186612bd3565b6131eb6020830185612bd3565b6131f86040830184613188565b949350505050565b60006040820190506132156000830185612bd3565b6132226020830184613188565b9392505050565b600060e08201905061323e600083018a612bd3565b61324b6020830189613188565b6132586040830188612bd3565b818103606083015261326a8187612c00565b90506132796080830186613188565b61328660a0830185613188565b61329360c0830184613188565b98975050505050505050565b6000610100820190506132b5600083018b612bd3565b6132c2602083018a613188565b6132cf6040830189612bd3565b81810360608301526132e18188612c00565b90506132f06080830187613188565b6132fd60a0830186613188565b61330a60c0830185613188565b61331760e0830184612cc7565b9998505050505050505050565b60006020820190506133396000830184612be2565b92915050565b60006040820190506133546000830185612be2565b81810360208301526133668184612c00565b90509392505050565b60006020820190506133846000830184612bf1565b92915050565b600060208201905061339f6000830184612cc7565b92915050565b600060208201905081810360008301526133be81612cd6565b9050919050565b600060208201905081810360008301526133de81612d16565b9050919050565b600060208201905081810360008301526133fe81612d56565b9050919050565b6000602082019050818103600083015261341e81612d96565b9050919050565b6000602082019050818103600083015261343e81612dd6565b9050919050565b6000602082019050818103600083015261345e81612e16565b9050919050565b6000602082019050818103600083015261347e81612e56565b9050919050565b6000602082019050818103600083015261349e81612e96565b9050919050565b600060208201905081810360008301526134be81612efc565b9050919050565b600060208201905081810360008301526134de81612f62565b9050919050565b600060208201905081810360008301526134fe81612fc8565b9050919050565b6000602082019050818103600083015261351e81613008565b9050919050565b6000602082019050818103600083015261353e81613048565b9050919050565b6000602082019050818103600083015261355e81613088565b9050919050565b6000602082019050818103600083015261357e816130c8565b9050919050565b6000602082019050818103600083015261359e81613108565b9050919050565b600060208201905081810360008301526135be81613148565b9050919050565b60006020820190506135da6000830184613188565b92915050565b60006060820190506135f56000830186613188565b6136026020830185612bd3565b61360f6040830184613188565b949350505050565b600060408201905061362c6000830185613188565b6136396020830184613188565b9392505050565b60006080820190506136556000830187613188565b6136626020830186613188565b61366f6040830185612cb8565b61367c6060830184612be2565b95945050505050565b6000604051905081810181811067ffffffffffffffff821117156136ac576136ab6139c5565b5b8060405250919050565b600067ffffffffffffffff8211156136d1576136d06139c5565b5b601f19601f8301169050602081019050919050565b60008190508160005260206000209050919050565b600081519050919050565b600082825260208201905092915050565b600081905092915050565b600082825260208201905092915050565b600061373e82613884565b915061374983613884565b9250827fffffffffffffffffffffffffffffffffffffffffffffffffffffffffffffffff0382111561377e5761377d613938565b5b828201905092915050565b600061379482613884565b915061379f83613884565b9250817fffffffffffffffffffffffffffffffffffffffffffffffffffffffffffffffff04831182151516156137d8576137d7613938565b5b828202905092915050565b60006137ee82613884565b91506137f983613884565b92508282101561380c5761380b613938565b5b828203905092915050565b600061382282613864565b9050919050565b60008115159050919050565b6000819050919050565b600061384a82613817565b9050919050565b600081905061385f82613a05565b919050565b600073ffffffffffffffffffffffffffffffffffffffff82169050919050565b6000819050919050565b6000613899826138a0565b9050919050565b60006138ab82613864565b9050919050565b60006138bd82613851565b9050919050565b82818337600083830152505050565b60005b838110156138f15780820151818401526020810190506138d6565b83811115613900576000848401525b50505050565b6000600282049050600182168061391e57607f821691505b6020821081141561393257613931613996565b5b50919050565b7f4e487b7100000000000000000000000000000000000000000000000000000000600052601160045260246000fd5b7f4e487b7100000000000000000000000000000000000000000000000000000000600052602160045260246000fd5b7f4e487b7100000000000000000000000000000000000000000000000000000000600052602260045260246000fd5b7f4e487b7100000000000000000000000000000000000000000000000000000000600052604160045260246000fd5b6000601f19601f8301169050919050565b60068110613a1657613a15613967565b5b50565b613a2281613817565b8114613a2d57600080fd5b50565b613a3981613829565b8114613a4457600080fd5b50565b613a5081613835565b8114613a5b57600080fd5b50565b613a678161383f565b8114613a7257600080fd5b50565b60068110613a8257600080fd5b50565b613a8e81613884565b8114613a9957600080fd5b5056fea26469706673582212207ee59d6b3731da2ef5cf24c4acdb13b8fb70a7b32c7475f79f8167fb46e22afb64736f6c63430008000033",
  "immutableReferences": {},
  "source": "// SPDX-License-Identifier: MIT\r\npragma solidity ^0.8.0;\r\nimport '@rsksmart/erc677/contracts/IERC677.sol';\r\nimport '@rsksmart/erc677/contracts/IERC677TransferReceiver.sol';\r\nimport '@openzeppelin/contracts-upgradeable/proxy/utils/Initializable.sol';\r\nimport '@openzeppelin/contracts-upgradeable/security/ReentrancyGuardUpgradeable.sol';\r\n\r\ncontract OneShotSchedule is IERC677TransferReceiver, Initializable, ReentrancyGuardUpgradeable {\r\n  enum ExecutionState { Scheduled, ExecutionSuccessful, ExecutionFailed, Overdue, Refunded, Cancelled }\r\n  // State transitions for scheduled executions:\r\n  //   Scheduled -> Cancelled (requestor cancelled execution)\r\n  //   Scheduled -> ExecutionSuccessful (call was executed in the given time and did not fail)\r\n  //   Scheduled -> ExecutionFailed (call was executed in the given time but failed)\r\n  //   Scheduled -> Overdue (execution window has passed, expected earlier)\r\n  //   Overdue -> Refunded (refund for overdue execution paid)\r\n\r\n  struct Execution {\r\n    address requestor;\r\n    uint256 plan;\r\n    address to;\r\n    bytes data;\r\n    uint256 gas;\r\n    uint256 timestamp;\r\n    uint256 value;\r\n    ExecutionState state;\r\n  }\r\n\r\n  struct Plan {\r\n    uint256 pricePerExecution;\r\n    uint256 window;\r\n    IERC677 token;\r\n    bool active;\r\n  }\r\n\r\n  address public serviceProvider;\r\n  address public payee;\r\n\r\n  Plan[] public plans;\r\n  mapping(address => mapping(uint256 => uint256)) public remainingExecutions;\r\n  mapping(bytes32 => Execution) private executions;\r\n\r\n  event PlanAdded(uint256 indexed index, uint256 price, address token, uint256 window);\r\n  event PlanRemoved(uint256 indexed index);\r\n\r\n  event ExecutionPurchased(address indexed requestor, uint256 plan, uint256 amount);\r\n  event ExecutionRequested(bytes32 indexed id, uint256 timestamp);\r\n  event Executed(bytes32 indexed id, bool success, bytes result);\r\n  event ExecutionCancelled(bytes32 indexed id);\r\n\r\n  modifier onlyProvider() {\r\n    require(address(msg.sender) == serviceProvider, 'Not authorized');\r\n    _;\r\n  }\r\n\r\n  function initialize(address serviceProvider_, address payee_) public initializer {\r\n    __ReentrancyGuard_init();\r\n    require(payee_ != address(0x0), 'Payee address cannot be 0x0');\r\n    require(serviceProvider_ != address(0x0), 'Service provider address cannot be 0x0');\r\n    serviceProvider = serviceProvider_;\r\n    payee = payee_;\r\n  }\r\n\r\n  ///////////\r\n  // ADMIN //\r\n  ///////////\r\n\r\n  function addPlan(\r\n    uint256 price,\r\n    uint256 window,\r\n    IERC677 token\r\n  ) external onlyProvider {\r\n    require(address(token) != address(0x0), 'Token address cannot be 0x0');\r\n    plans.push(Plan(price, window, token, true));\r\n    emit PlanAdded(plans.length - 1, price, address(token), window);\r\n  }\r\n\r\n  function removePlan(uint256 plan) external onlyProvider {\r\n    require(plans[plan].active, 'The plan is already inactive');\r\n    plans[plan].active = false;\r\n    emit PlanRemoved(plan);\r\n  }\r\n\r\n  function setPayee(address payee_) external onlyProvider {\r\n    require(payee_ != address(0x0), 'Payee address cannot be 0x0');\r\n    payee = payee_;\r\n  }\r\n\r\n  //////////////\r\n  // PURCHASE //\r\n  //////////////\r\n\r\n  function totalPrice(uint256 plan, uint256 quantity) private view returns (uint256) {\r\n    return quantity * plans[plan].pricePerExecution;\r\n  }\r\n\r\n  function doPurchase(\r\n    address requestor,\r\n    uint256 plan,\r\n    uint256 amount\r\n  ) private {\r\n    require(plans[plan].active, 'Inactive plan');\r\n    remainingExecutions[requestor][plan] += amount;\r\n    emit ExecutionPurchased(requestor, plan, amount);\r\n  }\r\n\r\n  // purcahse with ERC-20\r\n  function purchase(uint256 plan, uint256 quantity) external {\r\n    doPurchase(msg.sender, plan, quantity);\r\n\r\n    require(plans[plan].token.transferFrom(msg.sender, address(this), totalPrice(plan, quantity)), \"Payment did't pass\");\r\n  }\r\n\r\n  // purcahse with ERC-677\r\n  function tokenFallback(\r\n    address from,\r\n    uint256 amount,\r\n    bytes calldata data\r\n  ) external override returns (bool) {\r\n    (uint256 plan, uint256 quantity) = abi.decode(data, (uint256, uint256));\r\n\r\n    require(address(plans[plan].token) == address(msg.sender), 'Bad token');\r\n    require(amount == totalPrice(plan, quantity), \"Transferred amount doesn't match total purchase\");\r\n\r\n    doPurchase(from, plan, quantity);\r\n    return true;\r\n  }\r\n\r\n  ////////////////\r\n  // SCHEDULING //\r\n  ////////////////\r\n\r\n  // slither-disable-next-line timestamp\r\n  function getState(bytes32 id) public view returns (ExecutionState) {\r\n    Execution memory execution = executions[id];\r\n    if (execution.state == ExecutionState.Scheduled && ((execution.timestamp + plans[execution.plan].window) < block.timestamp)) {\r\n      return ExecutionState.Overdue;\r\n    } else {\r\n      return execution.state;\r\n    }\r\n  }\r\n\r\n  function hash(Execution memory execution) public pure returns (bytes32) {\r\n    return\r\n      keccak256(\r\n        abi.encode(execution.requestor, execution.plan, execution.to, execution.data, execution.gas, execution.timestamp, execution.value)\r\n      );\r\n  }\r\n\r\n  function schedule(\r\n    uint256 plan,\r\n    address to,\r\n    bytes calldata data,\r\n    uint256 gas,\r\n    uint256 timestamp\r\n  ) external payable {\r\n    require(remainingExecutions[msg.sender][plan] > 0, 'No balance available');\r\n    remainingExecutions[msg.sender][plan] -= 1;\r\n\r\n    // This is only to prevent errors, doesn't need to be exact\r\n    // timestamp manipulation should be considered in the window by the service provider\r\n    // slither-disable-next-line timestamp\r\n    require(block.timestamp <= timestamp, 'Cannot schedule it in the past');\r\n\r\n    Execution memory execution = Execution(msg.sender, plan, to, data, gas, timestamp, msg.value, ExecutionState.Scheduled);\r\n    bytes32 id = hash(execution);\r\n    executions[id] = execution;\r\n    emit ExecutionRequested(id, timestamp);\r\n  }\r\n\r\n  function getSchedule(bytes32 id)\r\n    external\r\n    view\r\n    returns (\r\n      address requestor,\r\n      uint256 plan,\r\n      address to,\r\n      bytes memory data,\r\n      uint256 gas,\r\n      uint256 timestamp,\r\n      uint256 value,\r\n      ExecutionState state\r\n    )\r\n  {\r\n    Execution memory execution = executions[id];\r\n    state = getState(id);\r\n    return (execution.requestor, execution.plan, execution.to, execution.data, execution.gas, execution.timestamp, execution.value, state);\r\n  }\r\n\r\n  function cancelScheduling(bytes32 id) external {\r\n    Execution storage execution = executions[id];\r\n\r\n    require(getState(id) == ExecutionState.Scheduled, 'Transaction not scheduled');\r\n    require(msg.sender == execution.requestor, 'Not authorized');\r\n\r\n    execution.state = ExecutionState.Cancelled;\r\n    remainingExecutions[execution.requestor][execution.plan] += 1;\r\n    emit ExecutionCancelled(id);\r\n    payable(execution.requestor).transfer(execution.value);\r\n  }\r\n\r\n  ///////////////\r\n  // EXECUTION //\r\n  ///////////////\r\n  function refund(bytes32 id) private {\r\n    Execution storage execution = executions[id];\r\n    remainingExecutions[execution.requestor][execution.plan] += 1;\r\n    execution.state = ExecutionState.Refunded;\r\n    payable(execution.requestor).transfer(execution.value);\r\n  }\r\n\r\n  // The nonReentrant prevents this contract to be call again when the low level call is executed\r\n  // timestamp manipulation should be considered in the window by the service provider\r\n  // slither-disable-next-line timestamp\r\n  function execute(bytes32 id) external nonReentrant {\r\n    Execution storage execution = executions[id];\r\n\r\n    require(execution.state == ExecutionState.Scheduled, 'Already executed');\r\n    // timestamp manipulation should be considered in the window by the service provider\r\n    // slither-disable-next-line timestamp\r\n    require((execution.timestamp - plans[execution.plan].window) < block.timestamp, 'Too soon');\r\n\r\n    if (getState(id) == ExecutionState.Overdue) {\r\n      refund(id);\r\n      return;\r\n    }\r\n\r\n    // The contract makes an external call to execute the scheduled transaction on the specified contract.\r\n    // It needs to get the execution result before emitting the event and changing the matatransaction state.\r\n    // slither-disable-next-line low-level-calls\r\n    (bool success, bytes memory result) = payable(execution.to).call{ gas: execution.gas, value: execution.value }(execution.data);\r\n\r\n    // reentrancy prevented by nonReentrant modifier\r\n    // slither-disable-next-line reentrancy-events\r\n    emit Executed(id, success, result);\r\n\r\n    if (success) {\r\n      // reentrancy prevented by nonReentrant modifier\r\n      // slither-disable-next-line reentrancy-eth\r\n      execution.state = ExecutionState.ExecutionSuccessful;\r\n    } else {\r\n      // reentrancy prevented by nonReentrant modifier\r\n      // slither-disable-next-line reentrancy-eth\r\n      execution.state = ExecutionState.ExecutionFailed;\r\n    }\r\n\r\n    require(plans[execution.plan].token.transfer(payee, plans[execution.plan].pricePerExecution), \"Couldn't transfer to payee\");\r\n  }\r\n}\r\n",
  "sourcePath": "D:/SourceCode/IOVLabs/rif-scheduler-contracts/contracts/OneShotSchedule.sol",
  "compiler": {
    "name": "solc",
    "version": "0.8.0+commit.c7dfd78e.Emscripten.clang"
  },
  "schemaVersion": "3.4.1",
  "updatedAt": "2021-05-18T18:15:15.199Z",
  "devdoc": {
    "kind": "dev",
    "methods": {},
    "version": 1
  },
  "userdoc": {
    "kind": "user",
    "methods": {},
    "version": 1
  }
}