{
  "contractName": "OneShotSchedule",
  "abi": [
    {
      "anonymous": false,
      "inputs": [
        {
          "indexed": true,
          "internalType": "bytes32",
          "name": "id",
          "type": "bytes32"
        },
        {
          "indexed": false,
          "internalType": "bool",
          "name": "success",
          "type": "bool"
        },
        {
          "indexed": false,
          "internalType": "bytes",
          "name": "result",
          "type": "bytes"
        }
      ],
      "name": "Executed",
      "type": "event"
    },
    {
      "anonymous": false,
      "inputs": [
        {
          "indexed": true,
          "internalType": "bytes32",
          "name": "id",
          "type": "bytes32"
        }
      ],
      "name": "ExecutionCancelled",
      "type": "event"
    },
    {
      "anonymous": false,
      "inputs": [
        {
          "indexed": true,
          "internalType": "address",
          "name": "requestor",
          "type": "address"
        },
        {
          "indexed": false,
          "internalType": "uint256",
          "name": "plan",
          "type": "uint256"
        },
        {
          "indexed": false,
          "internalType": "uint256",
          "name": "amount",
          "type": "uint256"
        }
      ],
      "name": "ExecutionPurchased",
      "type": "event"
    },
    {
      "anonymous": false,
      "inputs": [
        {
          "indexed": true,
          "internalType": "bytes32",
          "name": "id",
          "type": "bytes32"
        },
        {
          "indexed": false,
          "internalType": "uint256",
          "name": "timestamp",
          "type": "uint256"
        }
      ],
      "name": "ExecutionRequested",
      "type": "event"
    },
    {
      "anonymous": false,
      "inputs": [
        {
          "indexed": true,
          "internalType": "uint256",
          "name": "index",
          "type": "uint256"
        },
        {
          "indexed": false,
          "internalType": "uint256",
          "name": "price",
          "type": "uint256"
        },
        {
          "indexed": false,
          "internalType": "address",
          "name": "token",
          "type": "address"
        },
        {
          "indexed": false,
          "internalType": "uint256",
          "name": "window",
          "type": "uint256"
        }
      ],
      "name": "PlanAdded",
      "type": "event"
    },
    {
      "anonymous": false,
      "inputs": [
        {
          "indexed": true,
          "internalType": "uint256",
          "name": "index",
          "type": "uint256"
        }
      ],
      "name": "PlanRemoved",
      "type": "event"
    },
    {
      "inputs": [],
      "name": "payee",
      "outputs": [
        {
          "internalType": "address",
          "name": "",
          "type": "address"
        }
      ],
      "stateMutability": "view",
      "type": "function"
    },
    {
      "inputs": [
        {
          "internalType": "uint256",
          "name": "",
          "type": "uint256"
        }
      ],
      "name": "plans",
      "outputs": [
        {
          "internalType": "uint256",
          "name": "pricePerExecution",
          "type": "uint256"
        },
        {
          "internalType": "uint256",
          "name": "window",
          "type": "uint256"
        },
        {
          "internalType": "contract IERC677",
          "name": "token",
          "type": "address"
        },
        {
          "internalType": "bool",
          "name": "active",
          "type": "bool"
        }
      ],
      "stateMutability": "view",
      "type": "function"
    },
    {
      "inputs": [
        {
          "internalType": "address",
          "name": "",
          "type": "address"
        },
        {
          "internalType": "uint256",
          "name": "",
          "type": "uint256"
        }
      ],
      "name": "remainingExecutions",
      "outputs": [
        {
          "internalType": "uint256",
          "name": "",
          "type": "uint256"
        }
      ],
      "stateMutability": "view",
      "type": "function"
    },
    {
      "inputs": [],
      "name": "serviceProvider",
      "outputs": [
        {
          "internalType": "address",
          "name": "",
          "type": "address"
        }
      ],
      "stateMutability": "view",
      "type": "function"
    },
    {
      "inputs": [
        {
          "internalType": "address",
          "name": "serviceProvider_",
          "type": "address"
        },
        {
          "internalType": "address",
          "name": "payee_",
          "type": "address"
        }
      ],
      "name": "initialize",
      "outputs": [],
      "stateMutability": "nonpayable",
      "type": "function"
    },
    {
      "inputs": [
        {
          "internalType": "uint256",
          "name": "price",
          "type": "uint256"
        },
        {
          "internalType": "uint256",
          "name": "window",
          "type": "uint256"
        },
        {
          "internalType": "contract IERC677",
          "name": "token",
          "type": "address"
        }
      ],
      "name": "addPlan",
      "outputs": [],
      "stateMutability": "nonpayable",
      "type": "function"
    },
    {
      "inputs": [
        {
          "internalType": "uint256",
          "name": "plan",
          "type": "uint256"
        }
      ],
      "name": "removePlan",
      "outputs": [],
      "stateMutability": "nonpayable",
      "type": "function"
    },
    {
      "inputs": [],
      "name": "plansCount",
      "outputs": [
        {
          "internalType": "uint256",
          "name": "",
          "type": "uint256"
        }
      ],
      "stateMutability": "view",
      "type": "function"
    },
    {
      "inputs": [
        {
          "internalType": "address",
          "name": "payee_",
          "type": "address"
        }
      ],
      "name": "setPayee",
      "outputs": [],
      "stateMutability": "nonpayable",
      "type": "function"
    },
    {
      "inputs": [
        {
          "internalType": "uint256",
          "name": "plan",
          "type": "uint256"
        },
        {
          "internalType": "uint256",
          "name": "quantity",
          "type": "uint256"
        }
      ],
      "name": "purchase",
      "outputs": [],
      "stateMutability": "payable",
      "type": "function"
    },
    {
      "inputs": [
        {
          "internalType": "address",
          "name": "from",
          "type": "address"
        },
        {
          "internalType": "uint256",
          "name": "amount",
          "type": "uint256"
        },
        {
          "internalType": "bytes",
          "name": "data",
          "type": "bytes"
        }
      ],
      "name": "tokenFallback",
      "outputs": [
        {
          "internalType": "bool",
          "name": "",
          "type": "bool"
        }
      ],
      "stateMutability": "nonpayable",
      "type": "function"
    },
    {
      "inputs": [
        {
          "internalType": "bytes32",
          "name": "id",
          "type": "bytes32"
        }
      ],
      "name": "getState",
      "outputs": [
        {
          "internalType": "enum OneShotSchedule.ExecutionState",
          "name": "",
          "type": "uint8"
        }
      ],
      "stateMutability": "view",
      "type": "function"
    },
    {
      "inputs": [
        {
          "components": [
            {
              "internalType": "address",
              "name": "requestor",
              "type": "address"
            },
            {
              "internalType": "uint256",
              "name": "plan",
              "type": "uint256"
            },
            {
              "internalType": "address",
              "name": "to",
              "type": "address"
            },
            {
              "internalType": "bytes",
              "name": "data",
              "type": "bytes"
            },
            {
              "internalType": "uint256",
              "name": "gas",
              "type": "uint256"
            },
            {
              "internalType": "uint256",
              "name": "timestamp",
              "type": "uint256"
            },
            {
              "internalType": "uint256",
              "name": "value",
              "type": "uint256"
            },
            {
              "internalType": "enum OneShotSchedule.ExecutionState",
              "name": "state",
              "type": "uint8"
            }
          ],
          "internalType": "struct OneShotSchedule.Execution",
          "name": "execution",
          "type": "tuple"
        }
      ],
      "name": "hash",
      "outputs": [
        {
          "internalType": "bytes32",
          "name": "",
          "type": "bytes32"
        }
      ],
      "stateMutability": "pure",
      "type": "function"
    },
    {
      "inputs": [
        {
          "internalType": "uint256",
          "name": "plan",
          "type": "uint256"
        },
        {
          "internalType": "address",
          "name": "to",
          "type": "address"
        },
        {
          "internalType": "bytes",
          "name": "data",
          "type": "bytes"
        },
        {
          "internalType": "uint256",
          "name": "gas",
          "type": "uint256"
        },
        {
          "internalType": "uint256",
          "name": "timestamp",
          "type": "uint256"
        }
      ],
      "name": "schedule",
      "outputs": [
        {
          "internalType": "bytes32",
          "name": "id",
          "type": "bytes32"
        }
      ],
      "stateMutability": "payable",
      "type": "function"
    },
    {
      "inputs": [
        {
          "internalType": "bytes[]",
          "name": "data",
          "type": "bytes[]"
        }
      ],
      "name": "batchSchedule",
      "outputs": [
        {
          "internalType": "bytes32[]",
          "name": "ids",
          "type": "bytes32[]"
        }
      ],
      "stateMutability": "payable",
      "type": "function"
    },
    {
      "inputs": [
        {
          "internalType": "bytes32",
          "name": "id",
          "type": "bytes32"
        }
      ],
      "name": "getExecutionById",
      "outputs": [
        {
          "components": [
            {
              "internalType": "address",
              "name": "requestor",
              "type": "address"
            },
            {
              "internalType": "uint256",
              "name": "plan",
              "type": "uint256"
            },
            {
              "internalType": "address",
              "name": "to",
              "type": "address"
            },
            {
              "internalType": "bytes",
              "name": "data",
              "type": "bytes"
            },
            {
              "internalType": "uint256",
              "name": "gas",
              "type": "uint256"
            },
            {
              "internalType": "uint256",
              "name": "timestamp",
              "type": "uint256"
            },
            {
              "internalType": "uint256",
              "name": "value",
              "type": "uint256"
            },
            {
              "internalType": "enum OneShotSchedule.ExecutionState",
              "name": "state",
              "type": "uint8"
            }
          ],
          "internalType": "struct OneShotSchedule.Execution",
          "name": "execution",
          "type": "tuple"
        }
      ],
      "stateMutability": "view",
      "type": "function"
    },
    {
      "inputs": [
        {
          "internalType": "address",
          "name": "requestor",
          "type": "address"
        }
      ],
      "name": "executionsByRequestorCount",
      "outputs": [
        {
          "internalType": "uint256",
          "name": "",
          "type": "uint256"
        }
      ],
      "stateMutability": "view",
      "type": "function"
    },
    {
      "inputs": [
        {
          "internalType": "address",
          "name": "requestor",
          "type": "address"
        },
        {
          "internalType": "uint256",
          "name": "fromIndex",
          "type": "uint256"
        },
        {
          "internalType": "uint256",
          "name": "toIndex",
          "type": "uint256"
        }
      ],
      "name": "getExecutionsByRequestor",
      "outputs": [
        {
          "components": [
            {
              "internalType": "address",
              "name": "requestor",
              "type": "address"
            },
            {
              "internalType": "uint256",
              "name": "plan",
              "type": "uint256"
            },
            {
              "internalType": "address",
              "name": "to",
              "type": "address"
            },
            {
              "internalType": "bytes",
              "name": "data",
              "type": "bytes"
            },
            {
              "internalType": "uint256",
              "name": "gas",
              "type": "uint256"
            },
            {
              "internalType": "uint256",
              "name": "timestamp",
              "type": "uint256"
            },
            {
              "internalType": "uint256",
              "name": "value",
              "type": "uint256"
            },
            {
              "internalType": "enum OneShotSchedule.ExecutionState",
              "name": "state",
              "type": "uint8"
            }
          ],
          "internalType": "struct OneShotSchedule.Execution[]",
          "name": "executionList",
          "type": "tuple[]"
        }
      ],
      "stateMutability": "view",
      "type": "function"
    },
    {
      "inputs": [
        {
          "internalType": "bytes32",
          "name": "id",
          "type": "bytes32"
        }
      ],
      "name": "cancelScheduling",
      "outputs": [],
      "stateMutability": "nonpayable",
      "type": "function"
    },
    {
      "inputs": [
        {
          "internalType": "bytes32",
          "name": "id",
          "type": "bytes32"
        }
      ],
      "name": "execute",
      "outputs": [],
      "stateMutability": "nonpayable",
      "type": "function"
    },
    {
      "inputs": [
        {
          "internalType": "bytes[]",
          "name": "data",
          "type": "bytes[]"
        }
      ],
      "name": "multicall",
      "outputs": [
        {
          "internalType": "bytes[]",
          "name": "results",
          "type": "bytes[]"
        }
      ],
      "stateMutability": "nonpayable",
      "type": "function"
    }
  ],
  "bytecode": "0x60a06040523073ffffffffffffffffffffffffffffffffffffffff1660809073ffffffffffffffffffffffffffffffffffffffff166c010000000000000000000000000281525034801561005257600080fd5b506080516c010000000000000000000000009004614fa661007e60003960006117290152614fa66000f3fe608060405260043610610147576000357c01000000000000000000000000000000000000000000000000000000009004806393a1b8d9116100c8578063c0ee0b8a1161008c578063c0ee0b8a14610421578063dcd90b8f1461045e578063dd437ac21461049b578063debd4c3d146104d8578063e751f27114610501578063eb6f263d1461052a57610147565b806393a1b8d91461030c578063ac9650d81461033c578063ae90b21314610379578063b1620616146103a4578063b395bb4b146103e457610147565b806358fa1d9d1161010f57806358fa1d9d1461022d578063591c613c1461026a57806370876c981461029557806373eab687146102b15780638d69e95e146102e157610147565b806309648a9d1461014c57806328e550e614610189578063410459ad146101b2578063485cc955146101db57806354ceba0a14610204575b600080fd5b34801561015857600080fd5b50610173600480360381019061016e919061378d565b610567565b6040516101809190614637565b60405180910390f35b34801561019557600080fd5b506101b060048036038101906101ab91906137f7565b610876565b005b3480156101be57600080fd5b506101d960048036038101906101d491906135c3565b610a31565b005b3480156101e757600080fd5b5061020260048036038101906101fd91906135ec565b610b75565b005b34801561021057600080fd5b5061022b6004803603810190610226919061378d565b610dba565b005b34801561023957600080fd5b50610254600480360381019061024f91906137b6565b6110a1565b604051610261919061461c565b60405180910390f35b34801561027657600080fd5b5061027f6110f9565b60405161028c9190614914565b60405180910390f35b6102af60048036038101906102aa9190613953565b611106565b005b6102cb60048036038101906102c691906138c1565b6113b1565b6040516102d8919061461c565b60405180910390f35b3480156102ed57600080fd5b506102f66114af565b604051610303919061447a565b60405180910390f35b6103266004803603810190610321919061371f565b6114d5565b604051610333919061456b565b60405180910390f35b34801561034857600080fd5b50610363600480360381019061035e919061371f565b611725565b604051610370919061458d565b60405180910390f35b34801561038557600080fd5b5061038e61192a565b60405161039b919061447a565b60405180910390f35b3480156103b057600080fd5b506103cb60048036038101906103c691906137f7565b611950565b6040516103db949392919061498f565b60405180910390f35b3480156103f057600080fd5b5061040b60048036038101906104069190613628565b6119bd565b6040516104189190614914565b60405180910390f35b34801561042d57600080fd5b5061044860048036038101906104439190613664565b6119e2565b60405161045591906145d1565b60405180910390f35b34801561046a57600080fd5b50610485600480360381019061048091906136d0565b611b37565b60405161049291906145af565b60405180910390f35b3480156104a757600080fd5b506104c260048036038101906104bd919061378d565b611d52565b6040516104cf91906148f2565b60405180910390f35b3480156104e457600080fd5b506104ff60048036038101906104fa919061398f565b611ff1565b005b34801561050d57600080fd5b506105286004803603810190610523919061378d565b6121b5565b005b34801561053657600080fd5b50610551600480360381019061054c91906135c3565b6128d2565b60405161055e9190614914565b60405180910390f35b60008060376000848152602001908152602001600020604051806101000160405290816000820160009054906101000a900473ffffffffffffffffffffffffffffffffffffffff1673ffffffffffffffffffffffffffffffffffffffff1673ffffffffffffffffffffffffffffffffffffffff168152602001600182015481526020016002820160009054906101000a900473ffffffffffffffffffffffffffffffffffffffff1673ffffffffffffffffffffffffffffffffffffffff1673ffffffffffffffffffffffffffffffffffffffff16815260200160038201805461064f90614d7a565b80601f016020809104026020016040519081016040528092919081815260200182805461067b90614d7a565b80156106c85780601f1061069d576101008083540402835291602001916106c8565b820191906000526020600020905b8154815290600101906020018083116106ab57829003601f168201915b505050505081526020016004820154815260200160058201548152602001600682015481526020016007820160009054906101000a900460ff16600681111561073a577f4e487b7100000000000000000000000000000000000000000000000000000000600052602160045260246000fd5b6006811115610772577f4e487b7100000000000000000000000000000000000000000000000000000000600052602160045260246000fd5b815250509050600160068111156107b2577f4e487b7100000000000000000000000000000000000000000000000000000000600052602160045260246000fd5b8160e0015160068111156107ef577f4e487b7100000000000000000000000000000000000000000000000000000000600052602160045260246000fd5b1480156108595750426035826020015181548110610836577f4e487b7100000000000000000000000000000000000000000000000000000000600052603260045260246000fd5b9060005260206000209060030201600101548260a001516108579190614b95565b105b15610868576004915050610871565b8060e001519150505b919050565b603360009054906101000a900473ffffffffffffffffffffffffffffffffffffffff1673ffffffffffffffffffffffffffffffffffffffff163373ffffffffffffffffffffffffffffffffffffffff1614610906576040517f08c379a00000000000000000000000000000000000000000000000000000000081526004016108fd906148d2565b60405180910390fd5b60358181548110610940577f4e487b7100000000000000000000000000000000000000000000000000000000600052603260045260246000fd5b906000526020600020906003020160020160149054906101000a900460ff1661099e576040517f08c379a000000000000000000000000000000000000000000000000000000000815260040161099590614652565b60405180910390fd5b6000603582815481106109da577f4e487b7100000000000000000000000000000000000000000000000000000000600052603260045260246000fd5b906000526020600020906003020160020160146101000a81548160ff021916908315150217905550807e4c797e6739331fc6d5c1ebdf112d63e6a68297fdfd28f35f54561e28fd868d60405160405180910390a250565b603360009054906101000a900473ffffffffffffffffffffffffffffffffffffffff1673ffffffffffffffffffffffffffffffffffffffff163373ffffffffffffffffffffffffffffffffffffffff1614610ac1576040517f08c379a0000000000000000000000000000000000000000000000000000000008152600401610ab8906148d2565b60405180910390fd5b600073ffffffffffffffffffffffffffffffffffffffff168173ffffffffffffffffffffffffffffffffffffffff161415610b31576040517f08c379a0000000000000000000000000000000000000000000000000000000008152600401610b2890614852565b60405180910390fd5b80603460006101000a81548173ffffffffffffffffffffffffffffffffffffffff021916908373ffffffffffffffffffffffffffffffffffffffff16021790555050565b600060019054906101000a900460ff1680610b9b575060008054906101000a900460ff16155b610bda576040517f08c379a0000000000000000000000000000000000000000000000000000000008152600401610bd190614792565b60405180910390fd5b60008060019054906101000a900460ff161590508015610c2a576001600060016101000a81548160ff02191690831515021790555060016000806101000a81548160ff0219169083151502179055505b610c3261291e565b600073ffffffffffffffffffffffffffffffffffffffff168273ffffffffffffffffffffffffffffffffffffffff161415610ca2576040517f08c379a0000000000000000000000000000000000000000000000000000000008152600401610c9990614852565b60405180910390fd5b600073ffffffffffffffffffffffffffffffffffffffff168373ffffffffffffffffffffffffffffffffffffffff161415610d12576040517f08c379a0000000000000000000000000000000000000000000000000000000008152600401610d09906147f2565b60405180910390fd5b82603360006101000a81548173ffffffffffffffffffffffffffffffffffffffff021916908373ffffffffffffffffffffffffffffffffffffffff16021790555081603460006101000a81548173ffffffffffffffffffffffffffffffffffffffff021916908373ffffffffffffffffffffffffffffffffffffffff1602179055508015610db55760008060016101000a81548160ff0219169083151502179055505b505050565b600060376000838152602001908152602001600020905060016006811115610e0b577f4e487b7100000000000000000000000000000000000000000000000000000000600052602160045260246000fd5b610e1483610567565b6006811115610e4c577f4e487b7100000000000000000000000000000000000000000000000000000000600052602160045260246000fd5b14610e8c576040517f08c379a0000000000000000000000000000000000000000000000000000000008152600401610e83906146b2565b60405180910390fd5b8060000160009054906101000a900473ffffffffffffffffffffffffffffffffffffffff1673ffffffffffffffffffffffffffffffffffffffff163373ffffffffffffffffffffffffffffffffffffffff1614610f1e576040517f08c379a0000000000000000000000000000000000000000000000000000000008152600401610f15906148d2565b60405180910390fd5b60068160070160006101000a81548160ff02191690836006811115610f6c577f4e487b7100000000000000000000000000000000000000000000000000000000600052602160045260246000fd5b02179055506001603660008360000160009054906101000a900473ffffffffffffffffffffffffffffffffffffffff1673ffffffffffffffffffffffffffffffffffffffff1673ffffffffffffffffffffffffffffffffffffffff1681526020019081526020016000206000836001015481526020019081526020016000206000828254610ffa9190614b95565b92505081905550817fa9492956e3406e5fabb393f5ac68540da3bb42721d741519c0eadd27a15d83c060405160405180910390a28060000160009054906101000a900473ffffffffffffffffffffffffffffffffffffffff1673ffffffffffffffffffffffffffffffffffffffff166108fc82600601549081150290604051600060405180830381858888f1935050505015801561109c573d6000803e3d6000fd5b505050565b6000816000015182602001518360400151846060015185608001518660a001518760c001516040516020016110dc97969594939291906144f5565b604051602081830303815290604052805190602001209050919050565b6000603580549050905090565b600073ffffffffffffffffffffffffffffffffffffffff1660358381548110611158577f4e487b7100000000000000000000000000000000000000000000000000000000600052603260045260246000fd5b906000526020600020906003020160020160009054906101000a900473ffffffffffffffffffffffffffffffffffffffff1673ffffffffffffffffffffffffffffffffffffffff161461135657600034146111e8576040517f08c379a00000000000000000000000000000000000000000000000000000000081526004016111df906147d2565b60405180910390fd5b6111f33383836129ff565b6035828154811061122d577f4e487b7100000000000000000000000000000000000000000000000000000000600052603260045260246000fd5b906000526020600020906003020160020160009054906101000a900473ffffffffffffffffffffffffffffffffffffffff1673ffffffffffffffffffffffffffffffffffffffff166323b872dd33306112868686612b53565b6040518463ffffffff167c01000000000000000000000000000000000000000000000000000000000281526004016112c093929190614495565b602060405180830381600087803b1580156112da57600080fd5b505af11580156112ee573d6000803e3d6000fd5b505050506040513d601f19601f820116820180604052508101906113129190613764565b611351576040517f08c379a000000000000000000000000000000000000000000000000000000000815260040161134890614752565b60405180910390fd5b6113ad565b6113608282612b53565b34146113a1576040517f08c379a000000000000000000000000000000000000000000000000000000000815260040161139890614772565b60405180910390fd5b6113ac3383836129ff565b5b5050565b6000806040518061010001604052803373ffffffffffffffffffffffffffffffffffffffff1681526020018981526020018873ffffffffffffffffffffffffffffffffffffffff16815260200187878080601f016020809104026020016040519081016040528093929190818152602001838380828437600081840152601f19601f82011690508083019250505050505050815260200185815260200184815260200134815260200160016006811115611494577f4e487b7100000000000000000000000000000000000000000000000000000000600052602160045260246000fd5b81525090506114a281612bb4565b9150509695505050505050565b603360009054906101000a900473ffffffffffffffffffffffffffffffffffffffff1681565b606060008383905067ffffffffffffffff81111561151c577f4e487b7100000000000000000000000000000000000000000000000000000000600052604160045260246000fd5b60405190808252806020026020018201604052801561154a5781602001602082028036833780820191505090505b50915060005b848490508110156116db576000806000806000808a8a8881811061159d577f4e487b7100000000000000000000000000000000000000000000000000000000600052603260045260246000fd5b90506020028101906115af91906149d4565b8101906115bc9190613820565b95509550955095509550955080886115d49190614b95565b975061167d6040518061010001604052803373ffffffffffffffffffffffffffffffffffffffff1681526020018881526020018773ffffffffffffffffffffffffffffffffffffffff16815260200186815260200185815260200184815260200183815260200160016006811115611675577f4e487b7100000000000000000000000000000000000000000000000000000000600052602160045260246000fd5b815250612bb4565b8988815181106116b6577f4e487b7100000000000000000000000000000000000000000000000000000000600052603260045260246000fd5b60200260200101818152505050505050505080806116d390614dac565b915050611550565b5034811461171e576040517f08c379a0000000000000000000000000000000000000000000000000000000008152600401611715906147b2565b60405180910390fd5b5092915050565b60607f000000000000000000000000000000000000000000000000000000000000000073ffffffffffffffffffffffffffffffffffffffff163073ffffffffffffffffffffffffffffffffffffffff16141561178057600080fd5b8282905067ffffffffffffffff8111156117c3577f4e487b7100000000000000000000000000000000000000000000000000000000600052604160045260246000fd5b6040519080825280602002602001820160405280156117f657816020015b60608152602001906001900390816117e15790505b50905060005b83839050811015611923576000803073ffffffffffffffffffffffffffffffffffffffff1686868581811061185a577f4e487b7100000000000000000000000000000000000000000000000000000000600052603260045260246000fd5b905060200281019061186c91906149d4565b60405161187a92919061444a565b600060405180830381855af49150503d80600081146118b5576040519150601f19603f3d011682016040523d82523d6000602084013e6118ba565b606091505b5091509150816118c957600080fd5b80848481518110611903577f4e487b7100000000000000000000000000000000000000000000000000000000600052603260045260246000fd5b60200260200101819052505050808061191b90614dac565b9150506117fc565b5092915050565b603460009054906101000a900473ffffffffffffffffffffffffffffffffffffffff1681565b6035818154811061196057600080fd5b90600052602060002090600302016000915090508060000154908060010154908060020160009054906101000a900473ffffffffffffffffffffffffffffffffffffffff16908060020160149054906101000a900460ff16905084565b6036602052816000526040600020602052806000526040600020600091509150505481565b600080600084848101906119f69190613953565b915091503373ffffffffffffffffffffffffffffffffffffffff1660358381548110611a4b577f4e487b7100000000000000000000000000000000000000000000000000000000600052603260045260246000fd5b906000526020600020906003020160020160009054906101000a900473ffffffffffffffffffffffffffffffffffffffff1673ffffffffffffffffffffffffffffffffffffffff1614611ad3576040517f08c379a0000000000000000000000000000000000000000000000000000000008152600401611aca90614712565b60405180910390fd5b611add8282612b53565b8614611b1e576040517f08c379a0000000000000000000000000000000000000000000000000000000008152600401611b1590614772565b60405180910390fd5b611b298783836129ff565b600192505050949350505050565b606081603860008673ffffffffffffffffffffffffffffffffffffffff1673ffffffffffffffffffffffffffffffffffffffff1681526020019081526020016000208054905010158015611b8a57508183105b611bc9576040517f08c379a0000000000000000000000000000000000000000000000000000000008152600401611bc090614872565b60405180910390fd5b8282611bd59190614c45565b67ffffffffffffffff811115611c14577f4e487b7100000000000000000000000000000000000000000000000000000000600052604160045260246000fd5b604051908082528060200260200182016040528015611c4d57816020015b611c3a61320a565b815260200190600190039081611c325790505b50905060008390505b82811015611d4a57611ce8603860008773ffffffffffffffffffffffffffffffffffffffff1673ffffffffffffffffffffffffffffffffffffffff1681526020019081526020016000208281548110611cd8577f4e487b7100000000000000000000000000000000000000000000000000000000600052603260045260246000fd5b9060005260206000200154611d52565b828583611cf59190614c45565b81518110611d2c577f4e487b7100000000000000000000000000000000000000000000000000000000600052603260045260246000fd5b60200260200101819052508080611d4290614dac565b915050611c56565b509392505050565b611d5a61320a565b60376000838152602001908152602001600020604051806101000160405290816000820160009054906101000a900473ffffffffffffffffffffffffffffffffffffffff1673ffffffffffffffffffffffffffffffffffffffff1673ffffffffffffffffffffffffffffffffffffffff168152602001600182015481526020016002820160009054906101000a900473ffffffffffffffffffffffffffffffffffffffff1673ffffffffffffffffffffffffffffffffffffffff1673ffffffffffffffffffffffffffffffffffffffff168152602001600382018054611e3f90614d7a565b80601f0160208091040260200160405190810160405280929190818152602001828054611e6b90614d7a565b8015611eb85780601f10611e8d57610100808354040283529160200191611eb8565b820191906000526020600020905b815481529060010190602001808311611e9b57829003601f168201915b505050505081526020016004820154815260200160058201548152602001600682015481526020016007820160009054906101000a900460ff166006811115611f2a577f4e487b7100000000000000000000000000000000000000000000000000000000600052602160045260246000fd5b6006811115611f62577f4e487b7100000000000000000000000000000000000000000000000000000000600052602160045260246000fd5b815250509050611f7182610567565b8160e001906006811115611fae577f4e487b7100000000000000000000000000000000000000000000000000000000600052602160045260246000fd5b90816006811115611fe8577f4e487b7100000000000000000000000000000000000000000000000000000000600052602160045260246000fd5b81525050919050565b603360009054906101000a900473ffffffffffffffffffffffffffffffffffffffff1673ffffffffffffffffffffffffffffffffffffffff163373ffffffffffffffffffffffffffffffffffffffff1614612081576040517f08c379a0000000000000000000000000000000000000000000000000000000008152600401612078906148d2565b60405180910390fd5b603560405180608001604052808581526020018481526020018373ffffffffffffffffffffffffffffffffffffffff168152602001600115158152509080600181540180825580915050600190039060005260206000209060030201600090919091909150600082015181600001556020820151816001015560408201518160020160006101000a81548173ffffffffffffffffffffffffffffffffffffffff021916908373ffffffffffffffffffffffffffffffffffffffff16021790555060608201518160020160146101000a81548160ff021916908315150217905550505060016035805490506121759190614c45565b7f398c82e2ccf5aaee72a60b95d6543133e8fc843e113441e9a2d767274c8d8eef8483856040516121a89392919061492f565b60405180910390a2505050565b600260015414156121fb576040517f08c379a00000000000000000000000000000000000000000000000000000000081526004016121f2906148b2565b60405180910390fd5b6002600181905550600060376000838152602001908152602001600020905060016006811115612254577f4e487b7100000000000000000000000000000000000000000000000000000000600052602160045260246000fd5b8160070160009054906101000a900460ff16600681111561229e577f4e487b7100000000000000000000000000000000000000000000000000000000600052602160045260246000fd5b146122de576040517f08c379a00000000000000000000000000000000000000000000000000000000081526004016122d590614732565b60405180910390fd5b42603582600101548154811061231d577f4e487b7100000000000000000000000000000000000000000000000000000000600052603260045260246000fd5b906000526020600020906003020160010154826005015461233e9190614c45565b1061237e576040517f08c379a000000000000000000000000000000000000000000000000000000000815260040161237590614832565b60405180910390fd5b600460068111156123b8577f4e487b7100000000000000000000000000000000000000000000000000000000600052602160045260246000fd5b6123c183610567565b60068111156123f9577f4e487b7100000000000000000000000000000000000000000000000000000000600052602160045260246000fd5b141561240e5761240882612fbd565b506128c8565b6000808260020160009054906101000a900473ffffffffffffffffffffffffffffffffffffffff1673ffffffffffffffffffffffffffffffffffffffff1683600401548460060154856003016040516124679190614463565b600060405180830381858888f193505050503d80600081146124a5576040519150601f19603f3d011682016040523d82523d6000602084013e6124aa565b606091505b5091509150837fbbb9534b79cda5e36feb34cc697d5e728db1a530363e152c539fb70b3f75f7ac83836040516124e19291906145ec565b60405180910390a281156125475760028360070160006101000a81548160ff0219169083600681111561253d577f4e487b7100000000000000000000000000000000000000000000000000000000600052602160045260246000fd5b021790555061259b565b60038360070160006101000a81548160ff02191690836006811115612595577f4e487b7100000000000000000000000000000000000000000000000000000000600052602160045260246000fd5b02179055505b600073ffffffffffffffffffffffffffffffffffffffff1660358460010154815481106125f1577f4e487b7100000000000000000000000000000000000000000000000000000000600052603260045260246000fd5b906000526020600020906003020160020160009054906101000a900473ffffffffffffffffffffffffffffffffffffffff1673ffffffffffffffffffffffffffffffffffffffff161461280b57603583600101548154811061267c577f4e487b7100000000000000000000000000000000000000000000000000000000600052603260045260246000fd5b906000526020600020906003020160020160009054906101000a900473ffffffffffffffffffffffffffffffffffffffff1673ffffffffffffffffffffffffffffffffffffffff1663a9059cbb603460009054906101000a900473ffffffffffffffffffffffffffffffffffffffff16603586600101548154811061272a577f4e487b7100000000000000000000000000000000000000000000000000000000600052603260045260246000fd5b9060005260206000209060030201600001546040518363ffffffff167c01000000000000000000000000000000000000000000000000000000000281526004016127759291906144cc565b602060405180830381600087803b15801561278f57600080fd5b505af11580156127a3573d6000803e3d6000fd5b505050506040513d601f19601f820116820180604052508101906127c79190613764565b612806576040517f08c379a00000000000000000000000000000000000000000000000000000000081526004016127fd90614692565b60405180910390fd5b6128c4565b603460009054906101000a900473ffffffffffffffffffffffffffffffffffffffff1673ffffffffffffffffffffffffffffffffffffffff166108fc6035856001015481548110612885577f4e487b7100000000000000000000000000000000000000000000000000000000600052603260045260246000fd5b9060005260206000209060030201600001549081150290604051600060405180830381858888f193505050501580156128c2573d6000803e3d6000fd5b505b5050505b6001808190555050565b6000603860008373ffffffffffffffffffffffffffffffffffffffff1673ffffffffffffffffffffffffffffffffffffffff168152602001908152602001600020805490509050919050565b600060019054906101000a900460ff1680612944575060008054906101000a900460ff16155b612983576040517f08c379a000000000000000000000000000000000000000000000000000000000815260040161297a90614792565b60405180910390fd5b60008060019054906101000a900460ff1615905080156129d3576001600060016101000a81548160ff02191690831515021790555060016000806101000a81548160ff0219169083151502179055505b6129db61312a565b80156129fc5760008060016101000a81548160ff0219169083151502179055505b50565b60358281548110612a39577f4e487b7100000000000000000000000000000000000000000000000000000000600052603260045260246000fd5b906000526020600020906003020160020160149054906101000a900460ff16612a97576040517f08c379a0000000000000000000000000000000000000000000000000000000008152600401612a8e90614892565b60405180910390fd5b80603660008573ffffffffffffffffffffffffffffffffffffffff1673ffffffffffffffffffffffffffffffffffffffff16815260200190815260200160002060008481526020019081526020016000206000828254612af79190614b95565b925050819055508273ffffffffffffffffffffffffffffffffffffffff167f1d00f3ff8ba6a0ac98e7c747985ac34f1f706f5d0fa06abaa4c090a60598a65d8383604051612b46929190614966565b60405180910390a2505050565b600060358381548110612b8f577f4e487b7100000000000000000000000000000000000000000000000000000000600052603260045260246000fd5b90600052602060002090600302016000015482612bac9190614beb565b905092915050565b6000816000015173ffffffffffffffffffffffffffffffffffffffff163373ffffffffffffffffffffffffffffffffffffffff1614612c28576040517f08c379a0000000000000000000000000000000000000000000000000000000008152600401612c1f90614672565b60405180910390fd5b6000603660003373ffffffffffffffffffffffffffffffffffffffff1673ffffffffffffffffffffffffffffffffffffffff1681526020019081526020016000206000846020015181526020019081526020016000205411612cbf576040517f08c379a0000000000000000000000000000000000000000000000000000000008152600401612cb6906146d2565b60405180910390fd5b8160a00151421115612d06576040517f08c379a0000000000000000000000000000000000000000000000000000000008152600401612cfd90614812565b60405180910390fd5b612d0f826110a1565b90506000603760008381526020019081526020016000206005015414612d6a576040517f08c379a0000000000000000000000000000000000000000000000000000000008152600401612d61906146f2565b60405180910390fd5b6001603660003373ffffffffffffffffffffffffffffffffffffffff1673ffffffffffffffffffffffffffffffffffffffff1681526020019081526020016000206000846020015181526020019081526020016000206000828254612dcf9190614c45565b92505081905550816037600083815260200190815260200160002060008201518160000160006101000a81548173ffffffffffffffffffffffffffffffffffffffff021916908373ffffffffffffffffffffffffffffffffffffffff1602179055506020820151816001015560408201518160020160006101000a81548173ffffffffffffffffffffffffffffffffffffffff021916908373ffffffffffffffffffffffffffffffffffffffff1602179055506060820151816003019080519060200190612e9e9291906132b3565b506080820151816004015560a0820151816005015560c0820151816006015560e08201518160070160006101000a81548160ff02191690836006811115612f0e577f4e487b7100000000000000000000000000000000000000000000000000000000600052602160045260246000fd5b0217905550905050603860003373ffffffffffffffffffffffffffffffffffffffff1673ffffffffffffffffffffffffffffffffffffffff168152602001908152602001600020819080600181540180825580915050600190039060005260206000200160009091909190915055807fb19e7bab761c1d438a654faa449e3736081f6c0e0a0786ddd4d31853845283208360a00151604051612fb09190614914565b60405180910390a2919050565b60006037600083815260200190815260200160002090506001603660008360000160009054906101000a900473ffffffffffffffffffffffffffffffffffffffff1673ffffffffffffffffffffffffffffffffffffffff1673ffffffffffffffffffffffffffffffffffffffff168152602001908152602001600020600083600101548152602001908152602001600020600082825461305d9190614b95565b9250508190555060058160070160006101000a81548160ff021916908360068111156130b2577f4e487b7100000000000000000000000000000000000000000000000000000000600052602160045260246000fd5b02179055508060000160009054906101000a900473ffffffffffffffffffffffffffffffffffffffff1673ffffffffffffffffffffffffffffffffffffffff166108fc82600601549081150290604051600060405180830381858888f19350505050158015613125573d6000803e3d6000fd5b505050565b600060019054906101000a900460ff1680613150575060008054906101000a900460ff16155b61318f576040517f08c379a000000000000000000000000000000000000000000000000000000000815260040161318690614792565b60405180910390fd5b60008060019054906101000a900460ff1615905080156131df576001600060016101000a81548160ff02191690831515021790555060016000806101000a81548160ff0219169083151502179055505b6001808190555080156132075760008060016101000a81548160ff0219169083151502179055505b50565b604051806101000160405280600073ffffffffffffffffffffffffffffffffffffffff16815260200160008152602001600073ffffffffffffffffffffffffffffffffffffffff16815260200160608152602001600081526020016000815260200160008152602001600060068111156132ad577f4e487b7100000000000000000000000000000000000000000000000000000000600052602160045260246000fd5b81525090565b8280546132bf90614d7a565b90600052602060002090601f0160209004810192826132e15760008555613328565b82601f106132fa57805160ff1916838001178555613328565b82800160010185558215613328579182015b8281111561332757825182559160200191906001019061330c565b5b5090506133359190613339565b5090565b5b8082111561335257600081600090555060010161333a565b5090565b600061336961336484614a5c565b614a2b565b90508281526020810184848401111561338157600080fd5b61338c848285614d38565b509392505050565b6000813590506133a381614ed6565b92915050565b6000813590506133b881614eed565b92915050565b60008083601f8401126133d057600080fd5b8235905067ffffffffffffffff8111156133e957600080fd5b60208301915083602082028301111561340157600080fd5b9250929050565b60008151905061341781614f04565b92915050565b60008135905061342c81614f1b565b92915050565b60008083601f84011261344457600080fd5b8235905067ffffffffffffffff81111561345d57600080fd5b60208301915083600182028301111561347557600080fd5b9250929050565b600082601f83011261348d57600080fd5b813561349d848260208601613356565b91505092915050565b6000813590506134b581614f32565b92915050565b6000813590506134ca81614f49565b92915050565b600061010082840312156134e357600080fd5b6134ee610100614a2b565b905060006134fe84828501613394565b6000830152506020613512848285016135ae565b602083015250604061352684828501613394565b604083015250606082013567ffffffffffffffff81111561354657600080fd5b6135528482850161347c565b6060830152506080613566848285016135ae565b60808301525060a061357a848285016135ae565b60a08301525060c061358e848285016135ae565b60c08301525060e06135a2848285016134bb565b60e08301525092915050565b6000813590506135bd81614f59565b92915050565b6000602082840312156135d557600080fd5b60006135e384828501613394565b91505092915050565b600080604083850312156135ff57600080fd5b600061360d85828601613394565b925050602061361e85828601613394565b9150509250929050565b6000806040838503121561363b57600080fd5b600061364985828601613394565b925050602061365a858286016135ae565b9150509250929050565b6000806000806060858703121561367a57600080fd5b600061368887828801613394565b9450506020613699878288016135ae565b935050604085013567ffffffffffffffff8111156136b657600080fd5b6136c287828801613432565b925092505092959194509250565b6000806000606084860312156136e557600080fd5b60006136f386828701613394565b9350506020613704868287016135ae565b9250506040613715868287016135ae565b9150509250925092565b6000806020838503121561373257600080fd5b600083013567ffffffffffffffff81111561374c57600080fd5b613758858286016133be565b92509250509250929050565b60006020828403121561377657600080fd5b600061378484828501613408565b91505092915050565b60006020828403121561379f57600080fd5b60006137ad8482850161341d565b91505092915050565b6000602082840312156137c857600080fd5b600082013567ffffffffffffffff8111156137e257600080fd5b6137ee848285016134d0565b91505092915050565b60006020828403121561380957600080fd5b6000613817848285016135ae565b91505092915050565b60008060008060008060c0878903121561383957600080fd5b600061384789828a016135ae565b965050602061385889828a016133a9565b955050604087013567ffffffffffffffff81111561387557600080fd5b61388189828a0161347c565b945050606061389289828a016135ae565b93505060806138a389828a016135ae565b92505060a06138b489828a016135ae565b9150509295509295509295565b60008060008060008060a087890312156138da57600080fd5b60006138e889828a016135ae565b96505060206138f989828a01613394565b955050604087013567ffffffffffffffff81111561391657600080fd5b61392289828a01613432565b9450945050606061393589828a016135ae565b925050608061394689828a016135ae565b9150509295509295509295565b6000806040838503121561396657600080fd5b6000613974858286016135ae565b9250506020613985858286016135ae565b9150509250929050565b6000806000606084860312156139a457600080fd5b60006139b2868287016135ae565b93505060206139c3868287016135ae565b92505060406139d4868287016134a6565b9150509250925092565b60006139ea8383613b93565b60208301905092915050565b6000613a028383613bd6565b905092915050565b6000613a1683836142cc565b905092915050565b613a2781614c79565b82525050565b613a3681614c79565b82525050565b6000613a4782614ad1565b613a518185614b24565b9350613a5c83614a8c565b8060005b83811015613a8d578151613a7488826139de565b9750613a7f83614afd565b925050600181019050613a60565b5085935050505092915050565b6000613aa582614adc565b613aaf8185614b35565b935083602082028501613ac185614a9c565b8060005b85811015613afd5784840389528151613ade85826139f6565b9450613ae983614b0a565b925060208a01995050600181019050613ac5565b50829750879550505050505092915050565b6000613b1a82614ae7565b613b248185614b46565b935083602082028501613b3685614aac565b8060005b85811015613b725784840389528151613b538582613a0a565b9450613b5e83614b17565b925060208a01995050600181019050613b3a565b50829750879550505050505092915050565b613b8d81614c9d565b82525050565b613b9c81614ca9565b82525050565b613bab81614ca9565b82525050565b6000613bbd8385614b79565b9350613bca838584614d38565b82840190509392505050565b6000613be182614af2565b613beb8185614b57565b9350613bfb818560208601614d47565b613c0481614eb1565b840191505092915050565b6000613c1a82614af2565b613c248185614b68565b9350613c34818560208601614d47565b613c3d81614eb1565b840191505092915050565b60008154613c5581614d7a565b613c5f8186614b79565b94506001821660008114613c7a5760018114613c8b57613cbe565b60ff19831686528186019350613cbe565b613c9485614abc565b60005b83811015613cb657815481890152600182019150602081019050613c97565b838801955050505b50505092915050565b613cd081614d02565b82525050565b613cdf81614d26565b82525050565b613cee81614d26565b82525050565b6000613d01601c83614b84565b91507f54686520706c616e20697320616c726561647920696e616374697665000000006000830152602082019050919050565b6000613d41601183614b84565b91507f4e6f742074686520726571756573746f720000000000000000000000000000006000830152602082019050919050565b6000613d81601a83614b84565b91507f436f756c646e2774207472616e7366657220746f2070617965650000000000006000830152602082019050919050565b6000613dc1601983614b84565b91507f5472616e73616374696f6e206e6f74207363686564756c6564000000000000006000830152602082019050919050565b6000613e01601483614b84565b91507f4e6f2062616c616e636520617661696c61626c650000000000000000000000006000830152602082019050919050565b6000613e41601183614b84565b91507f416c7265616479207363686564756c65640000000000000000000000000000006000830152602082019050919050565b6000613e81600983614b84565b91507f42616420746f6b656e00000000000000000000000000000000000000000000006000830152602082019050919050565b6000613ec1601083614b84565b91507f416c7265616479206578656375746564000000000000000000000000000000006000830152602082019050919050565b6000613f01601283614b84565b91507f5061796d656e74206469642774207061737300000000000000000000000000006000830152602082019050919050565b6000613f41602f83614b84565b91507f5472616e7366657272656420616d6f756e7420646f65736e2774206d6174636860008301527f20746f74616c20707572636861736500000000000000000000000000000000006020830152604082019050919050565b6000613fa7602e83614b84565b91507f496e697469616c697a61626c653a20636f6e747261637420697320616c72656160008301527f647920696e697469616c697a65640000000000000000000000000000000000006020830152604082019050919050565b600061400d602483614b84565b91507f457865637574696f6e7320746f74616c2076616c756520646f65736e2774206d60008301527f61746368000000000000000000000000000000000000000000000000000000006020830152604082019050919050565b6000614073601f83614b84565b91507f72425443206e6f7420616363657074656420666f72207468697320706c616e006000830152602082019050919050565b60006140b3602683614b84565b91507f536572766963652070726f766964657220616464726573732063616e6e6f742060008301527f62652030783000000000000000000000000000000000000000000000000000006020830152604082019050919050565b6000614119601e83614b84565b91507f43616e6e6f74207363686564756c6520697420696e20746865207061737400006000830152602082019050919050565b6000614159600883614b84565b91507f546f6f20736f6f6e0000000000000000000000000000000000000000000000006000830152602082019050919050565b6000614199601b83614b84565b91507f506179656520616464726573732063616e6e6f742062652030783000000000006000830152602082019050919050565b60006141d9600c83614b84565b91507f4f7574206f662072616e676500000000000000000000000000000000000000006000830152602082019050919050565b6000614219600d83614b84565b91507f496e61637469766520706c616e000000000000000000000000000000000000006000830152602082019050919050565b6000614259601f83614b84565b91507f5265656e7472616e637947756172643a207265656e7472616e742063616c6c006000830152602082019050919050565b6000614299600e83614b84565b91507f4e6f7420617574686f72697a65640000000000000000000000000000000000006000830152602082019050919050565b6000610100830160008301516142e56000860182613a1e565b5060208301516142f8602086018261442c565b50604083015161430b6040860182613a1e565b50606083015184820360608601526143238282613bd6565b9150506080830151614338608086018261442c565b5060a083015161434b60a086018261442c565b5060c083015161435e60c086018261442c565b5060e083015161437160e0860182613cd6565b508091505092915050565b6000610100830160008301516143956000860182613a1e565b5060208301516143a8602086018261442c565b5060408301516143bb6040860182613a1e565b50606083015184820360608601526143d38282613bd6565b91505060808301516143e8608086018261442c565b5060a08301516143fb60a086018261442c565b5060c083015161440e60c086018261442c565b5060e083015161442160e0860182613cd6565b508091505092915050565b61443581614cf8565b82525050565b61444481614cf8565b82525050565b6000614457828486613bb1565b91508190509392505050565b600061446f8284613c48565b915081905092915050565b600060208201905061448f6000830184613a2d565b92915050565b60006060820190506144aa6000830186613a2d565b6144b76020830185613a2d565b6144c4604083018461443b565b949350505050565b60006040820190506144e16000830185613a2d565b6144ee602083018461443b565b9392505050565b600060e08201905061450a600083018a613a2d565b614517602083018961443b565b6145246040830188613a2d565b81810360608301526145368187613c0f565b9050614545608083018661443b565b61455260a083018561443b565b61455f60c083018461443b565b98975050505050505050565b600060208201905081810360008301526145858184613a3c565b905092915050565b600060208201905081810360008301526145a78184613a9a565b905092915050565b600060208201905081810360008301526145c98184613b0f565b905092915050565b60006020820190506145e66000830184613b84565b92915050565b60006040820190506146016000830185613b84565b81810360208301526146138184613c0f565b90509392505050565b60006020820190506146316000830184613ba2565b92915050565b600060208201905061464c6000830184613ce5565b92915050565b6000602082019050818103600083015261466b81613cf4565b9050919050565b6000602082019050818103600083015261468b81613d34565b9050919050565b600060208201905081810360008301526146ab81613d74565b9050919050565b600060208201905081810360008301526146cb81613db4565b9050919050565b600060208201905081810360008301526146eb81613df4565b9050919050565b6000602082019050818103600083015261470b81613e34565b9050919050565b6000602082019050818103600083015261472b81613e74565b9050919050565b6000602082019050818103600083015261474b81613eb4565b9050919050565b6000602082019050818103600083015261476b81613ef4565b9050919050565b6000602082019050818103600083015261478b81613f34565b9050919050565b600060208201905081810360008301526147ab81613f9a565b9050919050565b600060208201905081810360008301526147cb81614000565b9050919050565b600060208201905081810360008301526147eb81614066565b9050919050565b6000602082019050818103600083015261480b816140a6565b9050919050565b6000602082019050818103600083015261482b8161410c565b9050919050565b6000602082019050818103600083015261484b8161414c565b9050919050565b6000602082019050818103600083015261486b8161418c565b9050919050565b6000602082019050818103600083015261488b816141cc565b9050919050565b600060208201905081810360008301526148ab8161420c565b9050919050565b600060208201905081810360008301526148cb8161424c565b9050919050565b600060208201905081810360008301526148eb8161428c565b9050919050565b6000602082019050818103600083015261490c818461437c565b905092915050565b6000602082019050614929600083018461443b565b92915050565b6000606082019050614944600083018661443b565b6149516020830185613a2d565b61495e604083018461443b565b949350505050565b600060408201905061497b600083018561443b565b614988602083018461443b565b9392505050565b60006080820190506149a4600083018761443b565b6149b1602083018661443b565b6149be6040830185613cc7565b6149cb6060830184613b84565b95945050505050565b600080833560016020038436030381126149ed57600080fd5b80840192508235915067ffffffffffffffff821115614a0b57600080fd5b602083019250600182023603831315614a2357600080fd5b509250929050565b6000604051905081810181811067ffffffffffffffff82111715614a5257614a51614e82565b5b8060405250919050565b600067ffffffffffffffff821115614a7757614a76614e82565b5b601f19601f8301169050602081019050919050565b6000819050602082019050919050565b6000819050602082019050919050565b6000819050602082019050919050565b60008190508160005260206000209050919050565b600081519050919050565b600081519050919050565b600081519050919050565b600081519050919050565b6000602082019050919050565b6000602082019050919050565b6000602082019050919050565b600082825260208201905092915050565b600082825260208201905092915050565b600082825260208201905092915050565b600082825260208201905092915050565b600082825260208201905092915050565b600081905092915050565b600082825260208201905092915050565b6000614ba082614cf8565b9150614bab83614cf8565b9250827fffffffffffffffffffffffffffffffffffffffffffffffffffffffffffffffff03821115614be057614bdf614df5565b5b828201905092915050565b6000614bf682614cf8565b9150614c0183614cf8565b9250817fffffffffffffffffffffffffffffffffffffffffffffffffffffffffffffffff0483118215151615614c3a57614c39614df5565b5b828202905092915050565b6000614c5082614cf8565b9150614c5b83614cf8565b925082821015614c6e57614c6d614df5565b5b828203905092915050565b6000614c8482614cd8565b9050919050565b6000614c9682614cd8565b9050919050565b60008115159050919050565b6000819050919050565b6000614cbe82614c79565b9050919050565b6000819050614cd382614ec2565b919050565b600073ffffffffffffffffffffffffffffffffffffffff82169050919050565b6000819050919050565b6000614d0d82614d14565b9050919050565b6000614d1f82614cd8565b9050919050565b6000614d3182614cc5565b9050919050565b82818337600083830152505050565b60005b83811015614d65578082015181840152602081019050614d4a565b83811115614d74576000848401525b50505050565b60006002820490506001821680614d9257607f821691505b60208210811415614da657614da5614e53565b5b50919050565b6000614db782614cf8565b91507fffffffffffffffffffffffffffffffffffffffffffffffffffffffffffffffff821415614dea57614de9614df5565b5b600182019050919050565b7f4e487b7100000000000000000000000000000000000000000000000000000000600052601160045260246000fd5b7f4e487b7100000000000000000000000000000000000000000000000000000000600052602160045260246000fd5b7f4e487b7100000000000000000000000000000000000000000000000000000000600052602260045260246000fd5b7f4e487b7100000000000000000000000000000000000000000000000000000000600052604160045260246000fd5b6000601f19601f8301169050919050565b60078110614ed357614ed2614e24565b5b50565b614edf81614c79565b8114614eea57600080fd5b50565b614ef681614c8b565b8114614f0157600080fd5b50565b614f0d81614c9d565b8114614f1857600080fd5b50565b614f2481614ca9565b8114614f2f57600080fd5b50565b614f3b81614cb3565b8114614f4657600080fd5b50565b60078110614f5657600080fd5b50565b614f6281614cf8565b8114614f6d57600080fd5b5056fea26469706673582212204592c76cb17e799591828b846ee2b852bb390e0dbb50a8ae174447e679b7882e64736f6c63430008000033",
  "immutableReferences": {
    "110": [
      {
        "length": 32,
        "start": 5929
      }
    ]
  },
  "source": "// SPDX-License-Identifier: MIT\npragma solidity ^0.8.0;\nimport '@rsksmart/erc677/contracts/IERC677.sol';\nimport '@rsksmart/erc677/contracts/IERC677TransferReceiver.sol';\nimport '@openzeppelin/contracts-upgradeable/proxy/utils/Initializable.sol';\nimport '@openzeppelin/contracts-upgradeable/security/ReentrancyGuardUpgradeable.sol';\n\ncontract OneShotSchedule is IERC677TransferReceiver, Initializable, ReentrancyGuardUpgradeable {\n  enum ExecutionState { Nonexistent, Scheduled, ExecutionSuccessful, ExecutionFailed, Overdue, Refunded, Cancelled }\n  // State transitions for scheduled executions:\n  //   Nonexistent -> Scheduled (requestor scheduled execution, 'Nonexistent' state is never assigned)\n  //   Scheduled -> Cancelled (requestor cancelled execution)\n  //   Scheduled -> ExecutionSuccessful (call was executed in the given time and did not fail)\n  //   Scheduled -> ExecutionFailed (call was executed in the given time but failed)\n  //   Scheduled -> Overdue (execution window has passed, expected earlier)\n  //   Overdue -> Refunded (refund for overdue execution paid)\n\n  struct Execution {\n    address requestor;\n    uint256 plan;\n    address to;\n    bytes data;\n    uint256 gas;\n    uint256 timestamp;\n    uint256 value;\n    ExecutionState state;\n  }\n\n  struct Plan {\n    uint256 pricePerExecution;\n    uint256 window;\n    IERC677 token;\n    bool active;\n  }\n\n  address public serviceProvider;\n  address public payee;\n\n  Plan[] public plans;\n\n  mapping(address => mapping(uint256 => uint256)) public remainingExecutions;\n  mapping(bytes32 => Execution) private executions;\n  mapping(address => bytes32[]) private executionsByRequestor; // redundant with executions\n\n  address private immutable self = address(this);\n\n  event PlanAdded(uint256 indexed index, uint256 price, address token, uint256 window);\n  event PlanRemoved(uint256 indexed index);\n\n  event ExecutionPurchased(address indexed requestor, uint256 plan, uint256 amount);\n  event ExecutionRequested(bytes32 indexed id, uint256 timestamp);\n  event Executed(bytes32 indexed id, bool success, bytes result);\n  event ExecutionCancelled(bytes32 indexed id);\n\n  modifier onlyProvider() {\n    require(address(msg.sender) == serviceProvider, 'Not authorized');\n    _;\n  }\n\n  function initialize(address serviceProvider_, address payee_) external initializer {\n    __ReentrancyGuard_init();\n    require(payee_ != address(0x0), 'Payee address cannot be 0x0');\n    require(serviceProvider_ != address(0x0), 'Service provider address cannot be 0x0');\n    serviceProvider = serviceProvider_;\n    payee = payee_;\n  }\n\n  ///////////\n  // ADMIN //\n  ///////////\n\n  function addPlan(\n    uint256 price,\n    uint256 window,\n    IERC677 token\n  ) external onlyProvider {\n    plans.push(Plan(price, window, token, true));\n    emit PlanAdded(plans.length - 1, price, address(token), window);\n  }\n\n  function removePlan(uint256 plan) external onlyProvider {\n    require(plans[plan].active, 'The plan is already inactive');\n    plans[plan].active = false;\n    emit PlanRemoved(plan);\n  }\n\n  function plansCount() external view returns (uint256) {\n    return plans.length;\n  }\n\n  function setPayee(address payee_) external onlyProvider {\n    require(payee_ != address(0x0), 'Payee address cannot be 0x0');\n    payee = payee_;\n  }\n\n  //////////////\n  // PURCHASE //\n  //////////////\n\n  function totalPrice(uint256 plan, uint256 quantity) private view returns (uint256) {\n    return quantity * plans[plan].pricePerExecution;\n  }\n\n  function doPurchase(\n    address requestor,\n    uint256 plan,\n    uint256 amount\n  ) private {\n    require(plans[plan].active, 'Inactive plan');\n    remainingExecutions[requestor][plan] += amount;\n    emit ExecutionPurchased(requestor, plan, amount);\n  }\n\n  // purcahse with ERC-20 and rBTC, for rBTC the plan's token address 0x0\n  function purchase(uint256 plan, uint256 quantity) external payable {\n    if (address(plans[plan].token) != address(0x0)) {\n      require(msg.value == 0, 'rBTC not accepted for this plan');\n      doPurchase(msg.sender, plan, quantity);\n      require(plans[plan].token.transferFrom(msg.sender, address(this), totalPrice(plan, quantity)), \"Payment did't pass\");\n    } else {\n      require(msg.value == totalPrice(plan, quantity), \"Transferred amount doesn't match total purchase\");\n      doPurchase(msg.sender, plan, quantity);\n    }\n  }\n\n  // purcahse with ERC-677\n  function tokenFallback(\n    address from,\n    uint256 amount,\n    bytes calldata data\n  ) external override returns (bool) {\n    (uint256 plan, uint256 quantity) = abi.decode(data, (uint256, uint256));\n\n    require(address(plans[plan].token) == address(msg.sender), 'Bad token');\n    require(amount == totalPrice(plan, quantity), \"Transferred amount doesn't match total purchase\");\n\n    doPurchase(from, plan, quantity);\n    return true;\n  }\n\n  ////////////////\n  // SCHEDULING //\n  ////////////////\n\n  // slither-disable-next-line timestamp\n  function getState(bytes32 id) public view returns (ExecutionState) {\n    Execution memory execution = executions[id];\n    if (execution.state == ExecutionState.Scheduled && ((execution.timestamp + plans[execution.plan].window) < block.timestamp)) {\n      return ExecutionState.Overdue;\n    } else {\n      return execution.state;\n    }\n  }\n\n  function hash(Execution memory execution) public pure returns (bytes32) {\n    return\n      keccak256(\n        abi.encode(execution.requestor, execution.plan, execution.to, execution.data, execution.gas, execution.timestamp, execution.value)\n      );\n  }\n\n  function _schedule(Execution memory execution) private returns (bytes32 id) {\n    require(msg.sender == execution.requestor, 'Not the requestor'); // just in case\n    require(remainingExecutions[msg.sender][execution.plan] > 0, 'No balance available');\n    // This is only to prevent errors, doesn't need to be exact\n    // timestamp manipulation should be considered in the window by the service provider\n    // slither-disable-next-line timestamp\n    require(block.timestamp <= execution.timestamp, 'Cannot schedule it in the past');\n    id = hash(execution);\n    // checking existence, no execution can be scheduled with timestamp 0\n    require(executions[id].timestamp == 0, 'Already scheduled');\n    remainingExecutions[msg.sender][execution.plan] -= 1;\n    executions[id] = execution;\n    executionsByRequestor[msg.sender].push(id);\n    emit ExecutionRequested(id, execution.timestamp);\n  }\n\n  function schedule(\n    uint256 plan,\n    address to,\n    bytes calldata data,\n    uint256 gas,\n    uint256 timestamp\n  ) external payable returns (bytes32 id) {\n    Execution memory execution = Execution(msg.sender, plan, to, data, gas, timestamp, msg.value, ExecutionState.Scheduled);\n    return (_schedule(execution));\n  }\n\n  function batchSchedule(bytes[] calldata data) external payable returns (bytes32[] memory ids) {\n    uint256 totalValue;\n    ids = new bytes32[](data.length);\n    for (uint256 i = 0; i < data.length; i++) {\n      (uint256 plan, address to, bytes memory txData, uint256 gas, uint256 timestamp, uint256 value) =\n        abi.decode(data[i], (uint256, address, bytes, uint256, uint256, uint256));\n      totalValue += value;\n      ids[i] = _schedule(Execution(msg.sender, plan, to, txData, gas, timestamp, value, ExecutionState.Scheduled));\n    }\n    require(totalValue == msg.value, \"Executions total value doesn't match\");\n  }\n\n  function getExecutionById(bytes32 id) public view returns (Execution memory execution) {\n    execution = executions[id];\n    execution.state = getState(id);\n  }\n\n  function executionsByRequestorCount(address requestor) external view returns (uint256) {\n    return executionsByRequestor[requestor].length;\n  }\n\n  function getExecutionsByRequestor(\n    address requestor,\n    uint256 fromIndex,\n    uint256 toIndex\n  ) external view returns (Execution[] memory executionList) {\n    require(executionsByRequestor[requestor].length >= toIndex && fromIndex < toIndex, 'Out of range');\n    executionList = new Execution[](toIndex - fromIndex);\n    for (uint256 i = fromIndex; i < toIndex; i++) {\n      executionList[i - fromIndex] = getExecutionById(executionsByRequestor[requestor][i]);\n    }\n  }\n\n  function cancelScheduling(bytes32 id) external {\n    Execution storage execution = executions[id];\n\n    require(getState(id) == ExecutionState.Scheduled, 'Transaction not scheduled');\n    require(msg.sender == execution.requestor, 'Not authorized');\n\n    execution.state = ExecutionState.Cancelled;\n    remainingExecutions[execution.requestor][execution.plan] += 1;\n    emit ExecutionCancelled(id);\n    payable(execution.requestor).transfer(execution.value);\n  }\n\n  ///////////////\n  // EXECUTION //\n  ///////////////\n  function refund(bytes32 id) private {\n    Execution storage execution = executions[id];\n    remainingExecutions[execution.requestor][execution.plan] += 1;\n    execution.state = ExecutionState.Refunded;\n    payable(execution.requestor).transfer(execution.value);\n  }\n\n  // The nonReentrant prevents this contract to be call again when the low level call is executed\n  // timestamp manipulation should be considered in the window by the service provider\n  // slither-disable-next-line timestamp\n  function execute(bytes32 id) external nonReentrant {\n    Execution storage execution = executions[id];\n\n    require(execution.state == ExecutionState.Scheduled, 'Already executed');\n    // timestamp manipulation should be considered in the window by the service provider\n    // slither-disable-next-line timestamp\n    require((execution.timestamp - plans[execution.plan].window) < block.timestamp, 'Too soon');\n\n    if (getState(id) == ExecutionState.Overdue) {\n      refund(id);\n      return;\n    }\n\n    // The contract makes an external call to execute the scheduled transaction on the specified contract.\n    // It needs to get the execution result before emitting the event and changing the matatransaction state.\n    // slither-disable-next-line low-level-calls\n    (bool success, bytes memory result) = payable(execution.to).call{ gas: execution.gas, value: execution.value }(execution.data);\n\n    // reentrancy prevented by nonReentrant modifier\n    // slither-disable-next-line reentrancy-events\n    emit Executed(id, success, result);\n\n    if (success) {\n      // reentrancy prevented by nonReentrant modifier\n      // slither-disable-next-line reentrancy-eth\n      execution.state = ExecutionState.ExecutionSuccessful;\n    } else {\n      // reentrancy prevented by nonReentrant modifier\n      // slither-disable-next-line reentrancy-eth\n      execution.state = ExecutionState.ExecutionFailed;\n    }\n\n    if (address(plans[execution.plan].token) != address(0x0)) {\n      require(plans[execution.plan].token.transfer(payee, plans[execution.plan].pricePerExecution), \"Couldn't transfer to payee\");\n    } else {\n      payable(payee).transfer(plans[execution.plan].pricePerExecution);\n    }\n  }\n\n  function multicall(bytes[] calldata data) external returns (bytes[] memory results) {\n    require(address(this) != self); //This makes safe the use of delegatedcall, making it only viable on the proxy\n    results = new bytes[](data.length);\n    for (uint256 i = 0; i < data.length; i++) {\n      (bool success, bytes memory result) = address(this).delegatecall(data[i]);\n      require(success);\n      results[i] = result;\n    }\n    return results;\n  }\n}\n",
  "sourcePath": "/Users/diegograsso/dev/rif-scheduler-contracts-poc/contracts/OneShotSchedule.sol",
  "compiler": {
    "name": "solc",
    "version": "0.8.0+commit.c7dfd78e.Emscripten.clang"
  },
  "schemaVersion": "3.4.1",
  "updatedAt": "2021-06-07T14:45:10.134Z",
  "devdoc": {
    "kind": "dev",
    "methods": {},
    "version": 1
  },
  "userdoc": {
    "kind": "user",
    "methods": {},
    "version": 1
  }
}