{
  "contractName": "OneShotSchedule",
  "abi": [
    {
      "inputs": [
        {
          "internalType": "contract IERC677",
          "name": "_rifToken",
          "type": "address"
        },
        {
          "internalType": "address",
          "name": "_providerAccount",
          "type": "address"
        }
      ],
      "stateMutability": "nonpayable",
      "type": "constructor"
    },
    {
      "anonymous": false,
      "inputs": [
        {
          "indexed": true,
          "internalType": "uint256",
          "name": "index",
          "type": "uint256"
        },
        {
          "indexed": true,
          "internalType": "address",
          "name": "from",
          "type": "address"
        },
        {
          "indexed": true,
          "internalType": "uint256",
          "name": "plan",
          "type": "uint256"
        },
        {
          "indexed": false,
          "internalType": "address",
          "name": "to",
          "type": "address"
        },
        {
          "indexed": false,
          "internalType": "bytes",
          "name": "data",
          "type": "bytes"
        },
        {
          "indexed": false,
          "internalType": "uint256",
          "name": "gas",
          "type": "uint256"
        },
        {
          "indexed": false,
          "internalType": "uint256",
          "name": "timestamp",
          "type": "uint256"
        },
        {
          "indexed": false,
          "internalType": "uint256",
          "name": "value",
          "type": "uint256"
        }
      ],
      "name": "MetatransactionAdded",
      "type": "event"
    },
    {
      "anonymous": false,
      "inputs": [
        {
          "indexed": true,
          "internalType": "uint256",
          "name": "index",
          "type": "uint256"
        },
        {
          "indexed": false,
          "internalType": "bool",
          "name": "success",
          "type": "bool"
        },
        {
          "indexed": false,
          "internalType": "bytes",
          "name": "result",
          "type": "bytes"
        }
      ],
      "name": "MetatransactionExecuted",
      "type": "event"
    },
    {
      "anonymous": false,
      "inputs": [
        {
          "indexed": true,
          "internalType": "uint256",
          "name": "index",
          "type": "uint256"
        },
        {
          "indexed": false,
          "internalType": "uint256",
          "name": "price",
          "type": "uint256"
        },
        {
          "indexed": false,
          "internalType": "uint256",
          "name": "window",
          "type": "uint256"
        }
      ],
      "name": "PlanAdded",
      "type": "event"
    },
    {
      "anonymous": false,
      "inputs": [
        {
          "indexed": true,
          "internalType": "uint256",
          "name": "index",
          "type": "uint256"
        }
      ],
      "name": "PlanCancelled",
      "type": "event"
    },
    {
      "anonymous": false,
      "inputs": [
        {
          "indexed": true,
          "internalType": "address",
          "name": "from",
          "type": "address"
        },
        {
          "indexed": false,
          "internalType": "uint256",
          "name": "plan",
          "type": "uint256"
        },
        {
          "indexed": false,
          "internalType": "uint256",
          "name": "amount",
          "type": "uint256"
        }
      ],
      "name": "SchedulingsPurchased",
      "type": "event"
    },
    {
      "inputs": [
        {
          "internalType": "uint256",
          "name": "price",
          "type": "uint256"
        },
        {
          "internalType": "uint256",
          "name": "window",
          "type": "uint256"
        }
      ],
      "name": "addPlan",
      "outputs": [],
      "stateMutability": "nonpayable",
      "type": "function"
    },
    {
      "inputs": [
        {
          "internalType": "uint256",
          "name": "index",
          "type": "uint256"
        }
      ],
      "name": "getPlan",
      "outputs": [
        {
          "internalType": "uint256",
          "name": "price",
          "type": "uint256"
        },
        {
          "internalType": "uint256",
          "name": "window",
          "type": "uint256"
        },
        {
          "internalType": "bool",
          "name": "active",
          "type": "bool"
        }
      ],
      "stateMutability": "view",
      "type": "function"
    },
    {
      "inputs": [
        {
          "internalType": "uint256",
          "name": "plan",
          "type": "uint256"
        }
      ],
      "name": "cancelPlan",
      "outputs": [],
      "stateMutability": "nonpayable",
      "type": "function"
    },
    {
      "inputs": [
        {
          "internalType": "uint256",
          "name": "plan",
          "type": "uint256"
        },
        {
          "internalType": "uint256",
          "name": "amount",
          "type": "uint256"
        }
      ],
      "name": "purchase",
      "outputs": [],
      "stateMutability": "nonpayable",
      "type": "function"
    },
    {
      "inputs": [
        {
          "internalType": "address",
          "name": "from",
          "type": "address"
        },
        {
          "internalType": "uint256",
          "name": "amount",
          "type": "uint256"
        },
        {
          "internalType": "bytes",
          "name": "data",
          "type": "bytes"
        }
      ],
      "name": "tokenFallback",
      "outputs": [
        {
          "internalType": "bool",
          "name": "",
          "type": "bool"
        }
      ],
      "stateMutability": "nonpayable",
      "type": "function"
    },
    {
      "inputs": [
        {
          "internalType": "address",
          "name": "requestor",
          "type": "address"
        },
        {
          "internalType": "uint256",
          "name": "plan",
          "type": "uint256"
        }
      ],
      "name": "getRemainingSchedulings",
      "outputs": [
        {
          "internalType": "uint256",
          "name": "",
          "type": "uint256"
        }
      ],
      "stateMutability": "view",
      "type": "function"
    },
    {
      "inputs": [
        {
          "internalType": "uint256",
          "name": "plan",
          "type": "uint256"
        },
        {
          "internalType": "address",
          "name": "to",
          "type": "address"
        },
        {
          "internalType": "bytes",
          "name": "data",
          "type": "bytes"
        },
        {
          "internalType": "uint256",
          "name": "gas",
          "type": "uint256"
        },
        {
          "internalType": "uint256",
          "name": "executionTime",
          "type": "uint256"
        }
      ],
      "name": "schedule",
      "outputs": [],
      "stateMutability": "payable",
      "type": "function"
    },
    {
      "inputs": [
        {
          "internalType": "uint256",
          "name": "index",
          "type": "uint256"
        }
      ],
      "name": "getSchedule",
      "outputs": [
        {
          "internalType": "address",
          "name": "",
          "type": "address"
        },
        {
          "internalType": "uint256",
          "name": "",
          "type": "uint256"
        },
        {
          "internalType": "address",
          "name": "",
          "type": "address"
        },
        {
          "internalType": "bytes",
          "name": "",
          "type": "bytes"
        },
        {
          "internalType": "uint256",
          "name": "",
          "type": "uint256"
        },
        {
          "internalType": "uint256",
          "name": "",
          "type": "uint256"
        },
        {
          "internalType": "uint256",
          "name": "",
          "type": "uint256"
        },
        {
          "internalType": "bool",
          "name": "",
          "type": "bool"
        }
      ],
      "stateMutability": "view",
      "type": "function"
    },
    {
      "inputs": [
        {
          "internalType": "uint256",
          "name": "index",
          "type": "uint256"
        }
      ],
      "name": "execute",
      "outputs": [],
      "stateMutability": "nonpayable",
      "type": "function"
    }
  ],
  "bytecode": "0x60806040523480156200001157600080fd5b50604051620023a6380380620023a68339818101604052810190620000379190620001dd565b6001600081905550600073ffffffffffffffffffffffffffffffffffffffff168173ffffffffffffffffffffffffffffffffffffffff161415620000b2576040517f08c379a0000000000000000000000000000000000000000000000000000000008152600401620000a99062000260565b60405180910390fd5b600073ffffffffffffffffffffffffffffffffffffffff168273ffffffffffffffffffffffffffffffffffffffff16141562000125576040517f08c379a00000000000000000000000000000000000000000000000000000000081526004016200011c9062000260565b60405180910390fd5b81600160006101000a81548173ffffffffffffffffffffffffffffffffffffffff021916908373ffffffffffffffffffffffffffffffffffffffff16021790555080600260006101000a81548173ffffffffffffffffffffffffffffffffffffffff021916908373ffffffffffffffffffffffffffffffffffffffff16021790555050506200030f565b600081519050620001c081620002db565b92915050565b600081519050620001d781620002f5565b92915050565b60008060408385031215620001f157600080fd5b60006200020185828601620001c6565b92505060206200021485828601620001af565b9150509250929050565b60006200022d60208362000282565b91507f50726f7669646572277320616464726573732063616e6e6f74206265203078306000830152602082019050919050565b600060208201905081810360008301526200027b816200021e565b9050919050565b600082825260208201905092915050565b6000620002a082620002bb565b9050919050565b6000620002b48262000293565b9050919050565b600073ffffffffffffffffffffffffffffffffffffffff82169050919050565b620002e68162000293565b8114620002f257600080fd5b50565b6200030081620002a7565b81146200030c57600080fd5b50565b612087806200031f6000396000f3fe6080604052600436106100865760003560e01c806380d6664c1161005957806380d6664c14610138578063c0ee0b8a14610161578063c5ca93a71461019e578063c9ee9079146101e2578063fe0d94c11461021f57610086565b806326cd52741461008b5780636bd872ce146100ca57806370876c98146100f357806373eab6871461011c575b600080fd5b34801561009757600080fd5b506100b260048036038101906100ad919061156c565b610248565b6040516100c193929190611d79565b60405180910390f35b3480156100d657600080fd5b506100f160048036038101906100ec9190611627565b61034b565b005b3480156100ff57600080fd5b5061011a60048036038101906101159190611627565b6104a9565b005b61013660048036038101906101319190611595565b6105b1565b005b34801561014457600080fd5b5061015f600480360381019061015a919061156c565b61083e565b005b34801561016d57600080fd5b50610188600480360381019061018391906114d7565b6109fa565b6040516101959190611b8a565b60405180910390f35b3480156101aa57600080fd5b506101c560048036038101906101c0919061156c565b610b0a565b6040516101d9989796959493929190611b05565b60405180910390f35b3480156101ee57600080fd5b506102096004803603810190610204919061149b565b610d34565b6040516102169190611d35565b60405180910390f35b34801561022b57600080fd5b506102466004803603810190610241919061156c565b610d8f565b005b600080600060038481548110610287577f4e487b7100000000000000000000000000000000000000000000000000000000600052603260045260246000fd5b9060005260206000209060030201600001549250600384815481106102d5577f4e487b7100000000000000000000000000000000000000000000000000000000600052603260045260246000fd5b906000526020600020906003020160010154915060038481548110610323577f4e487b7100000000000000000000000000000000000000000000000000000000600052603260045260246000fd5b906000526020600020906003020160020160009054906101000a900460ff1690509193909250565b600260009054906101000a900473ffffffffffffffffffffffffffffffffffffffff1673ffffffffffffffffffffffffffffffffffffffff163373ffffffffffffffffffffffffffffffffffffffff16146103db576040517f08c379a00000000000000000000000000000000000000000000000000000000081526004016103d290611d15565b60405180910390fd5b60036040518060600160405280848152602001838152602001600115158152509080600181540180825580915050600190039060005260206000209060030201600090919091909150600082015181600001556020820151816001015560408201518160020160006101000a81548160ff0219169083151502179055505050600160038054905061046c9190611ead565b7f36c0e53480e0b0afceae74af7c01535a63d082dc9e7302e5df1121c25eb87f69838360405161049d929190611d50565b60405180910390a25050565b6104b43383836110c1565b600160009054906101000a900473ffffffffffffffffffffffffffffffffffffffff1673ffffffffffffffffffffffffffffffffffffffff166323b872dd33306104fe86866111c6565b6040518463ffffffff1660e01b815260040161051c93929190611a72565b602060405180830381600087803b15801561053657600080fd5b505af115801561054a573d6000803e3d6000fd5b505050506040513d601f19601f8201168201806040525081019061056e9190611543565b6105ad576040517f08c379a00000000000000000000000000000000000000000000000000000000081526004016105a490611c55565b60405180910390fd5b5050565b804211156105f4576040517f08c379a00000000000000000000000000000000000000000000000000000000081526004016105eb90611cb5565b60405180910390fd5b6105fe3387611227565b60056040518061010001604052803373ffffffffffffffffffffffffffffffffffffffff1681526020018881526020018773ffffffffffffffffffffffffffffffffffffffff16815260200186868080601f016020809104026020016040519081016040528093929190818152602001838380828437600081840152601f19601f82011690508083019250505050505050815260200184815260200183815260200134815260200160001515815250908060018154018082558091505060019003906000526020600020906008020160009091909190915060008201518160000160006101000a81548173ffffffffffffffffffffffffffffffffffffffff021916908373ffffffffffffffffffffffffffffffffffffffff1602179055506020820151816001015560408201518160020160006101000a81548173ffffffffffffffffffffffffffffffffffffffff021916908373ffffffffffffffffffffffffffffffffffffffff160217905550606082015181600301908051906020019061078a92919061136f565b506080820151816004015560a0820151816005015560c0820151816006015560e08201518160070160006101000a81548160ff0219169083151502179055505050853373ffffffffffffffffffffffffffffffffffffffff1660016005805490506107f59190611ead565b7f0a39d10fccfb8741acd07d810b673ca7bc0f62c9eb951f0c08f03249c1e68ce288888888883460405161082e96959493929190611aa9565b60405180910390a4505050505050565b600260009054906101000a900473ffffffffffffffffffffffffffffffffffffffff1673ffffffffffffffffffffffffffffffffffffffff163373ffffffffffffffffffffffffffffffffffffffff16146108ce576040517f08c379a00000000000000000000000000000000000000000000000000000000081526004016108c590611d15565b60405180910390fd5b60038181548110610908577f4e487b7100000000000000000000000000000000000000000000000000000000600052603260045260246000fd5b906000526020600020906003020160020160009054906101000a900460ff16610966576040517f08c379a000000000000000000000000000000000000000000000000000000000815260040161095d90611bd5565b60405180910390fd5b6000600382815481106109a2577f4e487b7100000000000000000000000000000000000000000000000000000000600052603260045260246000fd5b906000526020600020906003020160020160006101000a81548160ff021916908315150217905550807f09f4c2fd13cc57768b21af5847536074d3fab1d1dfe1e382d9259c516945ea6d60405160405180910390a250565b60003373ffffffffffffffffffffffffffffffffffffffff16600160009054906101000a900473ffffffffffffffffffffffffffffffffffffffff1673ffffffffffffffffffffffffffffffffffffffff1614610a8c576040517f08c379a0000000000000000000000000000000000000000000000000000000008152600401610a8390611c15565b60405180910390fd5b6000808484810190610a9e9190611627565b8092508193505050610ab082826111c6565b8614610af1576040517f08c379a0000000000000000000000000000000000000000000000000000000008152600401610ae890611c95565b60405180910390fd5b610afc8783836110c1565b600192505050949350505050565b60008060006060600080600080600060058a81548110610b53577f4e487b7100000000000000000000000000000000000000000000000000000000600052603260045260246000fd5b9060005260206000209060080201604051806101000160405290816000820160009054906101000a900473ffffffffffffffffffffffffffffffffffffffff1673ffffffffffffffffffffffffffffffffffffffff1673ffffffffffffffffffffffffffffffffffffffff168152602001600182015481526020016002820160009054906101000a900473ffffffffffffffffffffffffffffffffffffffff1673ffffffffffffffffffffffffffffffffffffffff1673ffffffffffffffffffffffffffffffffffffffff168152602001600382018054610c3390611f6b565b80601f0160208091040260200160405190810160405280929190818152602001828054610c5f90611f6b565b8015610cac5780601f10610c8157610100808354040283529160200191610cac565b820191906000526020600020905b815481529060010190602001808311610c8f57829003601f168201915b505050505081526020016004820154815260200160058201548152602001600682015481526020016007820160009054906101000a900460ff1615151515815250509050806000015181602001518260400151836060015184608001518560a001518660c001518760e001519850985098509850985098509850985050919395975091939597565b6000600460008473ffffffffffffffffffffffffffffffffffffffff1673ffffffffffffffffffffffffffffffffffffffff168152602001908152602001600020600083815260200190815260200160002054905092915050565b60026000541415610dd5576040517f08c379a0000000000000000000000000000000000000000000000000000000008152600401610dcc90611cf5565b60405180910390fd5b6002600081905550600060058281548110610e19577f4e487b7100000000000000000000000000000000000000000000000000000000600052603260045260246000fd5b906000526020600020906008020190508060070160009054906101000a900460ff1615610e7b576040517f08c379a0000000000000000000000000000000000000000000000000000000008152600401610e7290611c35565b60405180910390fd5b426003826001015481548110610eba577f4e487b7100000000000000000000000000000000000000000000000000000000600052603260045260246000fd5b9060005260206000209060030201600101548260050154610edb9190611ead565b10610f1b576040517f08c379a0000000000000000000000000000000000000000000000000000000008152600401610f1290611cd5565b60405180910390fd5b426003826001015481548110610f5a577f4e487b7100000000000000000000000000000000000000000000000000000000600052603260045260246000fd5b9060005260206000209060030201600101548260050154610f7b9190611dfd565b11610fbb576040517f08c379a0000000000000000000000000000000000000000000000000000000008152600401610fb290611c75565b60405180910390fd5b60018160070160006101000a81548160ff0219169083151502179055506000808260020160009054906101000a900473ffffffffffffffffffffffffffffffffffffffff1673ffffffffffffffffffffffffffffffffffffffff1683600401548460060154856003016040516110319190611a5b565b600060405180830381858888f193505050503d806000811461106f576040519150601f19603f3d011682016040523d82523d6000602084013e611074565b606091505b5091509150837f03d9c25c2b9948d34ee863370ca688d682e036a337ef9fe3a28b72268dc33f6083836040516110ab929190611ba5565b60405180910390a2505050600160008190555050565b80600460008573ffffffffffffffffffffffffffffffffffffffff1673ffffffffffffffffffffffffffffffffffffffff16815260200190815260200160002060008481526020019081526020016000205461111d9190611dfd565b600460008573ffffffffffffffffffffffffffffffffffffffff1673ffffffffffffffffffffffffffffffffffffffff1681526020019081526020016000206000848152602001908152602001600020819055508273ffffffffffffffffffffffffffffffffffffffff167fd21e4c7a0622a57fdccbf003a815b1b1a3c7f4dd7af0c19521d725d33a608f7883836040516111b9929190611d50565b60405180910390a2505050565b600060038381548110611202577f4e487b7100000000000000000000000000000000000000000000000000000000600052603260045260246000fd5b9060005260206000209060030201600001548261121f9190611e53565b905092915050565b6000600460008473ffffffffffffffffffffffffffffffffffffffff1673ffffffffffffffffffffffffffffffffffffffff168152602001908152602001600020600083815260200190815260200160002054116112ba576040517f08c379a00000000000000000000000000000000000000000000000000000000081526004016112b190611bf5565b60405180910390fd5b6001600460008473ffffffffffffffffffffffffffffffffffffffff1673ffffffffffffffffffffffffffffffffffffffff1681526020019081526020016000206000838152602001908152602001600020546113179190611ead565b600460008473ffffffffffffffffffffffffffffffffffffffff1673ffffffffffffffffffffffffffffffffffffffff1681526020019081526020016000206000838152602001908152602001600020819055505050565b82805461137b90611f6b565b90600052602060002090601f01602090048101928261139d57600085556113e4565b82601f106113b657805160ff19168380011785556113e4565b828001600101855582156113e4579182015b828111156113e35782518255916020019190600101906113c8565b5b5090506113f191906113f5565b5090565b5b8082111561140e5760008160009055506001016113f6565b5090565b6000813590506114218161200c565b92915050565b60008151905061143681612023565b92915050565b60008083601f84011261144e57600080fd5b8235905067ffffffffffffffff81111561146757600080fd5b60208301915083600182028301111561147f57600080fd5b9250929050565b6000813590506114958161203a565b92915050565b600080604083850312156114ae57600080fd5b60006114bc85828601611412565b92505060206114cd85828601611486565b9150509250929050565b600080600080606085870312156114ed57600080fd5b60006114fb87828801611412565b945050602061150c87828801611486565b935050604085013567ffffffffffffffff81111561152957600080fd5b6115358782880161143c565b925092505092959194509250565b60006020828403121561155557600080fd5b600061156384828501611427565b91505092915050565b60006020828403121561157e57600080fd5b600061158c84828501611486565b91505092915050565b60008060008060008060a087890312156115ae57600080fd5b60006115bc89828a01611486565b96505060206115cd89828a01611412565b955050604087013567ffffffffffffffff8111156115ea57600080fd5b6115f689828a0161143c565b9450945050606061160989828a01611486565b925050608061161a89828a01611486565b9150509295509295509295565b6000806040838503121561163a57600080fd5b600061164885828601611486565b925050602061165985828601611486565b9150509250929050565b61166c81611ee1565b82525050565b61167b81611ef3565b82525050565b600061168d8385611dd0565b935061169a838584611f29565b6116a383611ffb565b840190509392505050565b60006116b982611dc5565b6116c38185611dd0565b93506116d3818560208601611f38565b6116dc81611ffb565b840191505092915050565b600081546116f481611f6b565b6116fe8186611de1565b94506001821660008114611719576001811461172a5761175d565b60ff1983168652818601935061175d565b61173385611db0565b60005b8381101561175557815481890152600182019150602081019050611736565b838801955050505b50505092915050565b6000611773601c83611dec565b91507f54686520706c616e20697320616c726561647920696e616374697665000000006000830152602082019050919050565b60006117b3601483611dec565b91507f4e6f2062616c616e636520617661696c61626c650000000000000000000000006000830152602082019050919050565b60006117f3600983611dec565b91507f42616420746f6b656e00000000000000000000000000000000000000000000006000830152602082019050919050565b6000611833601083611dec565b91507f416c7265616479206578656375746564000000000000000000000000000000006000830152602082019050919050565b6000611873601283611dec565b91507f5061796d656e74206469642774207061737300000000000000000000000000006000830152602082019050919050565b60006118b3600883611dec565b91507f546f6f206c6174650000000000000000000000000000000000000000000000006000830152602082019050919050565b60006118f3602f83611dec565b91507f5472616e7366657272656420616d6f756e7420646f65736e2774206d6174636860008301527f20746f74616c20707572636861736500000000000000000000000000000000006020830152604082019050919050565b6000611959601e83611dec565b91507f43616e6e6f74207363686564756c6520697420696e20746865207061737400006000830152602082019050919050565b6000611999600883611dec565b91507f546f6f20736f6f6e0000000000000000000000000000000000000000000000006000830152602082019050919050565b60006119d9601f83611dec565b91507f5265656e7472616e637947756172643a207265656e7472616e742063616c6c006000830152602082019050919050565b6000611a19600e83611dec565b91507f4e6f7420617574686f72697a65640000000000000000000000000000000000006000830152602082019050919050565b611a5581611f1f565b82525050565b6000611a6782846116e7565b915081905092915050565b6000606082019050611a876000830186611663565b611a946020830185611663565b611aa16040830184611a4c565b949350505050565b600060a082019050611abe6000830189611663565b8181036020830152611ad1818789611681565b9050611ae06040830186611a4c565b611aed6060830185611a4c565b611afa6080830184611a4c565b979650505050505050565b600061010082019050611b1b600083018b611663565b611b28602083018a611a4c565b611b356040830189611663565b8181036060830152611b4781886116ae565b9050611b566080830187611a4c565b611b6360a0830186611a4c565b611b7060c0830185611a4c565b611b7d60e0830184611672565b9998505050505050505050565b6000602082019050611b9f6000830184611672565b92915050565b6000604082019050611bba6000830185611672565b8181036020830152611bcc81846116ae565b90509392505050565b60006020820190508181036000830152611bee81611766565b9050919050565b60006020820190508181036000830152611c0e816117a6565b9050919050565b60006020820190508181036000830152611c2e816117e6565b9050919050565b60006020820190508181036000830152611c4e81611826565b9050919050565b60006020820190508181036000830152611c6e81611866565b9050919050565b60006020820190508181036000830152611c8e816118a6565b9050919050565b60006020820190508181036000830152611cae816118e6565b9050919050565b60006020820190508181036000830152611cce8161194c565b9050919050565b60006020820190508181036000830152611cee8161198c565b9050919050565b60006020820190508181036000830152611d0e816119cc565b9050919050565b60006020820190508181036000830152611d2e81611a0c565b9050919050565b6000602082019050611d4a6000830184611a4c565b92915050565b6000604082019050611d656000830185611a4c565b611d726020830184611a4c565b9392505050565b6000606082019050611d8e6000830186611a4c565b611d9b6020830185611a4c565b611da86040830184611672565b949350505050565b60008190508160005260206000209050919050565b600081519050919050565b600082825260208201905092915050565b600081905092915050565b600082825260208201905092915050565b6000611e0882611f1f565b9150611e1383611f1f565b9250827fffffffffffffffffffffffffffffffffffffffffffffffffffffffffffffffff03821115611e4857611e47611f9d565b5b828201905092915050565b6000611e5e82611f1f565b9150611e6983611f1f565b9250817fffffffffffffffffffffffffffffffffffffffffffffffffffffffffffffffff0483118215151615611ea257611ea1611f9d565b5b828202905092915050565b6000611eb882611f1f565b9150611ec383611f1f565b925082821015611ed657611ed5611f9d565b5b828203905092915050565b6000611eec82611eff565b9050919050565b60008115159050919050565b600073ffffffffffffffffffffffffffffffffffffffff82169050919050565b6000819050919050565b82818337600083830152505050565b60005b83811015611f56578082015181840152602081019050611f3b565b83811115611f65576000848401525b50505050565b60006002820490506001821680611f8357607f821691505b60208210811415611f9757611f96611fcc565b5b50919050565b7f4e487b7100000000000000000000000000000000000000000000000000000000600052601160045260246000fd5b7f4e487b7100000000000000000000000000000000000000000000000000000000600052602260045260246000fd5b6000601f19601f8301169050919050565b61201581611ee1565b811461202057600080fd5b50565b61202c81611ef3565b811461203757600080fd5b50565b61204381611f1f565b811461204e57600080fd5b5056fea264697066735822122031a1ceca3e7a1c21ef8aea54600d368cb00bff1ba0ddcc7564226817fc43e65864736f6c63430008000033",
  "immutableReferences": {},
  "source": "// SPDX-License-Identifier: MIT\r\npragma solidity ^0.8.0;\r\nimport '@rsksmart/erc677/contracts/IERC677.sol';\r\nimport '@rsksmart/erc677/contracts/IERC677TransferReceiver.sol';\r\nimport '@openzeppelin/contracts/security/ReentrancyGuard.sol';\r\n\r\ncontract OneShotSchedule is IERC677TransferReceiver, ReentrancyGuard {\r\n  IERC677 token;\r\n  address providerAccount;\r\n\r\n  struct Plan {\r\n    uint256 schegulingPrice;\r\n    uint256 window;\r\n    bool active;\r\n  }\r\n\r\n  Plan[] plans;\r\n\r\n  mapping(address => mapping(uint256 => uint256)) remainingSchedulings;\r\n\r\n  struct Metatransaction {\r\n    address from;\r\n    uint256 plan;\r\n    address to;\r\n    bytes data;\r\n    uint256 gas;\r\n    uint256 timestamp;\r\n    uint256 value;\r\n    bool executed;\r\n  }\r\n\r\n  Metatransaction[] private transactionsScheduled;\r\n\r\n  event PlanAdded(uint256 indexed index, uint256 price, uint256 window);\r\n  event PlanCancelled(uint256 indexed index);\r\n  event SchedulingsPurchased(address indexed from, uint256 plan, uint256 amount);\r\n  event MetatransactionAdded(\r\n    uint256 indexed index,\r\n    address indexed from,\r\n    uint256 indexed plan,\r\n    address to,\r\n    bytes data,\r\n    uint256 gas,\r\n    uint256 timestamp,\r\n    uint256 value\r\n  );\r\n\r\n  event MetatransactionExecuted(uint256 indexed index, bool success, bytes result);\r\n\r\n  modifier onlyProvider() {\r\n    require(address(msg.sender) == providerAccount, 'Not authorized');\r\n    _;\r\n  }\r\n\r\n  constructor(IERC677 _rifToken, address _providerAccount) {\r\n    require(_providerAccount != address(0x0), \"Provider's address cannot be 0x0\");\r\n    require(address(_rifToken) != address(0x0), \"Provider's address cannot be 0x0\");\r\n    token = _rifToken;\r\n    providerAccount = _providerAccount;\r\n  }\r\n\r\n  function addPlan(uint256 price, uint256 window) external onlyProvider {\r\n    plans.push(Plan(price, window, true));\r\n    emit PlanAdded(plans.length - 1, price, window);\r\n  }\r\n\r\n  function getPlan(uint256 index)\r\n    external\r\n    view\r\n    returns (\r\n      uint256 price,\r\n      uint256 window,\r\n      bool active\r\n    )\r\n  {\r\n    price = plans[index].schegulingPrice;\r\n    window = plans[index].window;\r\n    active = plans[index].active;\r\n  }\r\n\r\n  function cancelPlan(uint256 plan) external onlyProvider {\r\n    require(plans[plan].active, 'The plan is already inactive');\r\n    plans[plan].active = false;\r\n    emit PlanCancelled(plan);\r\n  }\r\n\r\n  function _totalPrice(uint256 plan, uint256 amount) private view returns (uint256) {\r\n    return amount * plans[plan].schegulingPrice;\r\n  }\r\n\r\n  function doPurchase(\r\n    address from,\r\n    uint256 plan,\r\n    uint256 schedulingAmount\r\n  ) private {\r\n    remainingSchedulings[from][plan] = remainingSchedulings[from][plan] + schedulingAmount;\r\n    emit SchedulingsPurchased(from, plan, schedulingAmount);\r\n  }\r\n\r\n  function purchase(uint256 plan, uint256 amount) external {\r\n    doPurchase(msg.sender, plan, amount);\r\n    require(token.transferFrom(msg.sender, address(this), _totalPrice(plan, amount)), \"Payment did't pass\");\r\n  }\r\n\r\n  function tokenFallback(\r\n    address from,\r\n    uint256 amount,\r\n    bytes calldata data\r\n  ) external override returns (bool) {\r\n    require(address(token) == address(msg.sender), 'Bad token');\r\n    uint256 plan;\r\n    uint256 schedulingAmount;\r\n    (plan, schedulingAmount) = abi.decode(data, (uint256, uint256));\r\n    require(amount == _totalPrice(plan, schedulingAmount), \"Transferred amount doesn't match total purchase\");\r\n    doPurchase(from, plan, schedulingAmount);\r\n    return true;\r\n  }\r\n\r\n  function getRemainingSchedulings(address requestor, uint256 plan) external view returns (uint256) {\r\n    return remainingSchedulings[requestor][plan];\r\n  }\r\n\r\n  function _spend(address requestor, uint256 plan) private {\r\n    require(remainingSchedulings[requestor][plan] > 0, 'No balance available');\r\n    remainingSchedulings[requestor][plan] = remainingSchedulings[requestor][plan] - 1;\r\n  }\r\n\r\n  function _refund(address requestor, uint256 plan) private {\r\n    remainingSchedulings[requestor][plan] = remainingSchedulings[requestor][plan] + 1;\r\n  }\r\n\r\n  function schedule(\r\n    uint256 plan,\r\n    address to,\r\n    bytes calldata data,\r\n    uint256 gas,\r\n    uint256 executionTime\r\n  ) external payable {\r\n    // slither-disable-next-line timestamp\r\n    require(block.timestamp <= executionTime, 'Cannot schedule it in the past');\r\n    _spend(msg.sender, plan);\r\n    transactionsScheduled.push(Metatransaction(msg.sender, plan, to, data, gas, executionTime, msg.value, false));\r\n    emit MetatransactionAdded(transactionsScheduled.length - 1, msg.sender, plan, to, data, gas, executionTime, msg.value);\r\n  }\r\n\r\n  function getSchedule(uint256 index)\r\n    external\r\n    view\r\n    returns (\r\n      address,\r\n      uint256,\r\n      address,\r\n      bytes memory,\r\n      uint256,\r\n      uint256,\r\n      uint256,\r\n      bool\r\n    )\r\n  {\r\n    Metatransaction memory metatransaction = transactionsScheduled[index];\r\n    return (\r\n      metatransaction.from,\r\n      metatransaction.plan,\r\n      metatransaction.to,\r\n      metatransaction.data,\r\n      metatransaction.gas,\r\n      metatransaction.timestamp,\r\n      metatransaction.value,\r\n      metatransaction.executed\r\n    );\r\n  }\r\n\r\n  // slither-disable-next-line low-level-calls\r\n  function execute(uint256 index) external nonReentrant {\r\n    Metatransaction storage metatransaction = transactionsScheduled[index];\r\n\r\n    require(!metatransaction.executed, 'Already executed');\r\n\r\n    // Instead of just reverting, here we should:\r\n    // - give the requestor a refund\r\n    // - penalize the service provider\r\n\r\n    // slither-disable-next-line timestamp\r\n    require(metatransaction.timestamp - (plans[metatransaction.plan].window) < block.timestamp, 'Too soon');\r\n    // slither-disable-next-line timestamp\r\n    require(metatransaction.timestamp + (plans[metatransaction.plan].window) > block.timestamp, 'Too late');\r\n\r\n    // We can use gasleft() here to charge the consumer for the gas\r\n    // A contract may hold user's gas and charge it after executing\r\n    // the transaction\r\n\r\n    metatransaction.executed = true;\r\n\r\n    // Now failing transactions are forwarded. Is responsability of the requestor\r\n    // to list a valid transaction\r\n\r\n    (bool success, bytes memory result) =\r\n      metatransaction.to.call{ gas: metatransaction.gas, value: metatransaction.value }(metatransaction.data);\r\n    // slither-disable-next-line reentrancy-events\r\n    emit MetatransactionExecuted(index, success, result);\r\n    // The difference when calling gasleft() again is (aprox.) the gas used\r\n    // in the call\r\n\r\n    // After executing we do the payout to the service provider:\r\n    // - return the gas used\r\n    // - send the tokens paid for the service\r\n  }\r\n}\r\n",
  "sourcePath": "D:/SourceCode/IOVLABS/rif-scheduler-contracts-poc/contracts/OneShotSchedule.sol",
  "compiler": {
    "name": "solc",
    "version": "0.8.0+commit.c7dfd78e.Emscripten.clang"
  },
  "schemaVersion": "3.3.4",
  "updatedAt": "2021-04-23T15:34:58.432Z",
  "devdoc": {
    "kind": "dev",
    "methods": {},
    "version": 1
  },
  "userdoc": {
    "kind": "user",
    "methods": {},
    "version": 1
  }
}