{
  "contractName": "OneShotSchedule",
  "abi": [
    {
      "anonymous": false,
      "inputs": [
        {
          "indexed": true,
          "internalType": "bytes32",
          "name": "id",
          "type": "bytes32"
        },
        {
          "indexed": false,
          "internalType": "bool",
          "name": "success",
          "type": "bool"
        },
        {
          "indexed": false,
          "internalType": "bytes",
          "name": "result",
          "type": "bytes"
        }
      ],
      "name": "Executed",
      "type": "event"
    },
    {
      "anonymous": false,
      "inputs": [
        {
          "indexed": true,
          "internalType": "bytes32",
          "name": "id",
          "type": "bytes32"
        }
      ],
      "name": "ExecutionCancelled",
      "type": "event"
    },
    {
      "anonymous": false,
      "inputs": [
        {
          "indexed": true,
          "internalType": "address",
          "name": "requestor",
          "type": "address"
        },
        {
          "indexed": false,
          "internalType": "uint256",
          "name": "plan",
          "type": "uint256"
        },
        {
          "indexed": false,
          "internalType": "uint256",
          "name": "amount",
          "type": "uint256"
        }
      ],
      "name": "ExecutionPurchased",
      "type": "event"
    },
    {
      "anonymous": false,
      "inputs": [
        {
          "indexed": true,
          "internalType": "bytes32",
          "name": "id",
          "type": "bytes32"
        }
      ],
      "name": "ExecutionRequested",
      "type": "event"
    },
    {
      "anonymous": false,
      "inputs": [
        {
          "indexed": true,
          "internalType": "uint256",
          "name": "index",
          "type": "uint256"
        },
        {
          "indexed": false,
          "internalType": "uint256",
          "name": "price",
          "type": "uint256"
        },
        {
          "indexed": false,
          "internalType": "address",
          "name": "token",
          "type": "address"
        },
        {
          "indexed": false,
          "internalType": "uint256",
          "name": "window",
          "type": "uint256"
        }
      ],
      "name": "PlanAdded",
      "type": "event"
    },
    {
      "anonymous": false,
      "inputs": [
        {
          "indexed": true,
          "internalType": "uint256",
          "name": "index",
          "type": "uint256"
        }
      ],
      "name": "PlanRemoved",
      "type": "event"
    },
    {
      "inputs": [],
      "name": "payee",
      "outputs": [
        {
          "internalType": "address",
          "name": "",
          "type": "address"
        }
      ],
      "stateMutability": "view",
      "type": "function"
    },
    {
      "inputs": [
        {
          "internalType": "uint256",
          "name": "",
          "type": "uint256"
        }
      ],
      "name": "plans",
      "outputs": [
        {
          "internalType": "uint256",
          "name": "pricePerExecution",
          "type": "uint256"
        },
        {
          "internalType": "uint256",
          "name": "window",
          "type": "uint256"
        },
        {
          "internalType": "contract IERC677",
          "name": "token",
          "type": "address"
        },
        {
          "internalType": "bool",
          "name": "active",
          "type": "bool"
        }
      ],
      "stateMutability": "view",
      "type": "function"
    },
    {
      "inputs": [
        {
          "internalType": "address",
          "name": "",
          "type": "address"
        },
        {
          "internalType": "uint256",
          "name": "",
          "type": "uint256"
        }
      ],
      "name": "remainingExecutions",
      "outputs": [
        {
          "internalType": "uint256",
          "name": "",
          "type": "uint256"
        }
      ],
      "stateMutability": "view",
      "type": "function"
    },
    {
      "inputs": [],
      "name": "serviceProvider",
      "outputs": [
        {
          "internalType": "address",
          "name": "",
          "type": "address"
        }
      ],
      "stateMutability": "view",
      "type": "function"
    },
    {
      "inputs": [
        {
          "internalType": "address",
          "name": "serviceProvider_",
          "type": "address"
        },
        {
          "internalType": "address",
          "name": "payee_",
          "type": "address"
        }
      ],
      "name": "initialize",
      "outputs": [],
      "stateMutability": "nonpayable",
      "type": "function"
    },
    {
      "inputs": [
        {
          "internalType": "uint256",
          "name": "price",
          "type": "uint256"
        },
        {
          "internalType": "uint256",
          "name": "window",
          "type": "uint256"
        },
        {
          "internalType": "contract IERC677",
          "name": "token",
          "type": "address"
        }
      ],
      "name": "addPlan",
      "outputs": [],
      "stateMutability": "nonpayable",
      "type": "function"
    },
    {
      "inputs": [
        {
          "internalType": "uint256",
          "name": "plan",
          "type": "uint256"
        }
      ],
      "name": "removePlan",
      "outputs": [],
      "stateMutability": "nonpayable",
      "type": "function"
    },
    {
      "inputs": [
        {
          "internalType": "address",
          "name": "payee_",
          "type": "address"
        }
      ],
      "name": "setPayee",
      "outputs": [],
      "stateMutability": "nonpayable",
      "type": "function"
    },
    {
      "inputs": [
        {
          "internalType": "uint256",
          "name": "plan",
          "type": "uint256"
        },
        {
          "internalType": "uint256",
          "name": "quantity",
          "type": "uint256"
        }
      ],
      "name": "purchase",
      "outputs": [],
      "stateMutability": "nonpayable",
      "type": "function"
    },
    {
      "inputs": [
        {
          "internalType": "address",
          "name": "from",
          "type": "address"
        },
        {
          "internalType": "uint256",
          "name": "amount",
          "type": "uint256"
        },
        {
          "internalType": "bytes",
          "name": "data",
          "type": "bytes"
        }
      ],
      "name": "tokenFallback",
      "outputs": [
        {
          "internalType": "bool",
          "name": "",
          "type": "bool"
        }
      ],
      "stateMutability": "nonpayable",
      "type": "function"
    },
    {
      "inputs": [
        {
          "internalType": "bytes32",
          "name": "id",
          "type": "bytes32"
        }
      ],
      "name": "getState",
      "outputs": [
        {
          "internalType": "enum OneShotSchedule.ExecutionState",
          "name": "",
          "type": "uint8"
        }
      ],
      "stateMutability": "view",
      "type": "function"
    },
    {
      "inputs": [
        {
          "components": [
            {
              "internalType": "address",
              "name": "requestor",
              "type": "address"
            },
            {
              "internalType": "uint256",
              "name": "plan",
              "type": "uint256"
            },
            {
              "internalType": "address",
              "name": "to",
              "type": "address"
            },
            {
              "internalType": "bytes",
              "name": "data",
              "type": "bytes"
            },
            {
              "internalType": "uint256",
              "name": "gas",
              "type": "uint256"
            },
            {
              "internalType": "uint256",
              "name": "timestamp",
              "type": "uint256"
            },
            {
              "internalType": "uint256",
              "name": "value",
              "type": "uint256"
            },
            {
              "internalType": "enum OneShotSchedule.ExecutionState",
              "name": "state",
              "type": "uint8"
            }
          ],
          "internalType": "struct OneShotSchedule.Execution",
          "name": "execution",
          "type": "tuple"
        }
      ],
      "name": "hash",
      "outputs": [
        {
          "internalType": "bytes32",
          "name": "",
          "type": "bytes32"
        }
      ],
      "stateMutability": "pure",
      "type": "function"
    },
    {
      "inputs": [
        {
          "internalType": "uint256",
          "name": "plan",
          "type": "uint256"
        },
        {
          "internalType": "address",
          "name": "to",
          "type": "address"
        },
        {
          "internalType": "bytes",
          "name": "data",
          "type": "bytes"
        },
        {
          "internalType": "uint256",
          "name": "gas",
          "type": "uint256"
        },
        {
          "internalType": "uint256",
          "name": "timestamp",
          "type": "uint256"
        }
      ],
      "name": "schedule",
      "outputs": [],
      "stateMutability": "payable",
      "type": "function"
    },
    {
      "inputs": [
        {
          "internalType": "bytes32",
          "name": "id",
          "type": "bytes32"
        }
      ],
      "name": "getSchedule",
      "outputs": [
        {
          "internalType": "address",
          "name": "",
          "type": "address"
        },
        {
          "internalType": "uint256",
          "name": "",
          "type": "uint256"
        },
        {
          "internalType": "address",
          "name": "",
          "type": "address"
        },
        {
          "internalType": "bytes",
          "name": "",
          "type": "bytes"
        },
        {
          "internalType": "uint256",
          "name": "",
          "type": "uint256"
        },
        {
          "internalType": "uint256",
          "name": "",
          "type": "uint256"
        },
        {
          "internalType": "uint256",
          "name": "",
          "type": "uint256"
        },
        {
          "internalType": "enum OneShotSchedule.ExecutionState",
          "name": "",
          "type": "uint8"
        }
      ],
      "stateMutability": "view",
      "type": "function"
    },
    {
      "inputs": [
        {
          "internalType": "bytes32",
          "name": "id",
          "type": "bytes32"
        }
      ],
      "name": "cancelScheduling",
      "outputs": [],
      "stateMutability": "nonpayable",
      "type": "function"
    },
    {
      "inputs": [
        {
          "internalType": "bytes32",
          "name": "id",
          "type": "bytes32"
        }
      ],
      "name": "execute",
      "outputs": [],
      "stateMutability": "nonpayable",
      "type": "function"
    }
  ],
  "bytecode": "0x608060405234801561001057600080fd5b50613a5d806100206000396000f3fe608060405260043610610110576000357c01000000000000000000000000000000000000000000000000000000009004806373eab687116100a7578063b395bb4b11610076578063b395bb4b14610352578063c0ee0b8a1461038f578063debd4c3d146103cc578063e751f271146103f557610110565b806373eab687146102a05780638d69e95e146102bc578063ae90b213146102e7578063b16206161461031257610110565b8063485cc955116100e3578063485cc955146101e857806354ceba0a1461021157806358fa1d9d1461023a57806370876c981461027757610110565b806309648a9d1461011557806328e550e6146101525780633adc277a1461017b578063410459ad146101bf575b600080fd5b34801561012157600080fd5b5061013c60048036038101906101379190612a24565b61041e565b6040516101499190613315565b60405180910390f35b34801561015e57600080fd5b5061017960048036038101906101749190612a8e565b61072d565b005b34801561018757600080fd5b506101a2600480360381019061019d9190612a24565b6108e8565b6040516101b698979695949392919061322a565b60405180910390f35b3480156101cb57600080fd5b506101e660048036038101906101e191906128ee565b610b53565b005b3480156101f457600080fd5b5061020f600480360381019061020a9190612917565b610c97565b005b34801561021d57600080fd5b5061023860048036038101906102339190612a24565b610edc565b005b34801561024657600080fd5b50610261600480360381019061025c9190612a4d565b6111c3565b60405161026e91906132fa565b60405180910390f35b34801561028357600080fd5b5061029e60048036038101906102999190612b49565b611221565b005b6102ba60048036038101906102b59190612ab7565b61138e565b005b3480156102c857600080fd5b506102d1611737565b6040516102de91906131af565b60405180910390f35b3480156102f357600080fd5b506102fc61175d565b60405161030991906131af565b60405180910390f35b34801561031e57600080fd5b5061033960048036038101906103349190612a8e565b611783565b60405161034994939291906135cb565b60405180910390f35b34801561035e57600080fd5b5061037960048036038101906103749190612953565b6117f0565b6040516103869190613550565b60405180910390f35b34801561039b57600080fd5b506103b660048036038101906103b1919061298f565b611815565b6040516103c391906132af565b60405180910390f35b3480156103d857600080fd5b506103f360048036038101906103ee9190612b85565b61196a565b005b34801561040157600080fd5b5061041c60048036038101906104179190612a24565b611b9e565b005b60008060376000848152602001908152602001600020604051806101000160405290816000820160009054906101000a900473ffffffffffffffffffffffffffffffffffffffff1673ffffffffffffffffffffffffffffffffffffffff1673ffffffffffffffffffffffffffffffffffffffff168152602001600182015481526020016002820160009054906101000a900473ffffffffffffffffffffffffffffffffffffffff1673ffffffffffffffffffffffffffffffffffffffff1673ffffffffffffffffffffffffffffffffffffffff16815260200160038201805461050690613891565b80601f016020809104026020016040519081016040528092919081815260200182805461053290613891565b801561057f5780601f106105545761010080835404028352916020019161057f565b820191906000526020600020905b81548152906001019060200180831161056257829003601f168201915b505050505081526020016004820154815260200160058201548152602001600682015481526020016007820160009054906101000a900460ff1660058111156105f1577f4e487b7100000000000000000000000000000000000000000000000000000000600052602160045260246000fd5b6005811115610629577f4e487b7100000000000000000000000000000000000000000000000000000000600052602160045260246000fd5b81525050905060006005811115610669577f4e487b7100000000000000000000000000000000000000000000000000000000600052602160045260246000fd5b8160e0015160058111156106a6577f4e487b7100000000000000000000000000000000000000000000000000000000600052602160045260246000fd5b14801561071057504260358260200151815481106106ed577f4e487b7100000000000000000000000000000000000000000000000000000000600052603260045260246000fd5b9060005260206000209060030201600101548260a0015161070e91906136be565b105b1561071f576003915050610728565b8060e001519150505b919050565b603360009054906101000a900473ffffffffffffffffffffffffffffffffffffffff1673ffffffffffffffffffffffffffffffffffffffff163373ffffffffffffffffffffffffffffffffffffffff16146107bd576040517f08c379a00000000000000000000000000000000000000000000000000000000081526004016107b490613530565b60405180910390fd5b603581815481106107f7577f4e487b7100000000000000000000000000000000000000000000000000000000600052603260045260246000fd5b906000526020600020906003020160020160149054906101000a900460ff16610855576040517f08c379a000000000000000000000000000000000000000000000000000000000815260040161084c90613330565b60405180910390fd5b600060358281548110610891577f4e487b7100000000000000000000000000000000000000000000000000000000600052603260045260246000fd5b906000526020600020906003020160020160146101000a81548160ff021916908315150217905550807e4c797e6739331fc6d5c1ebdf112d63e6a68297fdfd28f35f54561e28fd868d60405160405180910390a250565b600080600060606000806000806000603760008b8152602001908152602001600020604051806101000160405290816000820160009054906101000a900473ffffffffffffffffffffffffffffffffffffffff1673ffffffffffffffffffffffffffffffffffffffff1673ffffffffffffffffffffffffffffffffffffffff168152602001600182015481526020016002820160009054906101000a900473ffffffffffffffffffffffffffffffffffffffff1673ffffffffffffffffffffffffffffffffffffffff1673ffffffffffffffffffffffffffffffffffffffff1681526020016003820180546109dc90613891565b80601f0160208091040260200160405190810160405280929190818152602001828054610a0890613891565b8015610a555780601f10610a2a57610100808354040283529160200191610a55565b820191906000526020600020905b815481529060010190602001808311610a3857829003601f168201915b505050505081526020016004820154815260200160058201548152602001600682015481526020016007820160009054906101000a900460ff166005811115610ac7577f4e487b7100000000000000000000000000000000000000000000000000000000600052602160045260246000fd5b6005811115610aff577f4e487b7100000000000000000000000000000000000000000000000000000000600052602160045260246000fd5b8152505090506000610b108b61041e565b9050816000015182602001518360400151846060015185608001518660a001518760c0015187995099509950995099509950995099505050919395975091939597565b603360009054906101000a900473ffffffffffffffffffffffffffffffffffffffff1673ffffffffffffffffffffffffffffffffffffffff163373ffffffffffffffffffffffffffffffffffffffff1614610be3576040517f08c379a0000000000000000000000000000000000000000000000000000000008152600401610bda90613530565b60405180910390fd5b600073ffffffffffffffffffffffffffffffffffffffff168173ffffffffffffffffffffffffffffffffffffffff161415610c53576040517f08c379a0000000000000000000000000000000000000000000000000000000008152600401610c4a906134d0565b60405180910390fd5b80603460006101000a81548173ffffffffffffffffffffffffffffffffffffffff021916908373ffffffffffffffffffffffffffffffffffffffff16021790555050565b600060019054906101000a900460ff1680610cbd575060008054906101000a900460ff16155b610cfc576040517f08c379a0000000000000000000000000000000000000000000000000000000008152600401610cf390613430565b60405180910390fd5b60008060019054906101000a900460ff161590508015610d4c576001600060016101000a81548160ff02191690831515021790555060016000806101000a81548160ff0219169083151502179055505b610d5461215a565b600073ffffffffffffffffffffffffffffffffffffffff168273ffffffffffffffffffffffffffffffffffffffff161415610dc4576040517f08c379a0000000000000000000000000000000000000000000000000000000008152600401610dbb906134d0565b60405180910390fd5b600073ffffffffffffffffffffffffffffffffffffffff168373ffffffffffffffffffffffffffffffffffffffff161415610e34576040517f08c379a0000000000000000000000000000000000000000000000000000000008152600401610e2b90613450565b60405180910390fd5b82603360006101000a81548173ffffffffffffffffffffffffffffffffffffffff021916908373ffffffffffffffffffffffffffffffffffffffff16021790555081603460006101000a81548173ffffffffffffffffffffffffffffffffffffffff021916908373ffffffffffffffffffffffffffffffffffffffff1602179055508015610ed75760008060016101000a81548160ff0219169083151502179055505b505050565b600060376000838152602001908152602001600020905060006005811115610f2d577f4e487b7100000000000000000000000000000000000000000000000000000000600052602160045260246000fd5b610f368361041e565b6005811115610f6e577f4e487b7100000000000000000000000000000000000000000000000000000000600052602160045260246000fd5b14610fae576040517f08c379a0000000000000000000000000000000000000000000000000000000008152600401610fa590613370565b60405180910390fd5b8060000160009054906101000a900473ffffffffffffffffffffffffffffffffffffffff1673ffffffffffffffffffffffffffffffffffffffff163373ffffffffffffffffffffffffffffffffffffffff1614611040576040517f08c379a000000000000000000000000000000000000000000000000000000000815260040161103790613530565b60405180910390fd5b60058160070160006101000a81548160ff0219169083600581111561108e577f4e487b7100000000000000000000000000000000000000000000000000000000600052602160045260246000fd5b02179055506001603660008360000160009054906101000a900473ffffffffffffffffffffffffffffffffffffffff1673ffffffffffffffffffffffffffffffffffffffff1673ffffffffffffffffffffffffffffffffffffffff168152602001908152602001600020600083600101548152602001908152602001600020600082825461111c91906136be565b92505081905550817fa9492956e3406e5fabb393f5ac68540da3bb42721d741519c0eadd27a15d83c060405160405180910390a28060000160009054906101000a900473ffffffffffffffffffffffffffffffffffffffff1673ffffffffffffffffffffffffffffffffffffffff166108fc82600601549081150290604051600060405180830381858888f193505050501580156111be573d6000803e3d6000fd5b505050565b6000816000015182602001518360400151846060015185608001518660a001518760c001518860e0015160405160200161120498979695949392919061322a565b604051602081830303815290604052805190602001209050919050565b61122c33838361223b565b60358281548110611266577f4e487b7100000000000000000000000000000000000000000000000000000000600052603260045260246000fd5b906000526020600020906003020160020160009054906101000a900473ffffffffffffffffffffffffffffffffffffffff1673ffffffffffffffffffffffffffffffffffffffff166323b872dd33306112bf868661238f565b6040518463ffffffff167c01000000000000000000000000000000000000000000000000000000000281526004016112f9939291906131ca565b602060405180830381600087803b15801561131357600080fd5b505af1158015611327573d6000803e3d6000fd5b505050506040513d601f19601f8201168201806040525081019061134b91906129fb565b61138a576040517f08c379a0000000000000000000000000000000000000000000000000000000008152600401611381906133f0565b60405180910390fd5b5050565b6000603660003373ffffffffffffffffffffffffffffffffffffffff1673ffffffffffffffffffffffffffffffffffffffff16815260200190815260200160002060008881526020019081526020016000205411611421576040517f08c379a000000000000000000000000000000000000000000000000000000000815260040161141890613390565b60405180910390fd5b6001603660003373ffffffffffffffffffffffffffffffffffffffff1673ffffffffffffffffffffffffffffffffffffffff16815260200190815260200160002060008881526020019081526020016000206000828254611482919061376e565b92505081905550804211156114cc576040517f08c379a00000000000000000000000000000000000000000000000000000000081526004016114c390613470565b60405180910390fd5b60006040518061010001604052803373ffffffffffffffffffffffffffffffffffffffff1681526020018881526020018773ffffffffffffffffffffffffffffffffffffffff16815260200186868080601f016020809104026020016040519081016040528093929190818152602001838380828437600081840152601f19601f820116905080830192505050505050508152602001848152602001838152602001348152602001600060058111156115ae577f4e487b7100000000000000000000000000000000000000000000000000000000600052602160045260246000fd5b815250905060006115be826111c3565b9050816037600083815260200190815260200160002060008201518160000160006101000a81548173ffffffffffffffffffffffffffffffffffffffff021916908373ffffffffffffffffffffffffffffffffffffffff1602179055506020820151816001015560408201518160020160006101000a81548173ffffffffffffffffffffffffffffffffffffffff021916908373ffffffffffffffffffffffffffffffffffffffff160217905550606082015181600301908051906020019061168892919061263d565b506080820151816004015560a0820151816005015560c0820151816006015560e08201518160070160006101000a81548160ff021916908360058111156116f8577f4e487b7100000000000000000000000000000000000000000000000000000000600052602160045260246000fd5b0217905550905050807f4352366ad6ebd2dce312bff7a3a5691396c030f8f92c6ed8cad31e745016850460405160405180910390a25050505050505050565b603360009054906101000a900473ffffffffffffffffffffffffffffffffffffffff1681565b603460009054906101000a900473ffffffffffffffffffffffffffffffffffffffff1681565b6035818154811061179357600080fd5b90600052602060002090600302016000915090508060000154908060010154908060020160009054906101000a900473ffffffffffffffffffffffffffffffffffffffff16908060020160149054906101000a900460ff16905084565b6036602052816000526040600020602052806000526040600020600091509150505481565b600080600084848101906118299190612b49565b915091503373ffffffffffffffffffffffffffffffffffffffff166035838154811061187e577f4e487b7100000000000000000000000000000000000000000000000000000000600052603260045260246000fd5b906000526020600020906003020160020160009054906101000a900473ffffffffffffffffffffffffffffffffffffffff1673ffffffffffffffffffffffffffffffffffffffff1614611906576040517f08c379a00000000000000000000000000000000000000000000000000000000081526004016118fd906133b0565b60405180910390fd5b611910828261238f565b8614611951576040517f08c379a000000000000000000000000000000000000000000000000000000000815260040161194890613410565b60405180910390fd5b61195c87838361223b565b600192505050949350505050565b603360009054906101000a900473ffffffffffffffffffffffffffffffffffffffff1673ffffffffffffffffffffffffffffffffffffffff163373ffffffffffffffffffffffffffffffffffffffff16146119fa576040517f08c379a00000000000000000000000000000000000000000000000000000000081526004016119f190613530565b60405180910390fd5b600073ffffffffffffffffffffffffffffffffffffffff168173ffffffffffffffffffffffffffffffffffffffff161415611a6a576040517f08c379a0000000000000000000000000000000000000000000000000000000008152600401611a61906134b0565b60405180910390fd5b603560405180608001604052808581526020018481526020018373ffffffffffffffffffffffffffffffffffffffff168152602001600115158152509080600181540180825580915050600190039060005260206000209060030201600090919091909150600082015181600001556020820151816001015560408201518160020160006101000a81548173ffffffffffffffffffffffffffffffffffffffff021916908373ffffffffffffffffffffffffffffffffffffffff16021790555060608201518160020160146101000a81548160ff02191690831515021790555050506001603580549050611b5e919061376e565b7f398c82e2ccf5aaee72a60b95d6543133e8fc843e113441e9a2d767274c8d8eef848385604051611b919392919061356b565b60405180910390a2505050565b60026001541415611be4576040517f08c379a0000000000000000000000000000000000000000000000000000000008152600401611bdb90613510565b60405180910390fd5b6002600181905550600060376000838152602001908152602001600020905060006005811115611c3d577f4e487b7100000000000000000000000000000000000000000000000000000000600052602160045260246000fd5b8160070160009054906101000a900460ff166005811115611c87577f4e487b7100000000000000000000000000000000000000000000000000000000600052602160045260246000fd5b14611cc7576040517f08c379a0000000000000000000000000000000000000000000000000000000008152600401611cbe906133d0565b60405180910390fd5b426035826001015481548110611d06577f4e487b7100000000000000000000000000000000000000000000000000000000600052603260045260246000fd5b9060005260206000209060030201600101548260050154611d27919061376e565b10611d67576040517f08c379a0000000000000000000000000000000000000000000000000000000008152600401611d5e90613490565b60405180910390fd5b60036005811115611da1577f4e487b7100000000000000000000000000000000000000000000000000000000600052602160045260246000fd5b611daa8361041e565b6005811115611de2577f4e487b7100000000000000000000000000000000000000000000000000000000600052602160045260246000fd5b1415611df757611df1826123f0565b50612150565b6000808260020160009054906101000a900473ffffffffffffffffffffffffffffffffffffffff1673ffffffffffffffffffffffffffffffffffffffff168360040154846006015485600301604051611e509190613198565b600060405180830381858888f193505050503d8060008114611e8e576040519150601f19603f3d011682016040523d82523d6000602084013e611e93565b606091505b5091509150837fbbb9534b79cda5e36feb34cc697d5e728db1a530363e152c539fb70b3f75f7ac8383604051611eca9291906132ca565b60405180910390a28115611f305760018360070160006101000a81548160ff02191690836005811115611f26577f4e487b7100000000000000000000000000000000000000000000000000000000600052602160045260246000fd5b0217905550611f84565b60028360070160006101000a81548160ff02191690836005811115611f7e577f4e487b7100000000000000000000000000000000000000000000000000000000600052602160045260246000fd5b02179055505b6035836001015481548110611fc2577f4e487b7100000000000000000000000000000000000000000000000000000000600052603260045260246000fd5b906000526020600020906003020160020160009054906101000a900473ffffffffffffffffffffffffffffffffffffffff1673ffffffffffffffffffffffffffffffffffffffff1663a9059cbb603460009054906101000a900473ffffffffffffffffffffffffffffffffffffffff166035866001015481548110612070577f4e487b7100000000000000000000000000000000000000000000000000000000600052603260045260246000fd5b9060005260206000209060030201600001546040518363ffffffff167c01000000000000000000000000000000000000000000000000000000000281526004016120bb929190613201565b602060405180830381600087803b1580156120d557600080fd5b505af11580156120e9573d6000803e3d6000fd5b505050506040513d601f19601f8201168201806040525081019061210d91906129fb565b61214c576040517f08c379a000000000000000000000000000000000000000000000000000000000815260040161214390613350565b60405180910390fd5b5050505b6001808190555050565b600060019054906101000a900460ff1680612180575060008054906101000a900460ff16155b6121bf576040517f08c379a00000000000000000000000000000000000000000000000000000000081526004016121b690613430565b60405180910390fd5b60008060019054906101000a900460ff16159050801561220f576001600060016101000a81548160ff02191690831515021790555060016000806101000a81548160ff0219169083151502179055505b61221761255d565b80156122385760008060016101000a81548160ff0219169083151502179055505b50565b60358281548110612275577f4e487b7100000000000000000000000000000000000000000000000000000000600052603260045260246000fd5b906000526020600020906003020160020160149054906101000a900460ff166122d3576040517f08c379a00000000000000000000000000000000000000000000000000000000081526004016122ca906134f0565b60405180910390fd5b80603660008573ffffffffffffffffffffffffffffffffffffffff1673ffffffffffffffffffffffffffffffffffffffff1681526020019081526020016000206000848152602001908152602001600020600082825461233391906136be565b925050819055508273ffffffffffffffffffffffffffffffffffffffff167f1d00f3ff8ba6a0ac98e7c747985ac34f1f706f5d0fa06abaa4c090a60598a65d83836040516123829291906135a2565b60405180910390a2505050565b6000603583815481106123cb577f4e487b7100000000000000000000000000000000000000000000000000000000600052603260045260246000fd5b906000526020600020906003020160000154826123e89190613714565b905092915050565b60006037600083815260200190815260200160002090506001603660008360000160009054906101000a900473ffffffffffffffffffffffffffffffffffffffff1673ffffffffffffffffffffffffffffffffffffffff1673ffffffffffffffffffffffffffffffffffffffff168152602001908152602001600020600083600101548152602001908152602001600020600082825461249091906136be565b9250508190555060048160070160006101000a81548160ff021916908360058111156124e5577f4e487b7100000000000000000000000000000000000000000000000000000000600052602160045260246000fd5b02179055508060000160009054906101000a900473ffffffffffffffffffffffffffffffffffffffff1673ffffffffffffffffffffffffffffffffffffffff166108fc82600601549081150290604051600060405180830381858888f19350505050158015612558573d6000803e3d6000fd5b505050565b600060019054906101000a900460ff1680612583575060008054906101000a900460ff16155b6125c2576040517f08c379a00000000000000000000000000000000000000000000000000000000081526004016125b990613430565b60405180910390fd5b60008060019054906101000a900460ff161590508015612612576001600060016101000a81548160ff02191690831515021790555060016000806101000a81548160ff0219169083151502179055505b60018081905550801561263a5760008060016101000a81548160ff0219169083151502179055505b50565b82805461264990613891565b90600052602060002090601f01602090048101928261266b57600085556126b2565b82601f1061268457805160ff19168380011785556126b2565b828001600101855582156126b2579182015b828111156126b1578251825591602001919060010190612696565b5b5090506126bf91906126c3565b5090565b5b808211156126dc5760008160009055506001016126c4565b5090565b60006126f36126ee84613641565b613610565b90508281526020810184848401111561270b57600080fd5b61271684828561384f565b509392505050565b60008135905061272d816139a4565b92915050565b600081519050612742816139bb565b92915050565b600081359050612757816139d2565b92915050565b60008083601f84011261276f57600080fd5b8235905067ffffffffffffffff81111561278857600080fd5b6020830191508360018202830111156127a057600080fd5b9250929050565b600082601f8301126127b857600080fd5b81356127c88482602086016126e0565b91505092915050565b6000813590506127e0816139e9565b92915050565b6000813590506127f581613a00565b92915050565b6000610100828403121561280e57600080fd5b612819610100613610565b905060006128298482850161271e565b600083015250602061283d848285016128d9565b60208301525060406128518482850161271e565b604083015250606082013567ffffffffffffffff81111561287157600080fd5b61287d848285016127a7565b6060830152506080612891848285016128d9565b60808301525060a06128a5848285016128d9565b60a08301525060c06128b9848285016128d9565b60c08301525060e06128cd848285016127e6565b60e08301525092915050565b6000813590506128e881613a10565b92915050565b60006020828403121561290057600080fd5b600061290e8482850161271e565b91505092915050565b6000806040838503121561292a57600080fd5b60006129388582860161271e565b92505060206129498582860161271e565b9150509250929050565b6000806040838503121561296657600080fd5b60006129748582860161271e565b9250506020612985858286016128d9565b9150509250929050565b600080600080606085870312156129a557600080fd5b60006129b38782880161271e565b94505060206129c4878288016128d9565b935050604085013567ffffffffffffffff8111156129e157600080fd5b6129ed8782880161275d565b925092505092959194509250565b600060208284031215612a0d57600080fd5b6000612a1b84828501612733565b91505092915050565b600060208284031215612a3657600080fd5b6000612a4484828501612748565b91505092915050565b600060208284031215612a5f57600080fd5b600082013567ffffffffffffffff811115612a7957600080fd5b612a85848285016127fb565b91505092915050565b600060208284031215612aa057600080fd5b6000612aae848285016128d9565b91505092915050565b60008060008060008060a08789031215612ad057600080fd5b6000612ade89828a016128d9565b9650506020612aef89828a0161271e565b955050604087013567ffffffffffffffff811115612b0c57600080fd5b612b1889828a0161275d565b94509450506060612b2b89828a016128d9565b9250506080612b3c89828a016128d9565b9150509295509295509295565b60008060408385031215612b5c57600080fd5b6000612b6a858286016128d9565b9250506020612b7b858286016128d9565b9150509250929050565b600080600060608486031215612b9a57600080fd5b6000612ba8868287016128d9565b9350506020612bb9868287016128d9565b9250506040612bca868287016127d1565b9150509250925092565b612bdd816137a2565b82525050565b612bec816137b4565b82525050565b612bfb816137c0565b82525050565b6000612c0c82613686565b612c168185613691565b9350612c2681856020860161385e565b612c2f8161397f565b840191505092915050565b60008154612c4781613891565b612c5181866136a2565b94506001821660008114612c6c5760018114612c7d57612cb0565b60ff19831686528186019350612cb0565b612c8685613671565b60005b83811015612ca857815481890152600182019150602081019050612c89565b838801955050505b50505092915050565b612cc281613819565b82525050565b612cd18161383d565b82525050565b6000612ce4601c836136ad565b91507f54686520706c616e20697320616c726561647920696e616374697665000000006000830152602082019050919050565b6000612d24601a836136ad565b91507f436f756c646e2774207472616e7366657220746f2070617965650000000000006000830152602082019050919050565b6000612d646019836136ad565b91507f5472616e73616374696f6e206e6f74207363686564756c6564000000000000006000830152602082019050919050565b6000612da46014836136ad565b91507f4e6f2062616c616e636520617661696c61626c650000000000000000000000006000830152602082019050919050565b6000612de46009836136ad565b91507f42616420746f6b656e00000000000000000000000000000000000000000000006000830152602082019050919050565b6000612e246010836136ad565b91507f416c7265616479206578656375746564000000000000000000000000000000006000830152602082019050919050565b6000612e646012836136ad565b91507f5061796d656e74206469642774207061737300000000000000000000000000006000830152602082019050919050565b6000612ea4602f836136ad565b91507f5472616e7366657272656420616d6f756e7420646f65736e2774206d6174636860008301527f20746f74616c20707572636861736500000000000000000000000000000000006020830152604082019050919050565b6000612f0a602e836136ad565b91507f496e697469616c697a61626c653a20636f6e747261637420697320616c72656160008301527f647920696e697469616c697a65640000000000000000000000000000000000006020830152604082019050919050565b6000612f706026836136ad565b91507f536572766963652070726f766964657220616464726573732063616e6e6f742060008301527f62652030783000000000000000000000000000000000000000000000000000006020830152604082019050919050565b6000612fd6601e836136ad565b91507f43616e6e6f74207363686564756c6520697420696e20746865207061737400006000830152602082019050919050565b60006130166008836136ad565b91507f546f6f20736f6f6e0000000000000000000000000000000000000000000000006000830152602082019050919050565b6000613056601b836136ad565b91507f546f6b656e20616464726573732063616e6e6f742062652030783000000000006000830152602082019050919050565b6000613096601b836136ad565b91507f506179656520616464726573732063616e6e6f742062652030783000000000006000830152602082019050919050565b60006130d6600d836136ad565b91507f496e61637469766520706c616e000000000000000000000000000000000000006000830152602082019050919050565b6000613116601f836136ad565b91507f5265656e7472616e637947756172643a207265656e7472616e742063616c6c006000830152602082019050919050565b6000613156600e836136ad565b91507f4e6f7420617574686f72697a65640000000000000000000000000000000000006000830152602082019050919050565b6131928161380f565b82525050565b60006131a48284612c3a565b915081905092915050565b60006020820190506131c46000830184612bd4565b92915050565b60006060820190506131df6000830186612bd4565b6131ec6020830185612bd4565b6131f96040830184613189565b949350505050565b60006040820190506132166000830185612bd4565b6132236020830184613189565b9392505050565b600061010082019050613240600083018b612bd4565b61324d602083018a613189565b61325a6040830189612bd4565b818103606083015261326c8188612c01565b905061327b6080830187613189565b61328860a0830186613189565b61329560c0830185613189565b6132a260e0830184612cc8565b9998505050505050505050565b60006020820190506132c46000830184612be3565b92915050565b60006040820190506132df6000830185612be3565b81810360208301526132f18184612c01565b90509392505050565b600060208201905061330f6000830184612bf2565b92915050565b600060208201905061332a6000830184612cc8565b92915050565b6000602082019050818103600083015261334981612cd7565b9050919050565b6000602082019050818103600083015261336981612d17565b9050919050565b6000602082019050818103600083015261338981612d57565b9050919050565b600060208201905081810360008301526133a981612d97565b9050919050565b600060208201905081810360008301526133c981612dd7565b9050919050565b600060208201905081810360008301526133e981612e17565b9050919050565b6000602082019050818103600083015261340981612e57565b9050919050565b6000602082019050818103600083015261342981612e97565b9050919050565b6000602082019050818103600083015261344981612efd565b9050919050565b6000602082019050818103600083015261346981612f63565b9050919050565b6000602082019050818103600083015261348981612fc9565b9050919050565b600060208201905081810360008301526134a981613009565b9050919050565b600060208201905081810360008301526134c981613049565b9050919050565b600060208201905081810360008301526134e981613089565b9050919050565b60006020820190508181036000830152613509816130c9565b9050919050565b6000602082019050818103600083015261352981613109565b9050919050565b6000602082019050818103600083015261354981613149565b9050919050565b60006020820190506135656000830184613189565b92915050565b60006060820190506135806000830186613189565b61358d6020830185612bd4565b61359a6040830184613189565b949350505050565b60006040820190506135b76000830185613189565b6135c46020830184613189565b9392505050565b60006080820190506135e06000830187613189565b6135ed6020830186613189565b6135fa6040830185612cb9565b6136076060830184612be3565b95945050505050565b6000604051905081810181811067ffffffffffffffff8211171561363757613636613950565b5b8060405250919050565b600067ffffffffffffffff82111561365c5761365b613950565b5b601f19601f8301169050602081019050919050565b60008190508160005260206000209050919050565b600081519050919050565b600082825260208201905092915050565b600081905092915050565b600082825260208201905092915050565b60006136c98261380f565b91506136d48361380f565b9250827fffffffffffffffffffffffffffffffffffffffffffffffffffffffffffffffff03821115613709576137086138c3565b5b828201905092915050565b600061371f8261380f565b915061372a8361380f565b9250817fffffffffffffffffffffffffffffffffffffffffffffffffffffffffffffffff0483118215151615613763576137626138c3565b5b828202905092915050565b60006137798261380f565b91506137848361380f565b925082821015613797576137966138c3565b5b828203905092915050565b60006137ad826137ef565b9050919050565b60008115159050919050565b6000819050919050565b60006137d5826137a2565b9050919050565b60008190506137ea82613990565b919050565b600073ffffffffffffffffffffffffffffffffffffffff82169050919050565b6000819050919050565b60006138248261382b565b9050919050565b6000613836826137ef565b9050919050565b6000613848826137dc565b9050919050565b82818337600083830152505050565b60005b8381101561387c578082015181840152602081019050613861565b8381111561388b576000848401525b50505050565b600060028204905060018216806138a957607f821691505b602082108114156138bd576138bc613921565b5b50919050565b7f4e487b7100000000000000000000000000000000000000000000000000000000600052601160045260246000fd5b7f4e487b7100000000000000000000000000000000000000000000000000000000600052602160045260246000fd5b7f4e487b7100000000000000000000000000000000000000000000000000000000600052602260045260246000fd5b7f4e487b7100000000000000000000000000000000000000000000000000000000600052604160045260246000fd5b6000601f19601f8301169050919050565b600681106139a1576139a06138f2565b5b50565b6139ad816137a2565b81146139b857600080fd5b50565b6139c4816137b4565b81146139cf57600080fd5b50565b6139db816137c0565b81146139e657600080fd5b50565b6139f2816137ca565b81146139fd57600080fd5b50565b60068110613a0d57600080fd5b50565b613a198161380f565b8114613a2457600080fd5b5056fea26469706673582212203419c86b00b9332086f470ba5246e760c1ada5cba58439d9b0319519fa41238d64736f6c63430008000033",
  "immutableReferences": {},
  "source": "// SPDX-License-Identifier: MIT\r\npragma solidity ^0.8.0;\r\nimport '@rsksmart/erc677/contracts/IERC677.sol';\r\nimport '@rsksmart/erc677/contracts/IERC677TransferReceiver.sol';\r\nimport '@openzeppelin/contracts-upgradeable/proxy/utils/Initializable.sol';\r\nimport '@openzeppelin/contracts-upgradeable/security/ReentrancyGuardUpgradeable.sol';\r\n\r\ncontract OneShotSchedule is IERC677TransferReceiver, Initializable, ReentrancyGuardUpgradeable {\r\n  enum ExecutionState { Scheduled, ExecutionSuccessful, ExecutionFailed, Overdue, Refunded, Cancelled }\r\n  // State transitions for scheduled executions:\r\n  //   Scheduled -> Cancelled (requestor cancelled execution)\r\n  //   Scheduled -> ExecutionSuccessful (call was executed in the given time and did not fail)\r\n  //   Scheduled -> ExecutionFailed (call was executed in the given time but failed)\r\n  //   Scheduled -> Overdue (execution window has passed, expected earlier)\r\n  //   Overdue -> Refunded (refund for overdue execution paid)\r\n\r\n  struct Execution {\r\n    address requestor;\r\n    uint256 plan;\r\n    address to;\r\n    bytes data;\r\n    uint256 gas;\r\n    uint256 timestamp;\r\n    uint256 value;\r\n    ExecutionState state;\r\n  }\r\n\r\n  struct Plan {\r\n    uint256 pricePerExecution;\r\n    uint256 window;\r\n    IERC677 token;\r\n    bool active;\r\n  }\r\n\r\n  address public serviceProvider;\r\n  address public payee;\r\n\r\n  Plan[] public plans;\r\n  mapping(address => mapping(uint256 => uint256)) public remainingExecutions;\r\n  mapping(bytes32 => Execution) private executions;\r\n\r\n  event PlanAdded(uint256 indexed index, uint256 price, address token, uint256 window);\r\n  event PlanRemoved(uint256 indexed index);\r\n\r\n  event ExecutionPurchased(address indexed requestor, uint256 plan, uint256 amount);\r\n  event ExecutionRequested(bytes32 indexed id);\r\n  event Executed(bytes32 indexed id, bool success, bytes result);\r\n  event ExecutionCancelled(bytes32 indexed id);\r\n\r\n  modifier onlyProvider() {\r\n    require(address(msg.sender) == serviceProvider, 'Not authorized');\r\n    _;\r\n  }\r\n\r\n  function initialize(address serviceProvider_, address payee_) public initializer {\r\n    __ReentrancyGuard_init();\r\n    require(payee_ != address(0x0), 'Payee address cannot be 0x0');\r\n    require(serviceProvider_ != address(0x0), 'Service provider address cannot be 0x0');\r\n    serviceProvider = serviceProvider_;\r\n    payee = payee_;\r\n  }\r\n\r\n  ///////////\r\n  // ADMIN //\r\n  ///////////\r\n\r\n  function addPlan(\r\n    uint256 price,\r\n    uint256 window,\r\n    IERC677 token\r\n  ) external onlyProvider {\r\n    require(address(token) != address(0x0), 'Token address cannot be 0x0');\r\n    plans.push(Plan(price, window, token, true));\r\n    emit PlanAdded(plans.length - 1, price, address(token), window);\r\n  }\r\n\r\n  function removePlan(uint256 plan) external onlyProvider {\r\n    require(plans[plan].active, 'The plan is already inactive');\r\n    plans[plan].active = false;\r\n    emit PlanRemoved(plan);\r\n  }\r\n\r\n  function setPayee(address payee_) external onlyProvider {\r\n    require(payee_ != address(0x0), 'Payee address cannot be 0x0');\r\n    payee = payee_;\r\n  }\r\n\r\n  //////////////\r\n  // PURCHASE //\r\n  //////////////\r\n\r\n  function totalPrice(uint256 plan, uint256 quantity) private view returns (uint256) {\r\n    return quantity * plans[plan].pricePerExecution;\r\n  }\r\n\r\n  function doPurchase(\r\n    address requestor,\r\n    uint256 plan,\r\n    uint256 amount\r\n  ) private {\r\n    require(plans[plan].active, 'Inactive plan');\r\n    remainingExecutions[requestor][plan] += amount;\r\n    emit ExecutionPurchased(requestor, plan, amount);\r\n  }\r\n\r\n  // purcahse with ERC-20\r\n  function purchase(uint256 plan, uint256 quantity) external {\r\n    doPurchase(msg.sender, plan, quantity);\r\n\r\n    require(plans[plan].token.transferFrom(msg.sender, address(this), totalPrice(plan, quantity)), \"Payment did't pass\");\r\n  }\r\n\r\n  // purcahse with ERC-677\r\n  function tokenFallback(\r\n    address from,\r\n    uint256 amount,\r\n    bytes calldata data\r\n  ) external override returns (bool) {\r\n    (uint256 plan, uint256 quantity) = abi.decode(data, (uint256, uint256));\r\n\r\n    require(address(plans[plan].token) == address(msg.sender), 'Bad token');\r\n    require(amount == totalPrice(plan, quantity), \"Transferred amount doesn't match total purchase\");\r\n\r\n    doPurchase(from, plan, quantity);\r\n    return true;\r\n  }\r\n\r\n  ////////////////\r\n  // SCHEDULING //\r\n  ////////////////\r\n\r\n  // slither-disable-next-line timestamp\r\n  function getState(bytes32 id) public view returns (ExecutionState) {\r\n    Execution memory execution = executions[id];\r\n    if (execution.state == ExecutionState.Scheduled && ((execution.timestamp + plans[execution.plan].window) < block.timestamp)) {\r\n      return ExecutionState.Overdue;\r\n    } else {\r\n      return execution.state;\r\n    }\r\n  }\r\n\r\n  function hash(Execution memory execution) public pure returns (bytes32) {\r\n    return\r\n      keccak256(\r\n        abi.encode(\r\n          execution.requestor,\r\n          execution.plan,\r\n          execution.to,\r\n          execution.data,\r\n          execution.gas,\r\n          execution.timestamp,\r\n          execution.value,\r\n          execution.state\r\n        )\r\n      );\r\n  }\r\n\r\n  function schedule(\r\n    uint256 plan,\r\n    address to,\r\n    bytes calldata data,\r\n    uint256 gas,\r\n    uint256 timestamp\r\n  ) external payable {\r\n    require(remainingExecutions[msg.sender][plan] > 0, 'No balance available');\r\n    remainingExecutions[msg.sender][plan] -= 1;\r\n\r\n    // This is only to prevent errors, doesn't need to be exact\r\n    // timestamp manipulation should be considered in the window by the service provider\r\n    // slither-disable-next-line timestamp\r\n    require(block.timestamp <= timestamp, 'Cannot schedule it in the past');\r\n\r\n    Execution memory execution = Execution(msg.sender, plan, to, data, gas, timestamp, msg.value, ExecutionState.Scheduled);\r\n    bytes32 id = hash(execution);\r\n    executions[id] = execution;\r\n    emit ExecutionRequested(id);\r\n  }\r\n\r\n  function getSchedule(bytes32 id)\r\n    external\r\n    view\r\n    returns (\r\n      address,\r\n      uint256,\r\n      address,\r\n      bytes memory,\r\n      uint256,\r\n      uint256,\r\n      uint256,\r\n      ExecutionState\r\n    )\r\n  {\r\n    Execution memory execution = executions[id];\r\n    ExecutionState state = getState(id);\r\n    return (execution.requestor, execution.plan, execution.to, execution.data, execution.gas, execution.timestamp, execution.value, state);\r\n  }\r\n\r\n  function cancelScheduling(bytes32 id) external {\r\n    Execution storage execution = executions[id];\r\n\r\n    require(getState(id) == ExecutionState.Scheduled, 'Transaction not scheduled');\r\n    require(msg.sender == execution.requestor, 'Not authorized');\r\n\r\n    execution.state = ExecutionState.Cancelled;\r\n    remainingExecutions[execution.requestor][execution.plan] += 1;\r\n    emit ExecutionCancelled(id);\r\n    payable(execution.requestor).transfer(execution.value);\r\n  }\r\n\r\n  ///////////////\r\n  // EXECUTION //\r\n  ///////////////\r\n  function refund(bytes32 id) private {\r\n    Execution storage execution = executions[id];\r\n    remainingExecutions[execution.requestor][execution.plan] += 1;\r\n    execution.state = ExecutionState.Refunded;\r\n    payable(execution.requestor).transfer(execution.value);\r\n  }\r\n\r\n  // The nonReentrant prevents this contract to be call again when the low level call is executed\r\n  // timestamp manipulation should be considered in the window by the service provider\r\n  // slither-disable-next-line timestamp\r\n  function execute(bytes32 id) external nonReentrant {\r\n    Execution storage execution = executions[id];\r\n\r\n    require(execution.state == ExecutionState.Scheduled, 'Already executed');\r\n    // timestamp manipulation should be considered in the window by the service provider\r\n    // slither-disable-next-line timestamp\r\n    require((execution.timestamp - plans[execution.plan].window) < block.timestamp, 'Too soon');\r\n\r\n    if (getState(id) == ExecutionState.Overdue) {\r\n      refund(id);\r\n      return;\r\n    }\r\n\r\n    // The contract makes an external call to execute the scheduled transaction on the specified contract.\r\n    // It needs to get the execution result before emitting the event and changing the matatransaction state.\r\n    // slither-disable-next-line low-level-calls\r\n    (bool success, bytes memory result) = payable(execution.to).call{ gas: execution.gas, value: execution.value }(execution.data);\r\n\r\n    // reentrancy prevented by nonReentrant modifier\r\n    // slither-disable-next-line reentrancy-events\r\n    emit Executed(id, success, result);\r\n\r\n    if (success) {\r\n      // reentrancy prevented by nonReentrant modifier\r\n      // slither-disable-next-line reentrancy-eth\r\n      execution.state = ExecutionState.ExecutionSuccessful;\r\n    } else {\r\n      // reentrancy prevented by nonReentrant modifier\r\n      // slither-disable-next-line reentrancy-eth\r\n      execution.state = ExecutionState.ExecutionFailed;\r\n    }\r\n\r\n    require(plans[execution.plan].token.transfer(payee, plans[execution.plan].pricePerExecution), \"Couldn't transfer to payee\");\r\n  }\r\n}\r\n",
  "sourcePath": "C:/IOVLabs/rif-scheduler-contracts/contracts/OneShotSchedule.sol",
  "compiler": {
    "name": "solc",
    "version": "0.8.0+commit.c7dfd78e.Emscripten.clang"
  },
  "schemaVersion": "3.4.1",
  "updatedAt": "2021-05-17T13:31:36.050Z",
  "devdoc": {
    "kind": "dev",
    "methods": {},
    "version": 1
  },
  "userdoc": {
    "kind": "user",
    "methods": {},
    "version": 1
  }
}